:020000040800F2
:10000000E80600200D020008011F0008611E00081C
:10001000FD1E0008F5070008611F00080000000031
:10002000000000000000000000000000091F0008A0
:10003000F907000800000000051F00080D1F000858
:1000400027020008270200082702000827020008EC
:1000500027020008270200082702000827020008DC
:1000600027020008270200082702000827020008CC
:1000700027020008270200082702000827020008BC
:1000800027020008270200080107000827020008CD
:10009000270200082702000827020008270200089C
:1000A000270200082702000827020008270200088C
:1000B000270200082702000827020008270200087C
:1000C000270200082702000827020008270200086C
:1000D000270200082702000827020008270200085C
:1000E000270200082702000827020008270200084C
:1000F000270200082702000827020008270200083C
:10010000270200082702000827020008270200082B
:10011000270200082702000827020008270200081B
:10012000270200082702000827020008270200080B
:1001300000F002F800F05BF814A696E8000CB24458
:10014000B344DA4501D100F052F8BAE80F000FA627
:1001500096E83000A5EB040504EB0607AAEB0704BC
:10016000A7F101074FEA15154FEA3414A4F1010471
:10017000AC4201D300F03BF813F0010F18BFFB1A9B
:1001800043F0010300F001F8DBE718478824000082
:10019000A8240000103A24BF78C878C1FAD85207C2
:1001A00024BF30C830C144BF04680C6070470000F1
:1001B000704700000023002400250026103A28BFC5
:1001C00078C1FBD8520728BF30C148BF0B607047C9
:1001D000642900F0AB80752900F0A880732900F035
:1001E0005182002070471FB51FBD10B510BD00F033
:1001F0004DFA1146FFF7F7FF02F018F800F06BFA1E
:1002000003B4FFF7F2FF03BC00F072FA094880471D
:1002100009480047FEE7FEE7FEE7FEE7FEE7FEE7E8
:10022000FEE7FEE7FEE7FEE704480549054A064B00
:1002300070470000111F000831010008E80000208D
:10024000E8060020E8020020E80200200FB41CB5F8
:100250000C0007AA009007D04142A14202D32044DB
:10026000401E01E04FF0FF30074B7B446946019090
:10027000069800F0DAF90020002C01D000990870EF
:100280001CBC5DF814FB0000E303000070B50446DD
:1002900085690068C10601D5302600E02026C00728
:1002A00007D070BDD4E9012130469047206A401C38
:1002B00020626D1EF6D570BD70B504468569007864
:1002C000C00707D170BDD4E9012120209047206AE2
:1002D000401C20626D1EF6D570BD70B50C460546FB
:1002E000012A05D02878800600D5EA69002302E0BB
:1002F000012305E05B1C934202D2E05C0028F9D1A7
:10030000A869E618C01AA861286A18442862284615
:10031000FFF7BCFF04E0D5E9012114F8010B904779
:10032000B442F8D32846FFF7C7FF70BD2DE9F0416E
:100330000646002410687529314616A510D0AFF383
:100340000080002802DA404213A507E031688A07DE
:1003500001D512A502E0490704D511A5012401E049
:10036000AFF3008000210A2206F1240709E0B0FB68
:10037000F2FCB0FBF2F302FB1C003030785418465C
:10038000491C0028F3D123462A463046BDE8F041F7
:1003900000F0EDB8000000002D0000002B00000070
:1003A000200000002DE9F05F894604464FF0000A66
:1003B000DFF824B1FB44C0F820A02046E16888475C
:1003C00000287DD0252806D0D4E901219047206A55
:1003D000401C2062F1E700255F462046E16888471F
:1003E0002028064607DB312E05D2B81910F8200C5C
:1003F00008B10543F1E7A80701D525F00405C4F8C5
:100400001CA00027C4F818A02A2E09D0304602F0FC
:10041000D3F838B304EB8708303EC8F8186019E009
:1004200059F8041B204604EB87029161E168884774
:10043000012F064618D1E069002820DA25F02005B2
:100440001DE0D8F8180000EB800006EB40003038C3
:10045000C8F818002046E1688847064602F0ACF864
:100460000028EED1012F0AD02E2E08D12046E168B7
:1004700088477F1C0646022F45F02005C4DBA06993
:10048000002803DA404245F00105A061E80701D0E9
:1004900025F01005A6B1A6F14100192802D8203692
:1004A00045F400654A463146204625604D46FFF733
:1004B0008FFE60B1012807D0ED1D25F0070000E098
:1004C00007E000F1080978E705F1040975E730460F
:1004D0007AE7206ABDE8F09F0E22000010B5431CA9
:1004E00002E010F8011B71B18107FAD14FF001321F
:1004F00002C88C1A8C4314EAC211F9D0C01A0A0639
:1005000003D0C01E10BDC01A10BD0A0401D0801E49
:1005100010BD0902FCD0401E10BD4FF0000200B516
:10052000134694469646203922BFA0E80C50A0E816
:100530000C50B1F12001BFF4F7AF090728BFA0E8C4
:100540000C5048BF0CC05DF804EB890028BF40F890
:10055000042B08BF704748BF20F8022B11F0804FD2
:1005600018BF00F8012B70477047704770472DE99E
:10057000F0470D4699469246044600F1240801686A
:10058000880604D5E06921F01001216000E0012017
:10059000A84201DD471B00E00027A1697A1902EBA0
:1005A0000900081AA0612078C00602D42046FFF78F
:1005B0006DFE002608E0D4E901211AF806009047F4
:1005C000206A401C761C20624E45F4DB2078C00671
:1005D0000AD52046FFF75AFE06E0D4E90121302073
:1005E0009047206A401C2062381EA7F10107F4DC06
:1005F00007E0D4E9012118F805009047206A401C63
:100600002062281EA5F10105F3DC2046FFF754FE09
:100610002078000602D50220BDE8F0870120FBE724
:1006200001694A1C02610878704700B58FB0CDE9B6
:1006300001310021059105497944CDE903101146A6
:100640006846FFF7AFFE0FB000BD0000E5FFFFFFFB
:10065000D1E900239A4202D2531C0B6010707047FC
:1006600010B5436913B1AFF3008001E0FFF735FE29
:10067000012010BD127800F124010A7000224A7096
:100680000122EDE711684FF0FF32E9E7754600F00F
:100690002BF8AE4605006946534620F00700854614
:1006A00018B020B5FFF7C0FDBDE820404FF00006B0
:1006B0004FF000074FF000084FF0000BAC46ACE8DD
:1006C000C009ACE8C009ACE8C009ACE8C00921F039
:1006D00007018D46704710B50446AFF300802046F1
:1006E000BDE81040FFF78CBD0048704710000020A7
:1006F00001491820ABBEFEE726000200704700004B
:1007000040F2B000C2F2000000F0BCB9B0B504463F
:1007100000688168C90701D10020B0BD816821F05F
:100720000101816000F0A2FE054600BF20688068DC
:10073000C007F1D000F09AFE401B0328F6D3A06A50
:1007400040F01000A062E06A40F00100E062012089
:10075000B0BD0000B0B582B0044600200190216811
:100760008A68D2073FD1886840F00100886040F273
:100770000800C2F2000000684DF68361C4F21B312C
:10078000A0FB0101880C01900198A0B101980138EB
:100790000190019878B1019801380190019850B109
:1007A000019801380190019828B101980138019011
:1007B00001980028EAD100F059FE054620688068BB
:1007C000C00713D100F052FE401B0328F6D3A06AE5
:1007D00040F01000A062E06A40F00100E0620020FA
:1007E00084F82400012002B0B0BD00BF002002B098
:1007F000B0BD0000FEE700007047000070B582B099
:1008000004460020019094F82400012802D102201F
:1008100002B070BD012084F824002046FFF776FF67
:1008200020B1002184F8241002B070BD0646A06AF1
:1008300041F2021188430230A06240F20800C2F285
:1008400000000568022000F0CDFEB5FBF0F040008E
:1008500001900198A8B100BF01980138019001985A
:1008600078B1019801380190019850B10198013890
:100870000190019828B10198013801900198002851
:10088000EAD12046FFF766FF2068816841F0080141
:10089000816000F0EBFD054620688168090705D5F9
:1008A00000F0E4FD401B0A28F6D910E0816841F011
:1008B0000401816000F0DAFD054600BF2068806811
:1008C000400709D500F0D2FD401B0B28F6D30120CC
:1008D00010216FF0120203E001216FF00302304695
:1008E000A36A1A401143A162002184F8241002B0C7
:1008F00070BD00007047000070B581B0002200920A
:1009000090F82420012A03D10221084601B070BDCD
:100910004A680123062A02EB820E80F8243007D8A9
:10092000D0F800C06FF004030CF134060CE000BFF7
:10093000D0F800C00C2A87BF0CF12C066FF04003E2
:100940000CF130066FF022030EEB03021F23346814
:1009500003FA02F50B6824EA050503FA02F22A43BA
:100960003260092B03EB43021AD9DCF80C601E3A03
:10097000072589689540AE43914023F00102314339
:10098000102ACCF80C1015D142F20041C4F201013A
:100990008C4517D0816A41F02001816201210AE073
:1009A000DCF81030072689689640B343914019431C
:1009B000CCF810100021002280F82420084601B055
:1009C00070BD00BF89680902F4D4DCF80810102B50
:1009D00041F40001CCF80810ECD140F20801C2F259
:1009E000000109684DF68362C4F21B32A1FB0212BA
:1009F000910C01EB81014900009100990029D9D0A7
:100A000000990139009100990029D3D0009901394A
:100A1000009100990029CDD00099013900910099E9
:100A20000029C7D0009901390091009900294FF0A1
:100A30000001E5D1BFE7000010B5016842F20042B5
:100A4000C4F20102914218BF10BD044600F016F82E
:100A500040F27001C2F200014A6810444860087810
:100A6000013008700878312804D82046BDE81040CD
:100A700000F00ABB0120487010BD00000068C06C87
:100A80007047000010B5044600684168890644BFFD
:100A900001685FEA81710BD44168090644BF0168AF
:100AA0005FEA41712AD4416849065BD410BD00BF9A
:100AB000A16AC90603D4A16A41F40071A1628168E8
:100AC00001F46021B1F5602F10D1217B71B941682B
:100AD00021F020014160A06A20F48070A062A06A29
:100AE000C00403D4A06A40F00100A0622046FFF7D2
:100AF000A3FF20686FF012010160CDE7A16AC9066B
:100B000003D4A16A41F40051A162816801F4E0417B
:100B1000B1F5E04F10D1416821F080014160A06A39
:100B200020F48050A062A06AC00511D4A06A40F0F1
:100B30000100A0620CE000BF4168490508D481684B
:100B400001F46021B1F5602F02D1217B0029E2D0B0
:100B50002046FFF7CFFE20686FF00C01016041686E
:100B60004906A3D50068C00708BF10BDA06A40F4BD
:100B70008030A062204600F0B3F820686FF00101D9
:100B8000016010BD002804BF01207047B0B50446C5
:100B9000806A28B120688168C9070CD03CE000BF9A
:100BA0000020E06284F82400204600F09BF82068D2
:100BB0008168C90730D1A16AC90647D4A16A41F248
:100BC000021291430231A162E36980F0804181F415
:100BD0009E3183F440221143D4E9011208BF4FF43F
:100BE000002343EA010C531EB3FA83F35D09134655
:100BF000B2F5807F18BF2B02217D257B01294CEAAD
:100C000045012ED145B3A56A45F02005A562E56AE8
:100C100045F00105E56224E0816821F00101816071
:100C200000F024FC054600BF20688168C907C2D0D7
:100C300000F01CFC401B0328F6D3A06A40F0100013
:100C4000A062E06A40F00100E062A06AA06A40F0A1
:100C50001000A0620120B0BDA56903EB4533A3F5E8
:100C6000C0534568B2F5807F25F4694543EA050322
:100C7000436083684FF2FD75CFF6E17503EA050323
:100C800043EA0103836001D0012A07D122690023CE
:100C9000CFF6F07303EB025201E000BF0022C36AFB
:100CA00023F470031A43C262806840F6FE62CFF6F6
:100CB0001F721040884207D10020E062A16A012221
:100CC00062F30101A162B0BDA06A40F0100020F003
:100CD0000200A062E06A40F00100E0620120B0BDC5
:100CE0007047000080B586B0014640F60000C4F2AF
:100CF0000100096800F5E05291424FF00001CDE992
:100D00000411CDE9021101D006B080BD41F21801F5
:100D1000C4F202010A6842F400720A600A6802F42E
:100D200000720192019A0A6842F004020A6009689E
:100D300001F00401019101990E2102910321039117
:100D400002A900F099FA12200021002200F00EFC06
:100D5000122000F0F9FB06B080BD00002DE9F04143
:100D600082B000270D460446019700F07FFB216802
:100D70008A68D20544D406464868C00503D4C86AC8
:100D800010F4700F46D040F20800C2F2000007686D
:100D900042F292480220C1F2492800F023FC216867
:100DA00044F624130A69B7FBF0F0C2F292431A42E8
:100DB00006D1CA6844F62413C0F292031A4249D0FD
:100DC0000A6912EA080F07D1CA6842F29243C0F2D8
:100DD00049031A4200F084800A6949F24923C0F2AB
:100DE00024031A424FF0FC0242D1CF681F4208BFD1
:100DF0005422019B02FB00F7BB423ED379E000BFC7
:100E0000A06A40F02000A06284F82470012002B0A3
:100E1000BDE8F081086880076BD4002D55D0681CB0
:100E200012D10868800764D4086880075CBF08682E
:100E30005FEA80705DD408688007F2D559E000BF92
:100E400021680868800754D400F010FB801BA8427A
:100E5000F6D93AE00A6912EA080F4FF0290207D1E1
:100E6000CB6842F29247C0F249073B4208BF1422C6
:100E7000019B02FB00F7BB423BD235B3681C1FD17C
:100E80000198013001900198B84232D201980130A6
:100E900001900198B8422CD201980130019001983C
:100EA000B84226D20198013001900198B842E7D3A8
:100EB0001FE000BF0198013001900198B84217D29D
:100EC00000F0D4FA801BA842F4D9A06A40F00400D4
:100ED000A062002084F82400032002B0BDE8F08165
:100EE0005422019B02FB00F7BB42C6D301E000BFC6
:100EF00021686FF012000860A06A40F40070A062E0
:100F0000886800F46020B0F5602F01D1207B18B113
:100F1000002002B0BDE8F081A06A20F48070A062D9
:100F2000A06AC004F4D4A06A40F00100A0620020CE
:100F300002B0BDE8F0810000B0B582B0044690F880
:100F40002400012802D1022002B0B0BD012084F8A3
:100F500024000020019020688168C90742D181687F
:100F600041F00101816040F20800C2F20000006817
:100F70004DF68361C4F21B31A0FB0101880C019086
:100F80000198A0B1019801380190019878B10198B9
:100F900001380190019850B10198013801900198F1
:100FA00028B101980138019001980028EAD100F099
:100FB0005DFA054620688168C90713D100F056FA2A
:100FC000401B0228F6D9A06A40F01000A062E06A37
:100FD00040F00100E062002084F82400012002B00B
:100FE000B0BD00BFA26A42F2044140F20133C4F234
:100FF00001019A4302F5807301F57F729042A3626A
:101000002AD0A36A23F48013A36243685B0504D546
:10101000A36A012565F30D33A362A56A0023ED04DD
:101020004FF0000544BFE56A25F00605E56284F847
:1010300024306FF002030360836803F46023B3F588
:10104000602F19D1904213D0816841F4A0018160D2
:10105000002002B0B0BD00BF0B6813F4702FD0D0D9
:10106000A36A43F48013A3620B685B05D0D4D4E772
:10107000096811F4702FE7D0816841F48011816014
:10108000002002B0B0BD0000B0B582B0044690F8B8
:101090002400012802D1022002B0B0BD012084F852
:1010A00024000020019020688168C90742D181682E
:1010B00041F00101816040F20800C2F200000068C6
:1010C0004DF68361C4F21B31A0FB0101880C019035
:1010D0000198A0B1019801380190019878B1019868
:1010E00001380190019850B10198013801900198A0
:1010F00028B101980138019001980028EAD100F048
:10110000B5F9054620688168C90713D100F0AEF92A
:10111000401B0228F6D9A06A40F01000A062E06AE5
:1011200040F00100E062002084F82400012002B0B9
:10113000B0BD00BFA26A42F2044140F60173C4F29E
:1011400001019A4302F5807301F57F729042A36218
:101150002ED0A36A23F48013A36243685B0504D5F1
:10116000A36A012565F30D33A362A56A0023ED048C
:101170004FF0000544BFE56A25F00605E56284F8F6
:1011800024306FF002030360436843F020034360A0
:10119000836803F46023B3F5602F19D1904213D014
:1011A000816841F4A0018160002002B0B0BD00BFA1
:1011B0000B6813F4702FCCD0A36A43F48013A3629E
:1011C0000B685B05CCD4D0E7096811F4702FE7D029
:1011D000816841F480118160002002B0B0BD000040
:1011E000B0B5044690F82400012804BF0220B0BD29
:1011F0000121206884F824108168C90708D121469C
:1012000051F8280F41F2011220EA0202002018E0F2
:10121000816821F00101816000F028F9054600BFD6
:1012200020688068C007EAD000F020F9401B03283E
:10123000F6D3A06A214640F01000A06251F82C2F8E
:10124000012042F001020A60002184F82410B0BDA0
:10125000B0B5044600F00AF9054640F20000C2F2BB
:1012600000000078611C18BF044400BF00F0FEF8C5
:10127000401BA042FAD3B0BD2DE9F04F82B00E68FA
:10128000002E00F0E980A0F1804241F6004540F2D6
:101290000043A2F58432C4F201050624C4F201031E
:1012A0004FEAB227A84208BF05244FF0000E4FF0C6
:1012B00001080F254FF0000A4FF0000B052F38BF33
:1012C0004FEAB224009408E00E680AF1010A36FAE7
:1012D0000AF20EF1040E00F0BF8008FA0AFC16EACA
:1012E0000C09F1D04E684FF6FF72C1F2100296421F
:1012F00012DC122E56D8DFE806F0350B4D49555555
:10130000555555555555555555555545510000BFE1
:10131000D1F80CB046E000BF4FF6FF72C1F22102D7
:1013200096420FDC0022C1F2110296421AD000222E
:10133000C1F21202964215D00022C1F22102964259
:1013400010D02FE00022C1F2220296420AD00022E1
:10135000C1F23102964205D00022C1F23202964219
:1013600020D100BF8A684AB1012A14BFC0F814C056
:10137000C0F810C04FF0080B14E000BF4FF0040B92
:1013800010E000BFCA6802F1040B0BE04FF0000B45
:1013900008E000BFCA6802F1080B03E0CA6802F166
:1013A0000C0B00BF02467446B9F5807F24BF04329F
:1013B000203C166805FA04F726EA07070BFA04F63C
:1013C00037431760CA79D2067FF57EAF41F218071E
:1013D000C4F202073A684FF6084542F001023A604B
:1013E0003A68CFF6FF7502F001020192019A2AF0E5
:1013F00003021A440F2457590EF00C06B440A743B9
:10140000009C04FA06F6374357514E680F25F20345
:101410001A6854BF22EA090242EA09021A605A68AD
:10142000B70354BF22EA090242EA09025A60F702EE
:101430009A6854BF22EA090242EA0902B70240F25E
:101440000C479A60C4F201073A6854BF22EA0902C5
:1014500042EA09023A6037E702B0BDE8F08F0000C7
:10146000002A08BF090401617047000040F2E00053
:10147000C2F200000068704740F2000040F2E00154
:10148000C2F20000C2F2000100780A68104408604D
:101490007047000080B542F20000C4F2020001680B
:1014A00041F010010160032000F08CF80F2000F0E3
:1014B00005F800F027F8002080BD000070B540F26C
:1014C0000006C2F2000640F208013278C2F20001C2
:1014D0004FF47A730968B3FBF2F20446B1FBF2F100
:1014E000084600F0A7FC0F2C4FF0010508D838B9CA
:1014F0004FF0FF3021460022002500F037F87460DD
:10150000284670BD82B041F21800C4F202000168A2
:10151000022241F001010160016801F00101019125
:101520000199416841F080514160406800F080506D
:10153000009000980420C4F20100016862F31A616F
:10154000016002B070470000002848BF704700F0FB
:101550001F01012202FA01F11C2202EAD0004EF220
:101560000012CEF2000281507047000010B54EF616
:101570000C5CCEF2000CDCF80030C3F3022E8EF0CF
:101580000704042C28BF0424BEF103034FF0FF3EE0
:101590000EFA04F438BF0023A14399400EFA03F376
:1015A0009A43114300F00F0200F160430901043A2D
:1015B00003F564436244002848BF02F10C0319702C
:1015C00010BD00004EF60C51CEF200010A684FF635
:1015D000FF031A4060F30A2242F0806040F0FD7081
:1015E00008607047411E0F294FF000003DD8DFE82A
:1015F00001F00B2B3C093C3C3C093C3C3C3C3C3C5A
:101600003C3D00BF00F0EAB941F20400C4F2020020
:10161000C16940F202320A40B2F5817F04BF4FF443
:101620000040704701F44071B1F5407F50D0B1F5F2
:10163000007F1CBF00207047006A49F640418007C8
:1016400001EAE070704700BF80B500F0B3F941F2E5
:101650000401C4F2020109680222C1F3813102EBE4
:101660004101B0FBF1F0BDE88040704741F2040158
:10167000C4F202010A6851F8040CC0015CBF0020EA
:101680007047C2F3834016A3185CD20306D440F619
:101690000012C0F23D0250430CE000BF0A6814A3E0
:1016A000C2F340429A5C41F20023C0F27A03B3FBDA
:1016B000F2F250430968490248BF70474AF6AB212D
:1016C0004000CAF6AA21A0FB01014808704700BFEC
:1016D00050F8040C4FF22441800301EAE070704797
:1016E00002030405060708090A0B0C0D0E0F101063
:1016F000010200002DE9F04182B00446007841F279
:101700001C06C007C4F202064AD030685FEAC0086F
:1017100008D4306840F080503060306800F080506D
:101720000190019847F20007C4F200073868C0052D
:1017300012D4386840F480703860FFF797FE054691
:101740003868C00508D4FFF791FE401B6428F7D91C
:10175000032002B0BDE8F081706810F4407012D030
:10176000616801F4407188420DD0706840F24042D7
:10177000C4F24222012320F4407113600023C00709
:101780001360716026D17068616820F4407008436E
:10179000B8F1000F706003D4306820F080503060E2
:1017A0002068810707D556F8181CA26821F440412B
:1017B000114346F8181CC00607D556F8180C616985
:1017C00020F48000084346F8180C002002B0BDE861
:1017D000F08100BFFFF74AFE054641F2883700BF9F
:1017E00070688007CFD4FFF741FE401BB8424FF02E
:1017F0000300F5D9EAE70000002804BF0120704784
:101800002DE9F04381B042F20008C4F20208044618
:10181000D8F800000D4600F0070081420CD9D8F836
:10182000000020F007002843C8F80000D8F80000A6
:1018300000F00700A8426CD1206841F2040981073A
:10184000C4F2020917D5410705D5D9F8001041F4B3
:10185000E061C9F80010010705D5D9F8001041F47E
:101860006051C9F80010D9F80010A26821F0F00109
:101870001143C9F80010C00742D1D8F8000000F0A9
:10188000070085420CD2D8F8000020F0070028435A
:10189000C8F80000D8F8000000F00700A84238D1CE
:1018A0002068410707D5D9F80010E26821F4E0610B
:1018B0001143C9F80010000708D5D9F800002169C4
:1018C00020F4605040EAC100C9F80000D9F80020B7
:1018D00002F00C00082841F20020C0F27A004DD13D
:1018E00042F2F553C2F38341C0F60003595CD203C0
:1018F00038D440F60010C0F23D0048433EE000BF3F
:10190000606859F8041C022808D0012826D18903F0
:1019100006D4012001B0BDE8F08300BF8901F8D5ED
:10192000D9F8001021F003010843C9F80000FFF7BF
:101930009DFD064641F28837D9F80000616800F045
:101940000C00B0EB810F98D0FFF790FD801BB842E0
:10195000F2D9032001B0BDE8F08300BF8907D8D5D4
:10196000DEE700BFD9F8002042F2D753C2F340426D
:10197000C0F600039A5C4843B0FBF2F0D9F80010BF
:1019800042F2D952C1F30311C0F60002515C40F299
:10199000080220FA01F140F20400C2F200000068DF
:1019A000C2F200021160FFF789FD002001B0BDE81E
:1019B000F083000040F2080041F20401C2F200008E
:1019C000C4F202010068096842F2E952C1F3C2217F
:1019D000C0F60002515CC8407047000041F2040CA0
:1019E000C4F2020CDCF8003003F00C00082841F2CD
:1019F0000020C0F27A0018BF704742F2F551C3F3DD
:101A00008342C0F600018A5CD90305D440F6001079
:101A1000C0F23D0050437047DCF8001042F2D7534B
:101A2000C1F34041C0F60003595C5043B0FBF1F0F4
:101A300070470000002804BF012070472DE9F041E5
:101A400082B00446007841F20006C007C4F20206E4
:101A50000CD0706800F00C00042840F081803068E1
:101A6000800303D56068002800F046812078800755
:101A70001BD5706810F00C0F09D0706800F00C00D6
:101A8000082840F087807068C00300F183803068C8
:101A9000800703D52069012840F02E8130686169F4
:101AA00020F0F80040EAC10030602078000713D42D
:101AB000207840072CD4E569002D00F0188170686B
:101AC00000F00C00082840F0A780012D40F00481B0
:101AD000012002B0BDE8F081A069002800F08480F8
:101AE0000020C4F242200121C0F88014FFF7BEFCA0
:101AF000054600BF706A800700F1B280FFF7B6FCB0
:101B0000401B0228F6D9032002B0BDE8F08100BFD7
:101B1000F0695FEAC00808D4F06940F08050F061D5
:101B2000F06900F080500090009847F20007C4F27E
:101B300000073868C00549D4386840F480703860C0
:101B4000FFF794FC054600BF3868C0053ED4FFF798
:101B50008DFC401B6428F7D9032002B0BDE8F0815A
:101B6000706800F00C00082803D17068C0033FF5CE
:101B700076AF61683068002900F00C81B1F5A02FC4
:101B800000F00081B1F5803F40F01A8140F48030D0
:101B90001CE100BF2069002840F20000C4F242208E
:101BA00000F0888001210160FFF760FC054600BF5E
:101BB000306880073FF572AFFFF758FC401B0228E2
:101BC000F6D9032002B0BDE8F08100BFE168306AB9
:101BD000002900F09D80052900F09280012940F045
:101BE000AF8040F00100B1E00020C4F242200021AB
:101BF000C0F88014FFF73AFC054600BF706A800702
:101C00007FF556AFFFF732FC401B0228F6D90320C0
:101C100002B0BDE8F08100BF0027C4F242270020D7
:101C20003866FFF723FC022D05460DD13068800190
:101C300040F1DE80FFF71AFC401B02284FF0030042
:101C4000F4D902B0BDE8F081306880014FD5FFF7CC
:101C50000DFC401B02284FF00300F5D9F1E700BF4F
:101C600040F20800C2F20000006844F6D351C1F20D
:101C70006201A0FB0101480A019000BF00BF01986A
:101C8000411E002801913FF413AF00BF0198411E8F
:101C9000002801913FF40CAF00BF0198411E0028BD
:101CA00001913FF405AF00BF0198411E002801914A
:101CB000E4D1FDE600210160FFF7D8FB054600BF37
:101CC000306880077FF5F1AEFFF7D0FB401B02289C
:101CD0004FF00300F4D9B4E77068216A00F4803251
:101CE0008A4209D1616A00F47010884204D1002050
:101CF00002B0BDE8F08100BF012002B0BDE8F08174
:101D000040F004003062306A40F001001EE000BF85
:101D100020F001003062306A20F004003062FFF7EA
:101D2000A5FB054641F28837306A800720D5FFF7CA
:101D30009DFB401BB8424FF00300F5D981E700BF7F
:101D400020F001003062306A20F004003062FFF7BA
:101D50008DFB054641F28837306A800708D4FFF7CB
:101D600085FB401BB842F7D9032002B0BDE8F081E3
:101D7000B8F1000F3FF59FAEF06920F08050F061A0
:101D800099E600BF40F480203060306840F4803035
:101D90001CE000BF20F480303060306820F48020E8
:101DA0003060FFF763FB0546306880037FF55EAE69
:101DB000FFF75CFB401B64284FF00300F4D940E7B9
:101DC00020F480303060306820F480203060FFF7ED
:101DD0004DFB0546306880033FF548AEFFF746FBF4
:101DE000401B6428F6D9032002B0BDE8F08100BF93
:101DF000206AB0F5803F05D17168A26821F40031F6
:101E0000114371607168626A21F4741111430843CF
:101E1000706001203866FFF729FB044630688001B6
:101E20003FF565AFFFF722FB001B02284FF00300D0
:101E3000F4D906E7411E0020B0EB116F1CBF012052
:101E400070474EF21002CEF2000251604EF623515E
:101E5000CEF20001F0230B700721906011607047F3
:101E6000FEE70000B0B50446DDE90650DDE904CE2A
:101E7000A075A582C4F810E0A4F80CC0C4E9001253
:101E8000A36008B1382108E02046332100F06AF849
:101E90002046322100F066F82821204600F062F842
:101EA0002046012100F05EF820460C2100F05AF88F
:101EB0002046062100F056F8B0BD000042F2F15372
:101EC000C0F60003595C11448039C9B200F04AB829
:101ED000F0B581B00C46097869B1054600270026A7
:101EE000E15D284600F0F0F801362046F7B2FEF733
:101EF000F5FAB842F4D801B0F0BD0000FEE70000EA
:101F0000FEE700007047000070470000FFF7B4BA1A
:101F100041F20000C4F202000168002241F0010118
:101F200001604168CFF6FF021140416001684FF641
:101F3000FF72CFF6F66211400160016821F4802142
:101F40000160416821F4FE0141604FF41F0181608E
:101F50004EF60850CEF200004FF00061016070476D
:101F6000FEE70000F0B581B00446A28980680D4606
:101F700011460022FFF774FAA07D002844D0D4E96E
:101F8000000105F0010200680988FFF769FAD4E949
:101F90000001C5F3400240684988FFF761FAD4E9BF
:101FA0000001C5F3800280688988FFF759FAD4E9F7
:101FB0000001C5F3C002C068C988FFF751FAD4E92F
:101FC0000001C5F3001200690989FFF749FAD4E955
:101FD0000001C5F3401240694989FFF741FAD4E98D
:101FE0000001C5F3801280698989FFF739FAD4E9C5
:101FF0000001EA09C069C989FFF732FA04F1100645
:1020000004F1140750E000BFD4E90001C5F3001249
:1020100000680988FFF724FAD4E90001C5F34012EB
:1020200040684988FFF71CFAD4E90001C5F3801223
:1020300080688988FFF714FAD4E90001EA09C068CA
:10204000C988FFF70DFA2646274656F8100F37F8CD
:10205000141F0122FFF704FA0120FFF7F9F8306896
:1020600039880022FFF7FCF9D4E9000105F00102EC
:1020700000680988FFF7F4F9D4E90001C5F34002CC
:1020800040684988FFF7ECF9D4E90001C5F3800204
:1020900080688988FFF7E4F9D4E90001C5F3C0023C
:1020A000C068C988FFF7DCF9306839880122FFF77A
:1020B000D7F90120FFF7CCF830683988002201B049
:1020C000BDE8F040FFF7CCB9F0B581B00446A28975
:1020D00080680D4611460122FFF7C2F9A07D002855
:1020E00044D0D4E9000105F0010200680988FFF737
:1020F000B7F9D4E90001C5F3400240684988FFF709
:10210000AFF9D4E90001C5F3800280688988FFF740
:10211000A7F9D4E90001C5F3C002C068C988FFF778
:102120009FF9D4E90001C5F3001200690989FFF79E
:1021300097F9D4E90001C5F3401240694989FFF7D6
:102140008FF9D4E90001C5F3801280698989FFF70E
:1021500087F9D4E90001EA09C069C989FFF780F964
:1021600004F1100604F1140750E000BFD4E90001A7
:10217000C5F3001200680988FFF772F9D4E900017D
:10218000C5F3401240684988FFF76AF9D4E90001B5
:10219000C5F3801280688988FFF762F9D4E90001ED
:1021A000EA09C068C988FFF75BF92646274656F852
:1021B000100F37F8141F0122FFF752F90120FFF723
:1021C00047F8306839880022FFF74AF9D4E900015E
:1021D00005F0010200680988FFF742F9D4E900011F
:1021E000C5F3400240684988FFF73AF9D4E9000195
:1021F000C5F3800280688988FFF732F9D4E90001CD
:10220000C5F3C002C068C988FFF72AF93068398869
:102210000122FFF725F90120FFF71AF83068398805
:10222000002201B0BDE8F040FFF71AB99CB0FFF7FB
:1022300031F912AC201D2421FEF76FF90220129013
:102240000120169010200025179020460C95CDE90E
:102250000A55CDE908551995FFF7ECFB20B1EFF3CE
:10226000108072B6FEE700BF0F20CDE90D050DA866
:102270000021CDE90F551195FFF7BEFA20B1EFF31C
:10228000108072B6FEE700BF0226002507A8079659
:102290000995FFF72FFA28B1EFF3108072B600BF4F
:1022A000FEE700BF41F21800CDE91455CDE9125503
:1022B000C4F20200016840F6004441F020010160D0
:1022C0000168C4F2010401F0200107910799016837
:1022D000002241F00401016001683F2701F0040180
:1022E00007910799016841F00801016000683F21EA
:1022F00000F00800079007982046FFF7B1F8129702
:10230000012712A92046CDE913751596FEF7B4FFF3
:1023100040F27006C2F2000604F5C051304640F8A3
:10232000401F4FF4602105730575C161C0E9015577
:102330000761FEF727FC28B1EFF3108072B600BFEB
:10234000FEE700BF06F140054FF0070912A9284635
:10235000CDE91277CDF85090FEF7CEFA20B1EFF329
:10236000108072B6FEE700BF0420C0F2080005909E
:102370000120C0F202000490202010214FF0000B39
:10238000CDE90014029012A807A904AA2346CDE9BA
:102390000944CDE90744CDF80CB0FFF763FD0DF11A
:1023A000480C9CE88F1006F1080E8EE88F100E2066
:1023B00012900320CDE9130BA4F5806012A9CDF88B
:1023C00054B0FEF759FF2846FEF718FA40F20C0801
:1023D000306CC2F20008012188F80010C0F834B057
:1023E000CDE90D110DA92846CDF83C90FEF784FAF1
:1023F0000520FEF72DFF2846FEF79EFD28464FF0EC
:10240000FF31FEF7ABFC2846FEF738FB2846FEF707
:10241000E7FE2846C6F804B086F800B086F801B09A
:10242000FEF732FE2AE000BF344654F8400F012187
:1024300088F80010C0F834B0CDE90D1107200F90D6
:1024400020460DA9FEF758FA0520FEF701FF2046A9
:10245000FEF772FD20464FF0FF31FEF77FFC20466D
:10246000FEF70CFB2046FEF7BBFE2046C6F804B084
:1024700086F800B086F801B0FEF706FE70780128F5
:1024800008D07078012805D07078012802D07078C3
:102490000128F3D1706848F21F51C5F2EB11A0FB7F
:1024A0000101C1F30F1A40F6E4400AFB00F11120CC
:1024B000C1F20100A1FB002098F8002045F2094379
:1024C000013AC1F26303D2B2A1FB0331022A9CBFDD
:1024D0002BA353F822908D0CC0F3CC2142F2C502FD
:1024E0005143090D4FF47A725143C1EB102080B271
:1024F00041F69A11484306F12004070C204620219A
:1025000022A24B46CDE90057FDF7A0FE06F10805D3
:10251000284600210022FFF7D1FC28462146FFF77C
:10252000D7FC204620211FA24B46CDF800A0FDF786
:102530008DFE284601210022FFF7C0FC28462146D7
:10254000FFF7C6FC4FF47A70FEF782FE98F80000A1
:1025500003283FF469AF022806D001288ED1344603
:1025600054F8400F022103E0344654F8400F032191
:1025700088F80010C0F834B001200D910E905DE78E
:1025800005260008092600080D2600082573205698
:102590006F6C743A2025642E25303264205620203A
:1025A000000000002573204D65616E3A20253475CA
:1025B000202020200000000030380A2801D201200D
:1025C0007047002070470400000800000000000071
:1025D00000020001000010010200000000000000E5
:1025E00000010203040607080900000000010203BD
:1025F000040040105002030405060708090A0B0CEA
:102600000D0E0F1010434831004348320043483349
:102610000000000038260008000000201000000024
:10262000940100084826000810000020D806000089
:10263000B4010008000000000100000010000000CC
:082640000024F4000100000079
:0400000508000131BD
:00000001FF
