:020000040800F2
:1000000018070020F90100085D19000855190008BB
:1000100059190008B5020008D519000800000000B1
:10002000000000000000000000000000651900084A
:10003000B9020008000000006119000869190008F1
:10004000130200081302000813020008130200083C
:10005000130200081302000813020008130200082C
:10006000130200081302000813020008130200081C
:10007000130200081302000813020008130200080C
:1000800013020008130200081302000813020008FC
:1000900013020008130200081302000813020008EC
:1000A00013020008130200081302000813020008DC
:1000B00013020008130200081302000813020008CC
:1000C00013020008130200081302000813020008BC
:1000D00013020008C91900081302000813020008DF
:1000E000130200081302000813020008130200089C
:1000F000130200081302000813020008130200088C
:10010000130200081302000813020008130200087B
:10011000130200081302000813020008130200086B
:10012000130200081302000813020008130200085B
:1001300000F002F800F050F814A696E8000CB24463
:10014000B344DA4501D100F047F8BAE80F000FA632
:1001500096E83000A5EB040504EB0607AAEB0704BC
:10016000A7F101074FEA15154FEA3414A4F1010471
:10017000AC4201D300F030F813F0010F18BFFB1AA6
:1001800043F0010300F001F8DBE71847381B0000DB
:10019000581B0000103A24BF78C878C1FAD852071B
:1001A00024BF30C830C144BF04680C6070470000F1
:1001B000704700000023002400250026103A28BFC5
:1001C00078C1FBD8520728BF30C148BF0B607047C9
:1001D0001FB51FBD10B510BD00F031F81146FFF777
:1001E000F7FF01F0F9FB00F04FF803B4FFF7F2FF5F
:1001F00003BC00F057F80000094880470948004751
:10020000FEE7FEE7FEE7FEE7FEE7FEE7FEE7FEE7C6
:10021000FEE7FEE704480549054A064B7047000023
:100220006D1900083101000818010020180700208E
:100230001803002018030020704770477047754668
:1002400000F02CF8AE4605006946534620F0070042
:10025000854618B020B5FFF7DDFFBDE820404FF020
:1002600000064FF000074FF000084FF0000BAC46BF
:10027000ACE8C009ACE8C009ACE8C009ACE8C0090A
:1002800021F007018D46704710B50446AFF300809A
:100290002046BDE81040FFF7A8BF000000487047A7
:1002A0001000002001491820ABBEFEE72600020026
:1002B00070470000FEE700007047000090F8211032
:1002C000022927D1026840F2040C1368C4F2020C20
:1002D00023F00E03136013680CF17C018A4223F0B3
:1002E000010111601AD940F20841C4F202018A42A8
:1002F00050D040F21C41C4F202018A4242D040F286
:100300003041C4F202018A4248D14FF48073CCF8E4
:1003100000345CE004218163012070474321C4F272
:1003200002018A420EDD6B21C4F202018A421BDC0B
:100330004421C4F202018A423ED05821C4F2020193
:100340008A4223E00821C4F202018A4232D01C21F1
:10035000C4F202018A4237D03021C4F202018A423B
:1003600014D14FF4807230E06C21C4F202018A4251
:1003700026D08021C4F202018A4207D14FF0807258
:1003800023E000BF1023CCF8003420E04FF480328B
:100390001BE000BF0123CCF8003418E00CF58861A5
:1003A0004FF480338A4208BF4FF48053CCF80034B6
:1003B0000DE000BF012208E04FF4805205E000BFCD
:1003C0004FF4801201E000BF1022CCF80020416BF6
:1003D0004FF480720029028404BF0020704780B56A
:1003E0008847002080BD00002DE9F04F82B00E68E4
:1003F000002E00F0E980A0F1804241F6004540F275
:100400000043A2F58432C4F201050624C4F20103BC
:100410004FEAB227A84208BF05244FF0000E4FF064
:1004200001080F254FF0000A4FF0000B052F38BFD1
:100430004FEAB224009408E00E680AF1010A36FA85
:100440000AF20EF1040E00F0BF8008FA0AFC16EA68
:100450000C09F1D04E684FF6FF72C1F210029642BD
:1004600012DC122E56D8DFE806F0350B4D495555F3
:10047000555555555555555555555545510000BF80
:10048000D1F80CB046E000BF4FF6FF72C1F2210276
:1004900096420FDC0022C1F2110296421AD00022CD
:1004A000C1F21202964215D00022C1F221029642F8
:1004B00010D02FE00022C1F2220296420AD0002280
:1004C000C1F23102964205D00022C1F232029642B8
:1004D00020D100BF8A684AB1012A14BFC0F814C0F5
:1004E000C0F810C04FF0080B14E000BF4FF0040B31
:1004F00010E000BFCA6802F1040B0BE04FF0000BE4
:1005000008E000BFCA6802F1080B03E0CA6802F104
:100510000C0B00BF02467446B9F5807F24BF04323D
:10052000203C166805FA04F726EA07070BFA04F6DA
:1005300037431760CA79D2067FF57EAF41F21807BC
:10054000C4F202073A684FF6084542F001023A60E9
:100550003A68CFF6FF7502F001020192019A2AF083
:1005600003021A440F2457590EF00C06B440A74357
:10057000009C04FA06F6374357514E680F25F203E4
:100580001A6854BF22EA090242EA09021A605A684C
:10059000B70354BF22EA090242EA09025A60F7028D
:1005A0009A6854BF22EA090242EA0902B70240F2FD
:1005B0000C479A60C4F201073A6854BF22EA090264
:1005C00042EA09023A6037E702B0BDE8F08F000066
:1005D00040F21410C2F200000068704740F20000C0
:1005E00040F21411C2F20000C2F2000100780A6861
:1005F000104408607047000080B542F20000C4F269
:100600000200016841F010010160032000F08CF845
:100610000F2000F005F800F027F8002080BD000052
:1006200070B540F20006C2F2000640F208013278CE
:10063000C2F200014FF47A730968B3FBF2F2044688
:10064000B1FBF2F1084600F085FB0F2C4FF00105DD
:1006500008D838B94FF0FF3021460022002500F0BD
:1006600037F87460284670BD82B041F21800C4F2B9
:1006700002000168022241F001010160016801F0FD
:10068000010101910199416841F080514160406848
:1006900000F08050009000980420C4F2010001682E
:1006A00062F31A61016002B070470000002848BF81
:1006B000704700F01F01012202FA01F11C2202EA38
:1006C000D0004EF20012CEF20002815070470000BE
:1006D00010B54EF60C5CCEF2000CDCF80030C3F323
:1006E000022E8EF00704042C28BF0424BEF103035D
:1006F0004FF0FF3E0EFA04F438BF0023A1439940A7
:100700000EFA03F39A43114300F00F0200F1604325
:100710000901043A03F564436244002848BF02F12A
:100720000C03197010BD00004EF60C51CEF2000102
:100730000A684FF6FF031A4060F30A2242F0806015
:1007400040F0FD7008607047002804BF012070472A
:100750002DE9F04381B042F20008C4F202080446D9
:10076000D8F800000D4600F0070081420CD9D8F8F7
:10077000000020F007002843C8F80000D8F8000067
:1007800000F00700A8426CD1206841F204098107FB
:10079000C4F2020917D5410705D5D9F8001041F474
:1007A000E061C9F80010010705D5D9F8001041F43F
:1007B0006051C9F80010D9F80010A26821F0F001CA
:1007C0001143C9F80010C00742D1D8F8000000F06A
:1007D000070085420CD2D8F8000020F0070028431B
:1007E000C8F80000D8F8000000F00700A84238D18F
:1007F0002068410707D5D9F80010E26821F4E061CC
:100800001143C9F80010000708D5D9F80000216984
:1008100020F4605040EAC100C9F80000D9F8002077
:1008200002F00C00082841F20020C0F27A004DD1FD
:1008300041F6B443C2F38341C0F60003595CD203CE
:1008400038D440F60010C0F23D0048433EE000BFFF
:10085000606859F8041C022808D0012826D18903B1
:1008600006D4012001B0BDE8F08300BF8901F8D5AE
:10087000D9F8001021F003010843C9F80000FFF780
:10088000A7FE064641F28837D9F80000616800F0FB
:100890000C00B0EB810F98D0FFF79AFE801BB84296
:1008A000F2D9032001B0BDE8F08300BF8907D8D595
:1008B000DEE700BFD9F8002041F69A43C2F3404278
:1008C000C0F600039A5C4843B0FBF2F0D9F8001080
:1008D00041F69C42C1F30311C0F60002515C40F2A4
:1008E000080220FA01F140F20400C2F200000068A0
:1008F000C2F200021160FFF793FE002001B0BDE8D4
:10090000F083000040F2080041F20401C2F200004E
:10091000C4F202010068096841F6AC42C1F3022149
:10092000C0F60002515CC8407047000040F2080069
:1009300041F20401C2F20000C4F202010068096839
:1009400041F6AC42C1F3C221C0F60002515CC8407E
:1009500070470000002804BF012070472DE9F041D6
:1009600082B00446007841F20006C007C4F20206D5
:100970000CD0706800F00C00042840F081803068D2
:10098000800303D56068002800F046812078800746
:100990001BD5706810F00C0F09D0706800F00C00C7
:1009A000082840F087807068C00300F183803068B9
:1009B000800703D52069012840F02E8130686169E5
:1009C00020F0F80040EAC10030602078000713D41E
:1009D000207840072CD4E569002D00F0188170685C
:1009E00000F00C00082840F0A780012D40F00481A1
:1009F000012002B0BDE8F081A069002800F08480E9
:100A00000020C4F242200121C0F88014FFF7E0FD6D
:100A1000054600BF706A800700F1B280FFF7D8FD7D
:100A2000401B0228F6D9032002B0BDE8F08100BFC8
:100A3000F0695FEAC00808D4F06940F08050F061C6
:100A4000F06900F080500090009847F20007C4F26F
:100A500000073868C00549D4386840F480703860B1
:100A6000FFF7B6FD054600BF3868C0053ED4FFF766
:100A7000AFFD401B6428F7D9032002B0BDE8F08128
:100A8000706800F00C00082803D17068C0033FF5BF
:100A900076AF61683068002900F00C81B1F5A02FB5
:100AA00000F00081B1F5803F40F01A8140F48030C1
:100AB0001CE100BF2069002840F20000C4F242207F
:100AC00000F0888001210160FFF782FD054600BF2C
:100AD000306880073FF572AFFFF77AFD401B0228B0
:100AE000F6D9032002B0BDE8F08100BFE168306AAA
:100AF000002900F09D80052900F09280012940F036
:100B0000AF8040F00100B1E00020C4F2422000219B
:100B1000C0F88014FFF75CFD054600BF706A8007CF
:100B20007FF556AFFFF754FD401B0228F6D903208E
:100B300002B0BDE8F08100BF0027C4F242270020C8
:100B40003866FFF745FD022D05460DD1306880015E
:100B500040F1DE80FFF73CFD401B02284FF0030010
:100B6000F4D902B0BDE8F081306880014FD5FFF7BD
:100B70002FFD401B02284FF00300F5D9F1E700BF1D
:100B800040F20800C2F20000006844F6D351C1F2FE
:100B90006201A0FB0101480A019000BF00BF01985B
:100BA000411E002801913FF413AF00BF0198411E80
:100BB000002801913FF40CAF00BF0198411E0028AE
:100BC00001913FF405AF00BF0198411E002801913B
:100BD000E4D1FDE600210160FFF7FAFC054600BF05
:100BE000306880077FF5F1AEFFF7F2FC401B02286A
:100BF0004FF00300F4D9B4E77068216A00F4803242
:100C00008A4209D1616A00F47010884204D1002040
:100C100002B0BDE8F08100BF012002B0BDE8F08164
:100C200040F004003062306A40F001001EE000BF76
:100C300020F001003062306A20F004003062FFF7DB
:100C4000C7FC054641F28837306A800720D5FFF798
:100C5000BFFC401BB8424FF00300F5D981E700BF4D
:100C600020F001003062306A20F004003062FFF7AB
:100C7000AFFC054641F28837306A800708D4FFF799
:100C8000A7FC401BB842F7D9032002B0BDE8F081B1
:100C9000B8F1000F3FF59FAEF06920F08050F06191
:100CA00099E600BF40F480203060306840F4803026
:100CB0001CE000BF20F480303060306820F48020D9
:100CC0003060FFF785FC0546306880037FF55EAE37
:100CD000FFF77EFC401B64284FF00300F4D940E787
:100CE00020F480303060306820F480203060FFF7DE
:100CF0006FFC0546306880033FF548AEFFF768FC9F
:100D0000401B6428F6D9032002B0BDE8F08100BF83
:100D1000206AB0F5803F05D17168A26821F40031E6
:100D2000114371607168626A21F4741111430843C0
:100D3000706001203866FFF74BFC04463068800184
:100D40003FF565AFFFF744FC001B02284FF003009E
:100D5000F4D906E7411E0020B0EB116F1CBF012043
:100D600070474EF21002CEF2000251604EF623514F
:100D7000CEF20001F0230B700721906011607047E4
:100D800090F83C20012A4FF0020219D080B580F87B
:100D90003D2002685368D2F808C091E8024023F071
:100DA000700319432CF0800343EA0E0351609360F3
:100DB0000121002280F83D1080F83C20BDE88040F1
:100DC00010467047002804BF0120704710B590F806
:100DD0003D1031B9002180F83C10044600F070F855
:100DE0002046022180F83D10016840F6FF320B6872
:100DF000C4F2000240F6004E43F2004C9142C4F2AD
:100E0000000EC4F2010C21DCB1F1804F28D040F279
:100E10000044C4F20004A14222D040F60004C4F20F
:100E20000004A1421CD0914220DCB1F1804F27D0B8
:100E300040F20042C4F20002914221D040F600028A
:100E4000C4F2000291421BD01EE000BF714507D0E2
:100E5000614505D042F60044C4F20104A142E2D14A
:100E6000846823F0700323439142DEDD714507D08F
:100E7000614505D042F60042C4F20102914203D11D
:100E8000026923F440731343846923F08002D0F88D
:100E900004E0C368224361450A60CB62C1F828E0E0
:100EA00005D042F60042C4F20102914201D14269EA
:100EB0000A6301224A6180F83D20002010BD000035
:100EC0000068B0F1804F18BF704781B041F21C003C
:100ED000C4F20200016841F001010160006800F005
:100EE00001000090009801B07047000090F83C208D
:100EF000012A4FF0020248D080B580F83D20D0F89A
:100F000000C04FF67772DCF8083023EA0202CCF812
:100F100008200B683F2B1DDD5F2B39DD602B5BD07C
:100F2000B3F5005F00F09880702B26D1D1E901E382
:100F3000C968DCF8082043EA0E0322F47F4243EA42
:100F400001211143CCF80810DCF8081041F07701BA
:100F500011E000BF1F2B03DC33B1102B04D00CE0D9
:100F6000202B01D0302B08D1DCF8081021F07001C3
:100F7000194341F00701CCF808100121002280F844
:100F80003D1080F83C20BDE880401046704700BF0F
:100F9000402B41D0502BF0D1D1F804E0C968DCF8E7
:100FA0002030DCF8202022F00102CCF82020DCF8F0
:100FB000182022F0F00242EA011123F00A0242EA6C
:100FC0000E02CCF81810CCF82020DCF8081041F004
:100FD000570121F02001CEE7D1F804E0C968DCF820
:100FE000203023F01003CCF82030DCF81830DCF887
:100FF000202023F4704322F0A00243EA013142EAA8
:101000000E12CCF81810CCF82020DCF8081041F0B3
:10101000670121F01001AEE7D1F804E0C968DCF8FF
:101020002030DCF8202022F00102CCF82020DCF86F
:10103000182022F0F00242EA011123F00A0242EAEB
:101040000E02CCF81810CCF82020DCF8081041F083
:10105000470121F030018EE7D1E901E3C968DCF8EE
:10106000082043EA0E0322F47F4243EA01211143A0
:10107000CCF80810DCF8081041F480417BE7000050
:1010800080B586B00068B0F1804F4FF00000CDE928
:101090000400CDE9020001D006B080BD41F2180085
:1010A000C4F20200016841F004010160006802A975
:1010B00000F00400019001980320029002200390A8
:1010C000059040F60000C4F20100FFF78DF906B06C
:1010D00080BD000090F83C30012B4FF0020300F07F
:1010E00023814FEAB202032A80F83D3000F21681D4
:1010F0002DE9F041DFE802F002C64690036843F2B2
:1011000000461A6AC4F2010622F001021A621D6A40
:101110001A465C6852F818CF8F68D1F800E025F0C5
:101120000205B34245EA070505D042F60047C4F27E
:101130000107BB4205D1CF6825F00C0527F0040755
:101140003D43B34205D042F60046C4F20106B34225
:1011500005D1D1E9056724F4407434433C432CF0B5
:10116000730747EA0E075C609F614F6809695F6318
:101170001D629F6947F008079F619F6927F0040778
:101180009F61C6E0036843F200461A6AC4F2010692
:1011900022F480721A621D6A1A46D3F804C052F80B
:1011A0001CEF8F68D1F8008025F40075B34245EA42
:1011B000072505D042F60047C4F20107BB4208D11B
:1011C000CF6840F2FF443F0225F4406527EA04045B
:1011D0002543B34205D042F60044C4F20104A342C1
:1011E00006D1D1E905462CF44057264347EA061CB0
:1011F0002EF0730747EA0807C3F804C0DF614F68A1
:101200000969DF631D62DF6947F00807DF61DF6995
:1012100027F00407DF617CE0036843F200471A6AA5
:10122000C4F2010722F480521A621A46D3F820C091
:101230005D6852F81C4FD1F800E08E68BB4205D0C3
:1012400042F60047C4F20107BB4204D14F6925F4BE
:10125000804545EA87152CF4005747EA063724F401
:10126000E64646EA0E265D60DE614E6809691E6448
:101270001F62DF6947F40067DF61DF6927F4806779
:10128000DF6145E0036843F200481A6AC4F20108CE
:1012900022F010021A621D6A1A465C6852F818CFD2
:1012A0008F68D1F800E025F02005434545EA071591
:1012B00005D042F60047C4F20107BB4207D1CF6810
:1012C0006FF0400625F0C00506EA07163543434592
:1012D00005D042F60046C4F20106B34206D1D1E978
:1012E000056724F440643E4344EA86042CF4E64750
:1012F00047EA0E275C609F614F6809699F631D6222
:101300009F6947F400679F619F6927F480679F6129
:101310000902136819431160BDE8F041012100235F
:1013200080F83D1080F83C3018467047002804BF14
:101330000120704710B590F83D1031B9002180F8B8
:101340003C10044600F070F82046022180F83D1061
:10135000016840F6FF320B68C4F2000240F6004E0E
:1013600043F2004C9142C4F2000EC4F2010C21DCA5
:10137000B1F1804F28D040F20044C4F20004A142F1
:1013800022D040F60004C4F20004A1421CD09142D5
:1013900020DCB1F1804F27D040F20042C4F20002BD
:1013A000914221D040F60002C4F2000291421BD0CB
:1013B0001EE000BF714507D0614505D042F60044EC
:1013C000C4F20104A142E2D1846823F070032343F4
:1013D0009142DEDD714507D0614505D042F60042FD
:1013E000C4F20102914203D1026923F44073134312
:1013F000846923F08002D0F804E0C3682243614589
:101400000A60CB62C1F828E005D042F60042C4F27F
:101410000102914201D142690A6301224A6180F8C6
:101420003D20002010BD000070470000006801F062
:101430001F010122036A02FA01F123EA010202629A
:10144000026A114343F20042C4F201029042016277
:1014500005D042F60041C4F20101884203D1416C3B
:1014600041F400414164816801F00701062903D07D
:10147000016841F00101016000207047006843F6F7
:101480000001C4F20101884218BF704740F27000A9
:10149000C2F20000811C40F2D400C2F2000001221E
:1014A00000F0ECB9B0B501680A68CC684B6902F08D
:1014B0002F05202D04F0200512D18DB190F83A208F
:1014C000222A40F017818268B2F5805F3ED103691D
:1014D000826A4968002B61D0C9B222F8011B61E021
:1014E0005FEA027C1EBF03F0010E04F4907313EB5D
:1014F0000E0337D1130617D514F0800314D090F8DB
:101500003920212A40F0F6808368026AB3F5805FB3
:1015100030D113886FF35F234B600369002B14BF36
:1015200001320232026229E0520640F1E38014F0F7
:10153000400208BFB0BDCA6822F04002CA60202144
:1015400080F83910BDE8B04000F002BA026949687D
:10155000002A826A18BF01F07F01531C8362117058
:1015600021E000BFD30718BF14F4807336D15307AE
:101570003AD440E0531C036212784A60C28C013AAC
:101580001304C28440F0B680C86820F08000C860B0
:10159000C86840F04000C860B0BD00BF6FF35F2175
:1015A00022F8021B8262C18D01390A04C18540F014
:1015B000A1800168CA6822F02002CA60CA6822F4C9
:1015C0008072CA604A6922F001024A61202180F8D3
:1015D0003A10BDE8B04000F07BB900BFC36B43F0E8
:1015E0000103C363530706D5BEF1000F03D0C36BDD
:1015F00043F00203C363930706D5BEF1000F03D087
:10160000C36B43F00403C363BCF1000F06D5BEF106
:10161000000F03D0C36B43F00803C363C36B002BFD
:1016200068D092063BD5D5B390F83A20222A36D11D
:101630008268B2F5805F07D10369826A49687BB12D
:10164000C9B222F8011B0FE002694968002A826AC8
:1016500018BF01F07F01531C8362117005E000BFC9
:101660006FF35F2122F8021B8262C18D4A1EC28580
:101670000168120413D1CA68044622F02002CA602D
:10168000CA6822F48072CA604A6922F001024A6183
:10169000202180F83A1000F01BF9216820464A69A1
:1016A000C36B02F0400203F00803D21824D0CA68CA
:1016B00022F49072CA604A6922F001024A61202233
:1016C00080F83A204A6952061CD54A6922F0400245
:1016D0004A61416BB1B141F6BD12C0F60002044649
:1016E00008464A63FEF7EAFD20B1606B416BBDE836
:1016F000B0400847B0BD00BF0446FFF7BFFE002062
:10170000E063B0BDBDE8B040FFF7B8BE002804BF3D
:101710000120704710B5044690F8390028B9002020
:1017200084F83800204600F061F8242084F839005D
:101730002068D4E90212C36823F40053C36003692C
:1017400023F440531A430261D4E904231143C268CD
:10175000194341F20C639A431143C1604169A26984
:1017600021F44071114343F60002C4F20102904299
:10177000416103D0FFF7C6F802E000BFFFF7D6F8DB
:10178000D4E90023192148439900B0FBF1F048F255
:101790001F5CC5F2EB1CA0FB0C314FF69C73490992
:1017A000C0F6FF7301FB0300322303EB0010A0FB24
:1017B0000C03F02000EA531000EB0110C3F34311B7
:1017C000084490601069202120F490401061506915
:1017D00020F02A005061D06840F40050D060002012
:1017E000E06384F8391084F83A1010BD70B586B003
:1017F00040F60004C4F20104006804F540510026DC
:1018000088420596CDE90366029601D006B070BD08
:1018100041F21800C4F20200016802AD41F48041B7
:101820000160016801F4804101910199016841F072
:10183000040101600068294600F00400019001984D
:101840004FF4007002900220039003200590204680
:10185000FEF7CAFD4FF48060CDE902062046294616
:101860000496FEF7C1FD252000210022FEF730FF7F
:101870002520FEF71BFF06B070BD0000034690F860
:101880003A0020280AD100294FF0010018BF002A91
:1018900000D1704793F83800012801D10220704729
:1018A0009962002022219A85DA85D86383F83A105C
:1018B000196883F83800CA6842F48072CA604A69BD
:1018C00042F001024A61CA6842F02002CA607047D1
:1018D000006843F60001C4F20101884218BF704756
:1018E00081B0002100910268009240680090009849
:1018F00040F27000C2F200008278412A01B009D1A2
:101900000170817802780244D17001780131017050
:101910000EE000BF81780A2902D081780D290FD10D
:10192000017829B1017800220144CA700121417077
:10193000811C40F2D400C2F200000122FFF79EBFDA
:1019400001780029F4D001781D29DAD9F0E70000E8
:1019500070470000FEE70000FEE70000FEE7000021
:101960007047000070470000FEF738BE41F20000EB
:10197000C4F202000168002241F0010101604168E7
:10198000CFF6FF021140416001684FF6FF72CFF6BB
:10199000F66211400160016821F480210160416814
:1019A00021F4FE0141604FF41F0181604EF60850A2
:1019B000CEF200004FF0006101607047406A0021E4
:1019C000C185C184FFF75ABD40F2D400C2F20000C5
:1019D000FFF768BDFEE7000092B0FEF70DFE0024A1
:1019E0000120CDE90B44CDE9094406900A904FF45B
:1019F000E0104FF4803102250F9006A8CDE90714BE
:101A0000CDE90D51FEF7A6FF20B1EFF3108072B6BD
:101A1000FEE700BF0F20CDE901054FF48060CDE95E
:101A2000040401A802210394FEF78EFE20B1EFF317
:101A3000108072B6FEE700BF41F21800C4F2020047
:101A4000016840F2700541F0200101600168C2F2B6
:101A5000000501F020010691069901684FF08042CF
:101A600041F0040101600068002100F004000690CC
:101A70000698284640F8242F222240F2FF33049192
:101A8000CDE90211CDE91011CDE90B11CDE9091114
:101A9000C0E90121C0E903318161FFF793F928B161
:101AA000EFF3108072B600BFFEE700BF4FF4805026
:101AB00005F12404019001A92046FFF717FA28B187
:101AC000EFF3108072B600BFFEE700BF2046FFF7BD
:101AD0002DFC28B1EFF3108072B600BFFEE700BF07
:101AE00010A92046FFF74CF920B1EFF3108072B631
:101AF000FEE700BF602006900020CDE907000A90B5
:101B000006A920460022FFF7E5FA28B1EFF310807E
:101B100072B600BFFEE700BF06A920460422FFF709
:101B2000D9FA28B1EFF3108072B600BFFEE700BF0C
:101B30002046FFF7A5FA40F2D40043F60001C2F2B6
:101B40000000C4F201014FF000090C234FF41652BB
:101B500080E80602C0E90399C0E90539C0F81C9085
:101B6000FFF7D4FD20B1EFF3108072B6FEE700BF9F
:101B700020460021FFF75AFC20460421FFF756FCBF
:101B800040F2D400A91CC2F200000122FFF776FE49
:101B9000D5F824C005F1030840F2FF3E16E000BF6F
:101BA000012F08BF012A6DD0C5F81F90C5F81B9002
:101BB000C5F81790C5F81390C5F80F90C5F80B90AD
:101BC000C5F80790C5F8039085F80190687801285A
:101BD000FCD1E8780028E7D0002241460027002009
:101BE0000023002409E000BF01270846291811F846
:101BF000036F1F28D4DC002ED2D00E78412E1DD1C9
:101C0000411C6E18F678302EEED300BF29180E79DD
:101C1000392E0AD80E7904EB8404497906EB440482
:101C2000303C2F2900F10100F0D80130012729189C
:101C300011F8036F1F28DEDDB2E700BF09784229E3
:101C400000F10101D1D16A18D278302A18D300BF2F
:101C500029180A79392A0BD80A7903EB83034979C1
:101C600002EB4302A2F130032F2900F10100EFD86B
:101C700001300122291811F8036F1F28BBDD8FE7FF
:101C80000122B2E77445A8BF74467345A8BF7346E6
:101C9000CCF83440CCF8383086E701020000000070
:101CA000000000000102030406070809000000000C
:101CB0000102030402030405060708090A0B0C0DC0
:101CC0000E0F1010E81C000800000020100000009B
:101CD00094010008F81C000810000020080700000C
:101CE000B401000800000000010000001000000026
:081CF0000024F40000000000D4
:0400000508000131BD
:00000001FF
