:020000040800F2
:10000000A00600200102000875100008CD0F0008AE
:10001000711000083D050008D51000080000000020
:100020000000000000000000000000007D1000083B
:100030004105000800000000791000088110000848
:100040001B0200081B0200081B0200081B0200081C
:100050001B0200081B020008450500084D050008AA
:10006000550500081B0200081B0200081B020008BF
:100070001B0200081B0200081B0200081B020008EC
:100080001B0200081B0200081B0200081B020008DC
:100090001B0200081B0200081B0200081B020008CC
:1000A0001B0200081B0200081B0200081B020008BC
:1000B0001B0200081B0200081B0200081B020008AC
:1000C0001B0200081B0200081B0200081B0200089C
:1000D0001B0200081B0200081B0200081B0200088C
:1000E0001B0200081B0200081B0200081B0200087C
:1000F0001B0200081B0200081B0200081B0200086C
:100100001B0200081B0200081B0200081B0200085B
:100110001B0200081B0200081B0200081B0200084B
:100120001B0200081B0200081B0200081B0200083B
:1001300000F002F800F055F814A696E8000CB2445E
:10014000B344DA4501D100F04CF8BAE80F000FA62D
:1001500096E83000A5EB040504EB0607AAEB0704BC
:10016000A7F101074FEA15154FEA3414A4F1010471
:10017000AC4201D300F035F813F0010F18BFFB1AA1
:1001800043F0010300F001F8DBE7184730160000E8
:1001900050160000103A24BF78C878C1FAD8520728
:1001A00024BF30C830C144BF04680C6070470000F1
:1001B000704700000023002400250026103A28BFC5
:1001C00078C1FBD8520728BF30C148BF0B607047C9
:1001D000642900F07D80002070471FB51FBD10B559
:1001E00010BD00F070F91146FFF7F7FF01F0D8F8E5
:1001F00000F08EF903B4FFF7F2FF03BC00F096F9AC
:100200000948804709480047FEE7FEE7FEE7FEE7AA
:10021000FEE7FEE7FEE7FEE7FEE7FEE704480549E6
:10022000054A064B704700008510000831010008A0
:10023000A0000020A0060020A0020020A0020020B4
:100240000FB41CB5074B06AA7B446946009005987D
:1002500000F021F90020694600F030F91CBC5DF87F
:1002600014FB0000710200002DE9F0410E46044627
:10027000002020622046E168884730B3252805D059
:10028000D4E901219047206A401CF2E7E16820464A
:1002900000278847050018D0A5F14100192802D889
:1002A00020354FF400673246294620462760FFF785
:1002B0008FFF40B1012804D0F61D26F0070608364E
:1002C000D8E7361DD6E72846DAE7206ABDE8F08190
:1002D0002DE9F0410646002410687529314616A51F
:1002E00010D0AFF30080002802DA404213A507E0E7
:1002F00031688A0701D512A502E0490704D511A586
:10030000012401E0AFF3008000210A2206F1240756
:1003100009E0B0FBF2FCB0FBF2F302FB1C00303052
:1003200078541846491C0028F3D123462A46304603
:10033000BDE8F04100F051B8000000002D000000C1
:100340002B0000002000000010B5431C02E010F854
:10035000011B71B18107FAD14FF0013202C88C1A2A
:100360008C4314EAC211F9D0C01A0A0603D0C01E89
:1003700010BDC01A10BD0A0401D0801E10BD0902B4
:10038000FCD0401E10BD4FF0000200B5134694464D
:100390009646203922BFA0E80C50A0E80C50B1F1DD
:1003A0002001BFF4F7AF090728BFA0E80C5048BFF1
:1003B0000CC05DF804EB890028BF40F8042B08BF8F
:1003C000704748BF20F8022B11F0804F18BF00F88B
:1003D000012B70477047704770472DE9F0470D4675
:1003E00099469246044600F124080168880604D51F
:1003F000E06921F01001216000E00120A84201DD48
:10040000471B00E00027A1697A1902EB0900081ACE
:10041000A0612078C00602D42046AFF300800026F9
:1004200008E0D4E901211AF806009047206A401C30
:10043000761C20624E45F4DB2078C0060AD52046A3
:10044000AFF3008006E0D4E9012130209047206A14
:10045000401C2062381EA7F10107F4DC07E0D4E954
:10046000012118F805009047206A401C2062281ED0
:10047000A5F10105F3DC2046AFF3008020780006EB
:1004800002D50220BDE8F0870120FBE701694A1C84
:1004900002610878704700B58FB0CDE901310021C5
:1004A000059105497944CDE9031011466846FFF7E7
:1004B000DBFE0FB000BD0000E5FFFFFF0A6802F899
:1004C000010B0A607047754600F02CF8AE46050037
:1004D0006946534620F00700854618B020B5FFF75F
:1004E0009DFEBDE820404FF000064FF000074FF0A2
:1004F00000084FF0000BAC46ACE8C009ACE8C009FE
:10050000ACE8C009ACE8C00921F007018D4670478E
:1005100010B50446AFF300802046BDE81040FFF759
:1005200069BE0000004870471000002001491820F3
:10053000ABBEFEE72600020070470000FEE70000A9
:1005400070470000012000F085B80000022000F094
:1005500081B80000042000F07DB80000B0B504466A
:1005600000F084F9054640F20000C2F20000007875
:10057000611C18BF044400BF00F078F9401BA04282
:10058000FAD3B0BD10B5044600F070F9042C33D096
:10059000022C19D0012C4CD140F27004C2F200049C
:1005A000A168411A332944D3A06040F60040C4F248
:1005B0000100012100F04EF92178002844D00129E2
:1005C00037D1002020702EE040F27004C2F2000407
:1005D000E168411A33292CD3E06040F60040C4F2B0
:1005E0000100022100F036F9617818B3012920D109
:1005F0000020607017E000BF40F27004C2F20004F7
:100600002169411A332914D3206140F60040C4F215
:100610000100042100F01EF9A17888B1012918BF5A
:1006200010BD0020A07040F27000C2F20000012155
:10063000C17010BD0029FCD101206070F3E700BF3C
:100640000029F6D10120EDE70029F2D10120207028
:10065000E9E7000040F21441C4F201010A680242D5
:1006600014BF08607047FFF78DBF00002DE9F04F01
:1006700082B00E68002E00F0E980A0F1804241F6C1
:10068000004540F20043A2F58432C4F2010506247D
:10069000C4F201034FEAB227A84208BF05244FF075
:1006A000000E4FF001080F254FF0000A4FF0000B2D
:1006B000052F38BF4FEAB224009408E00E680AF113
:1006C000010A36FA0AF20EF1040E00F0BF8008FAB1
:1006D0000AFC16EA0C09F1D04E684FF6FF72C1F21F
:1006E0001002964212DC122E56D8DFE806F0350BC7
:1006F0004D495555555555555555555555555545CE
:10070000510000BFD1F80CB046E000BF4FF6FF72B9
:10071000C1F2210296420FDC0022C1F21102964280
:100720001AD00022C1F21202964215D00022C1F264
:100730002102964210D02FE00022C1F222029642FE
:100740000AD00022C1F23102964205D00022C1F245
:100750003202964220D100BF8A684AB1012A14BFF2
:10076000C0F814C0C0F810C04FF0080B14E000BF70
:100770004FF0040B10E000BFCA6802F1040B0BE05D
:100780004FF0000B08E000BFCA6802F1080B03E05D
:10079000CA6802F10C0B00BF02467446B9F5807FAF
:1007A00024BF0432203C166805FA04F726EA07073E
:1007B0000BFA04F637431760CA79D2067FF57EAF8D
:1007C00041F21807C4F202073A684FF6084542F0B2
:1007D00001023A603A68CFF6FF7502F00102019219
:1007E000019A2AF003021A440F2457590EF00C06FE
:1007F000B440A743009C04FA06F6374357514E68AD
:100800000F25F2031A6854BF22EA090242EA0902DC
:100810001A605A68B70354BF22EA090242EA090281
:100820005A60F7029A6854BF22EA090242EA0902B2
:10083000B70240F20C479A60C4F201073A6854BF0D
:1008400022EA090242EA09023A6037E702B0BDE84B
:10085000F08F00008068084018BF0120704700003A
:10086000002A08BF090401617047000040F29C00A3
:10087000C2F200000068704740F2000040F29C01A4
:10088000C2F20000C2F2000100780A681044086059
:100890007047000080B542F20000C4F20200016817
:1008A00041F010010160032000F08CF80F2000F0EF
:1008B00005F800F027F8002080BD000070B540F278
:1008C0000006C2F2000640F208013278C2F20001CE
:1008D0004FF47A730968B3FBF2F20446B1FBF2F10C
:1008E000084600F05DFB0F2C4FF0010508D838B921
:1008F0004FF0FF3021460022002500F037F87460E9
:10090000284670BD82B041F21800C4F202000168AE
:10091000022241F001010160016801F00101019131
:100920000199416841F080514160406800F0805079
:10093000009000980420C4F20100016862F31A617B
:10094000016002B070470000002848BF704700F007
:100950001F01012202FA01F11C2202EAD0004EF22C
:100960000012CEF2000281507047000010B54EF622
:100970000C5CCEF2000CDCF80030C3F3022E8EF0DB
:100980000704042C28BF0424BEF103034FF0FF3EEC
:100990000EFA04F438BF0023A14399400EFA03F382
:1009A0009A43114300F00F0200F160430901043A39
:1009B00003F564436244002848BF02F10C03197038
:1009C00010BD00004EF60C51CEF200010A684FF641
:1009D000FF031A4060F30A2242F0806040F0FD708D
:1009E00008607047002804BF012070472DE9F043DC
:1009F00081B042F20008C4F202080446D8F80000B0
:100A00000D4600F0070081420CD9D8F8000020F014
:100A100007002843C8F80000D8F8000000F00700DD
:100A2000A8426CD1206841F204098107C4F202098E
:100A300017D5410705D5D9F8001041F4E061C9F890
:100A40000010010705D5D9F8001041F46051C9F82C
:100A50000010D9F80010A26821F0F0011143C9F884
:100A60000010C00742D1D8F8000000F0070085420E
:100A70000CD2D8F8000020F007002843C8F8000086
:100A8000D8F8000000F00700A84238D120684107DC
:100A900007D5D9F80010E26821F4E0611143C9F8E4
:100AA0000010000708D5D9F80000216920F4605033
:100AB00040EAC100C9F80000D9F8002002F00C009B
:100AC000082841F20020C0F27A004DD141F2627351
:100AD000C2F38341C0F60003595CD20338D440F618
:100AE0000010C0F23D0048433EE000BF606859F886
:100AF000041C022808D0012826D1890306D401202D
:100B000001B0BDE8F08300BF8901F8D5D9F8001025
:100B100021F003010843C9F80000FFF7A7FE0646CD
:100B200041F28837D9F80000616800F00C00B0EBA2
:100B3000810F98D0FFF79AFE801BB842F2D90320AC
:100B400001B0BDE8F08300BF8907D8D5DEE700BF5C
:100B5000D9F8002041F24C73C2F34042C0F60003C2
:100B60009A5C4843B0FBF2F0D9F8001041F24E72A3
:100B7000C1F30311C0F60002515C40F2080220FAF2
:100B800001F140F20400C2F200000068C2F200026B
:100B90001160FFF793FE002001B0BDE8F083000074
:100BA000002804BF012070472DE9F04182B00446BF
:100BB000007841F20006C007C4F202060CD070684B
:100BC00000F00C00042840F081803068800303D5D9
:100BD0006068002800F04681207880071BD5706887
:100BE00010F00C0F09D0706800F00C00082840F0DD
:100BF00087807068C00300F183803068800703D568
:100C00002069012840F02E813068616920F0F800E9
:100C100040EAC10030602078000713D420784007F4
:100C20002CD4E569002D00F01881706800F00C00EC
:100C3000082840F0A780012D40F00481012002B077
:100C4000BDE8F081A069002800F084800020C4F293
:100C500042200121C0F88014FFF708FE054600BFBE
:100C6000706A800700F1B280FFF700FE401B022887
:100C7000F6D9032002B0BDE8F08100BFF0695FEA59
:100C8000C00808D4F06940F08050F061F06900F0CD
:100C900080500090009847F20007C4F200073868BF
:100CA000C00549D4386840F480703860FFF7DEFD35
:100CB000054600BF3868C0053ED4FFF7D7FD401B8E
:100CC0006428F7D9032002B0BDE8F081706800F015
:100CD0000C00082803D17068C0033FF576AF616847
:100CE0003068002900F00C81B1F5A02F00F00081E0
:100CF000B1F5803F40F01A8140F480301CE100BF24
:100D00002069002840F20000C4F2422000F08880F0
:100D100001210160FFF7AAFD054600BF306880078A
:100D20003FF572AFFFF7A2FD401B0228F6D9032062
:100D300002B0BDE8F08100BFE168306A002900F030
:100D40009D80052900F09280012940F0AF8040F09D
:100D50000100B1E00020C4F242200021C0F880145C
:100D6000FFF784FD054600BF706A80077FF556AF28
:100D7000FFF77CFD401B0228F6D9032002B0BDE836
:100D8000F08100BF0027C4F2422700203866FFF739
:100D90006DFD022D05460DD13068800140F1DE80E9
:100DA000FFF764FD401B02284FF00300F4D902B0A6
:100DB000BDE8F081306880014FD5FFF757FD401B3B
:100DC00002284FF00300F5D9F1E700BF40F2080018
:100DD000C2F20000006844F6D351C1F26201A0FBE8
:100DE0000101480A019000BF00BF0198411E002880
:100DF00001913FF413AF00BF0198411E00280191FB
:100E00003FF40CAF00BF0198411E002801913FF450
:100E100005AF00BF0198411E00280191E4D1FDE615
:100E200000210160FFF722FD054600BF3068800702
:100E30007FF5F1AEFFF71AFD401B02284FF00300CB
:100E4000F4D9B4E77068216A00F480328A4209D18B
:100E5000616A00F47010884204D1002002B0BDE83D
:100E6000F08100BF012002B0BDE8F08140F0040035
:100E70003062306A40F001001EE000BF20F0010047
:100E80003062306A20F004003062FFF7EFFC054664
:100E900041F28837306A800720D5FFF7E7FC401B16
:100EA000B8424FF00300F5D981E700BF20F0010000
:100EB0003062306A20F004003062FFF7D7FC05464C
:100EC00041F28837306A800708D4FFF7CFFC401B17
:100ED000B842F7D9032002B0BDE8F081B8F1000FA5
:100EE0003FF59FAEF06920F08050F06199E600BFB9
:100EF00040F480203060306840F480301CE000BF57
:100F000020F480303060306820F480203060FFF7BB
:100F1000ADFC0546306880037FF55EAEFFF7A6FCAA
:100F2000401B64284FF00300F4D940E720F48030E0
:100F30003060306820F480203060FFF797FC054671
:100F4000306880033FF548AEFFF790FC401B6428F3
:100F5000F6D9032002B0BDE8F08100BF206AB0F5E9
:100F6000803F05D17168A26821F40031114371609E
:100F70007168626A21F474111143084370600120A2
:100F80003866FFF773FC0446306880013FF565AFB3
:100F9000FFF76CFC001B02284FF00300F4D906E7B2
:100FA000411E0020B0EB116F1CBF012070474EF2B4
:100FB0001002CEF2000251604EF62351CEF2000133
:100FC000F0230B700721906011607047FEE700006E
:100FD000012100F081B80000B0B50446DDE90650FB
:100FE000DDE904CEA075A582C4F810E0A4F80CC019
:100FF000C4E90012A36008B1382108E0204633217B
:1010000000F06AF82046322100F066F828212046D8
:1010100000F062F82046012100F05EF820460C2125
:1010200000F05AF82046062100F056F8B0BD000046
:1010300041F25E73C0F60003595C11448039C9B2B5
:1010400000F04AB8F0B581B00C46097869B10546A0
:1010500000270026E15D284600F0F0F80136204622
:10106000F7B2FFF771F9B842F4D801B0F0BD000053
:10107000FEE70000FEE70000704700007047000038
:10108000FFF7FABB41F20000C4F20200016800223F
:1010900041F0010101604168CFF6FF02114041605B
:1010A00001684FF6FF72CFF6F662114001600168E9
:1010B00021F480210160416821F4FE0141604FF478
:1010C0001F0181604EF60850CEF200004FF0006123
:1010D00001607047FEE70000F0B581B00446A289C8
:1010E00080680D4611460022FFF7BAFBA07D00285C
:1010F00044D0D4E9000105F0010200680988FFF737
:10110000AFFBD4E90001C5F3400240684988FFF70E
:10111000A7FBD4E90001C5F3800280688988FFF746
:101120009FFBD4E90001C5F3C002C068C988FFF77E
:1011300097FBD4E90001C5F3001200690989FFF7A4
:101140008FFBD4E90001C5F3401240694989FFF7DC
:1011500087FBD4E90001C5F3801280698989FFF714
:101160007FFBD4E90001EA09C069C989FFF778FB70
:1011700004F1100604F1140750E000BFD4E90001A7
:10118000C5F3001200680988FFF76AFBD4E9000183
:10119000C5F3401240684988FFF762FBD4E90001BB
:1011A000C5F3801280688988FFF75AFBD4E90001F3
:1011B000EA09C068C988FFF753FB2646274656F858
:1011C000100F37F8141F0122FFF74AFB0120FFF729
:1011D000C5F9306839880022FFF742FBD4E90001E5
:1011E00005F0010200680988FFF73AFBD4E9000125
:1011F000C5F3400240684988FFF732FBD4E900019B
:10120000C5F3800280688988FFF72AFBD4E90001D2
:10121000C5F3C002C068C988FFF722FB306839886F
:101220000122FFF71DFB0120FFF798F9306839888C
:10123000002201B0BDE8F040FFF712BBF0B581B06D
:101240000446A28980680D4611460122FFF708FB7B
:10125000A07D002844D0D4E9000105F00102006817
:101260000988FFF7FDFAD4E90001C5F340024068A0
:101270004988FFF7F5FAD4E90001C5F380028068D8
:101280008988FFF7EDFAD4E90001C5F3C002C06810
:10129000C988FFF7E5FAD4E90001C5F30012006937
:1012A0000989FFF7DDFAD4E90001C5F3401240696E
:1012B0004989FFF7D5FAD4E90001C5F380128069A6
:1012C0008989FFF7CDFAD4E90001EA09C069C98923
:1012D000FFF7C6FA04F1100604F1140750E000BF4E
:1012E000D4E90001C5F3001200680988FFF7B8FAD5
:1012F000D4E90001C5F3401240684988FFF7B0FA0D
:10130000D4E90001C5F3801280688988FFF7A8FA44
:10131000D4E90001EA09C068C988FFF7A1FA2646A6
:10132000274656F8100F37F8141F0122FFF798FAD6
:101330000120FFF713F9306839880022FFF790FA8F
:10134000D4E9000105F0010200680988FFF788FA76
:10135000D4E90001C5F3400240684988FFF780FAEC
:10136000D4E90001C5F3800280688988FFF778FA24
:10137000D4E90001C5F3C002C068C988FFF770FA5C
:10138000306839880122FFF76BFA0120FFF7E6F891
:1013900030683988002201B0BDE8F040FFF760BA3C
:1013A000ACB0FFF777FA22AC201D2421FEF7EBFF4B
:1013B0000220229001202690102027900025204610
:1013C0002995FFF7EDFB28B1EFF3108072B600BF4F
:1013D000FEE700BF0F20CDE91D051DA80021CDE9C6
:1013E0001F552195FFF7FEFA20B1EFF3108072B67A
:1013F000FEE700BF002641F21800CDE92466CDE9E2
:101400002266C4F20200016840F6000541F02001A6
:1014100001600168C4F2010501F020011D911D99D0
:101420000168002241F00401016001683F2401F0DD
:1014300004011D911D99016841F0080101600068D7
:101440003F2100F008001D901D982846FFF708FA7C
:101450000DF1880A22940127022428465146CDE93D
:1014600023762594FFF702F9072022900020C1F28D
:101470003100CDE9230705F580605146FFF7F6F806
:10148000062000210022FFF771FA0620FFF75CFA20
:10149000072000210022FFF769FA0720FFF754FA1E
:1014A000082000210022FFF761FA0820FFF74CFA1C
:1014B00040F60C40C4F20100016816AA41F0070191
:1014C00001601020C0F2200017900420C0F2080034
:1014D000169022A819A92B46CDE91B55CDE919551F
:1014E000CDE9007502940396FFF776FD40F2700592
:1014F00022ABC2F200050FCB2C4644F8140FDDE9F5
:10150000260704F1040CC4E9040720468CE80E0009
:10151000FFF75EFD204600210022FFF789FD41F222
:101520008878C0F6000820464146FFF78BFD20462C
:1015300001210022FFF77CFD41F27477C0F600071D
:1015400020463946FFF77EFD71A0416897F810B03C
:10155000159181681DAC1491C168006913911290B6
:1015600070A041684FF00009119181681091C16825
:1015700000690F910E9038680D9078680C90B868EB
:101580000B90F86800270A90D8F800000990D8F866
:1015900004000890D8F808000790D8F80C000690CE
:1015A00098F810004FF00008059033E058482E716D
:1015B00022901598239014982490139825901298AF
:1015C000269058481D9011981E9010981F900F98C3
:1015D00020900E98219005F114073846FFF7F8FC8B
:1015E000384600210022FFF723FD38465146FFF719
:1015F00029FD384601210022FFF71AFD3846214611
:10160000FFF720FD2F7895F8018095F802900A20C9
:10161000FEF7A4FFE87868B92878F9B2884209D1C2
:1016200068785FFA88F1884204D1A8785FFA89F176
:101630008842ECD0EE7028786978AA780844104483
:10164000C0B20028B2D0012804D1287880B301228A
:1016500033E000BF0120287147F24D50C7F26C40C3
:10166000229047F26900C6F26C50239044F6201095
:10167000C7F26E40249047F26520C0F266002590C4
:1016800047F26520C6F665601D9046F26350C2F2CF
:1016900020001E904FF020301F9042F22000C0F238
:1016A00020008DF898608DF88460209093E700BF4B
:1016B00068780222002808BF03228DF89860CDE9DF
:1016C0002466CDE922668DF88460CDE91F66CDE9F8
:1016D0001D66287960B10998229008982390079890
:1016E00024900698259005988DF8980004E000BF96
:1016F000504611A1FEF7A4FD0D988DF884B01D9001
:101700000C981E900B981F900A98209063E700BFDA
:101710005265616479202020202020202020202074
:101720000000000020202020202020202020202039
:10173000202020200000000053656E736F7220256A
:101740006420202020202020000000000102000052
:101750000000000000000102030406070809004021
:10176000105002030405060708090A0B0C0D0E0FA2
:1017700010100000202020202020202020202020C9
:101780002020202000000000526561647920202084
:101790002020202020202020000000006572656E9F
:1017A0006365202020202020202020004D756C74AF
:1017B00069706C6520496E7465726600E0170008F8
:1017C000000000201000000094010008F01700083D
:1017D0001000002090060000B40100080000000086
:1017E00001000000100000000024F40000000000D0
:0400000508000131BD
:00000001FF
