:020000040800F2
:10000000C8060020010200084113000899120008E8
:100010003D13000835060008A11300080000000089
:10002000000000000000000000000000491300086C
:100030003906000800000000451300084D130008B1
:100040001B0200081B0200081B0200081B0200081C
:100050001B0200081B0200081B0200081B0200080C
:100060001B0200081B0200081B0200081B020008FC
:100070001B0200081B0200081B0200081B020008EC
:100080001B0200081B0200081B0200081B020008DC
:100090001B0200081B0200081B0200081B020008CC
:1000A0001B0200081B0200081B0200081B020008BC
:1000B0001B0200081B0200081B0200081B020008AC
:1000C0001B0200081B0200081B0200081B0200089C
:1000D0001B0200081B0200081B0200081B0200088C
:1000E0001B0200081B0200081B0200081B0200087C
:1000F0001B0200081B0200081B0200081B0200086C
:100100001B0200081B0200081B0200081B0200085B
:100110001B0200081B0200081B0200081B0200084B
:100120001B0200081B0200081B0200081B0200083B
:1001300000F002F800F055F814A696E8000CB2445E
:10014000B344DA4501D100F04CF8BAE80F000FA62D
:1001500096E83000A5EB040504EB0607AAEB0704BC
:10016000A7F101074FEA15154FEA3414A4F1010471
:10017000AC4201D300F035F813F0010F18BFFB1AA1
:1001800043F0010300F001F8DBE71847A416000074
:10019000C4160000103A24BF78C878C1FAD85207B4
:1001A00024BF30C830C144BF04680C6070470000F1
:1001B000704700000023002400250026103A28BFC5
:1001C00078C1FBD8520728BF30C148BF0B607047C9
:1001D000642900F07180002070471FB51FBD10B565
:1001E00010BD00F0ECF91146FFF7F7FF01F03EFA01
:1001F00000F00AFA03B4FFF7F2FF03BC00F012FAB2
:100200000948804709480047FEE7FEE7FEE7FEE7AA
:10021000FEE7FEE7FEE7FEE7FEE7FEE704480549E6
:10022000054A064B704700005113000831010008D1
:10023000C8000020C8060020C8020020C802002014
:100240000FB41CB5074B06AA7B446946009005987D
:1002500000F09DF90020694600F0ACF91CBC5DF887
:1002600014FB00006903000070B50446856900684E
:10027000C10601D5302600E02026C00707D070BD9A
:10028000D4E9012130469047206A401C20626D1E4F
:10029000F6D570BD70B5044685690078C00707D1F2
:1002A00070BDD4E9012120209047206A401C2062C3
:1002B0006D1EF6D570BD00002DE9F0410646002404
:1002C00010687529314616A510D0AFF300800028BC
:1002D00002DA404213A507E031688A0701D512A56A
:1002E00002E0490704D511A5012401E0AFF3008025
:1002F00000210A2206F1240709E0B0FBF2FCB0FB62
:10030000F2F302FB1C00303078541846491C0028D8
:10031000F3D123462A463046BDE8F04100F0D8B874
:10032000000000002D0000002B0000002000000055
:100330002DE9F0474FF0000A89460446C0F820A096
:100340002046E1688847002876D0252806D0D4E9E1
:1003500001219047206A401C2062F1E7E1682046B5
:1003600000258847C4F81CA006460027C4F818A03A
:100370002A2E09D0304601F03DFA38B304EB870845
:10038000303EC8F8186019E059F8041B204604EB09
:1003900087029161E1688847012F064618D1E0691C
:1003A000002820DA25F020051DE0D8F8180000EB21
:1003B000800006EB40003038C8F818002046E1689D
:1003C0008847064601F016FA0028EED1012F0AD020
:1003D0002E2E08D12046E16888477F1C0646022F52
:1003E00045F02005C4DBA069002803DA404245F04F
:1003F0000105A061E80701D025F01005B6B1A6F10E
:100400004100192802D8203645F400654A46314695
:10041000204625604D46FFF7DBFE58B1012806D087
:10042000ED1D25F0070000F1080989E704E005F15A
:10043000040985E730468AE7206ABDE8F08710B5F1
:10044000431C02E010F8011B71B18107FAD14FF093
:10045000013202C88C1A8C4314EAC211F9D0C01AB6
:100460000A0603D0C01E10BDC01A10BD0A0401D078
:10047000801E10BD0902FCD0401E10BD4FF00002CE
:1004800000B5134694469646203922BFA0E80C508A
:10049000A0E80C50B1F12001BFF4F7AF090728BF65
:1004A000A0E80C5048BF0CC05DF804EB890028BFE1
:1004B00040F8042B08BF704748BF20F8022B11F00A
:1004C000804F18BF00F8012B704770477047704786
:1004D0002DE9F0470D4699469246044600F124085E
:1004E0000168880604D5E06921F01001216000E070
:1004F0000120A84201DD471B00E00027A1697A190D
:1005000002EB0900081AA0612078C00602D4204638
:10051000FFF7AAFE002608E0D4E901211AF8060038
:100520009047206A401C761C20624E45F4DB207800
:10053000C0060AD52046FFF797FE06E0D4E9012160
:1005400030209047206A401C2062381EA7F1010726
:10055000F4DC07E0D4E9012118F805009047206A8F
:10056000401C2062281EA5F10105F3DC2046FFF7A0
:1005700091FE2078000602D50220BDE8F087012018
:10058000FBE7000001694A1C02610878704700B56A
:100590008FB0CDE901310021059105497944CDE9BC
:1005A000031011466846FFF7C3FE0FB000BD000000
:1005B000E5FFFFFF0A6802F8010B0A607047754605
:1005C00000F02CF8AE4605006946534620F00700BF
:1005D000854618B020B5FFF721FEBDE820404FF05A
:1005E00000064FF000074FF000084FF0000BAC463C
:1005F000ACE8C009ACE8C009ACE8C009ACE8C00987
:1006000021F007018D46704710B50446AFF3008016
:100610002046BDE81040FFF7EDBD000000487047E0
:100620001000002001491820ABBEFEE726000200A2
:1006300070470000FEE7000070470000B0B50446B8
:1006400000F00AF9054640F20000C2F2000000780E
:10065000611C18BF044400BF00F0FEF8401BA0421C
:10066000FAD3B0BD2DE9F04F82B00E68002E00F035
:10067000E980A0F1804241F6004540F20043A2F536
:100680008432C4F201050624C4F201034FEAB22702
:10069000A84208BF05244FF0000E4FF001080F25B7
:1006A0004FF0000A4FF0000B052F38BF4FEAB2247D
:1006B000009408E00E680AF1010A36FA0AF20EF117
:1006C000040E00F0BF8008FA0AFC16EA0C09F1D00B
:1006D0004E684FF6FF72C1F21002964212DC122EE3
:1006E00056D8DFE806F0350B4D495555555555554B
:1006F0005555555555555545510000BFD1F80CB0CD
:1007000046E000BF4FF6FF72C1F2210296420FDCB5
:100710000022C1F2110296421AD00022C1F2120246
:10072000964215D00022C1F22102964210D02FE04D
:100730000022C1F2220296420AD00022C1F2310206
:10074000964205D00022C1F23202964220D100BF6B
:100750008A684AB1012A14BFC0F814C0C0F810C09A
:100760004FF0080B14E000BF4FF0040B10E000BF87
:10077000CA6802F1040B0BE04FF0000B08E000BF69
:10078000CA6802F1080B03E0CA6802F10C0B00BF53
:1007900002467446B9F5807F24BF0432203C1668B7
:1007A00005FA04F726EA07070BFA04F63743176041
:1007B000CA79D2067FF57EAF41F21807C4F202076C
:1007C0003A684FF6084542F001023A603A68CFF6BF
:1007D000FF7502F001020192019A2AF003021A4405
:1007E0000F2457590EF00C06B440A743009C04FA9E
:1007F00006F6374357514E680F25F2031A6854BF67
:1008000022EA090242EA09021A605A68B70354BF91
:1008100022EA090242EA09025A60F7029A6854BFC2
:1008200022EA090242EA0902B70240F20C479A6042
:10083000C4F201073A6854BF22EA090242EA0902F7
:100840003A6037E702B0BDE8F08F0000002A08BF29
:10085000090401617047000040F2C400C2F20000C8
:100860000068704740F2000040F2C401C2F200008C
:10087000C2F2000100780A68104408607047000066
:1008800080B542F20000C4F20200016841F010019C
:100890000160032000F07AF80F2000F005F800F066
:1008A00027F8002080BD000070B540F20006C2F2BB
:1008B000000640F208013278C2F200014FF47A7368
:1008C0000968B3FBF2F20446B1FBF2F1084600F00E
:1008D00073FB0F2C4FF0010508D838B94FF0FF30EB
:1008E00021460022002500F025F87460284670BDDE
:1008F00082B041F21800C4F202000168022241F005
:1009000001010160016801F0010101910199416853
:1009100041F080514160406800F0805000900098A4
:100920000420C4F20100016862F31A61016002B0A0
:100930007047000010B54EF60C5CCEF2000CDCF8EF
:100940000030C3F3022E8EF00704042C28BF0424C9
:10095000BEF103034FF0FF3E0EFA04F438BF00234C
:10096000A14399400EFA03F39A43114300F00F029A
:1009700000F160430901043A03F56443624400282E
:1009800048BF02F10C03197010BD00004EF60C5167
:10099000CEF200010A684FF6FF031A4060F30A2204
:1009A00042F0806040F0FD7008607047002804BF8E
:1009B000012070472DE9F04381B042F20008C4F2F3
:1009C00002080446D8F800000D4600F007008142F6
:1009D0000CD9D8F8000020F007002843C8F8000020
:1009E000D8F8000000F00700A8426CD1206841F25E
:1009F00004098107C4F2020917D5410705D5D9F8C2
:100A0000001041F4E061C9F80010010705D5D9F8DC
:100A1000001041F46051C9F80010D9F80010A26824
:100A200021F0F0011143C9F80010C00742D1D8F8F5
:100A3000000000F0070085420CD2D8F8000020F03A
:100A400007002843C8F80000D8F8000000F00700AD
:100A5000A84238D12068410707D5D9F80010E268CC
:100A600021F4E0611143C9F80010000708D5D9F856
:100A70000000216920F4605040EAC100C9F800007C
:100A8000D9F8002002F00C00082841F20020C0F242
:100A90007A004DD141F62003C2F38341C0F6000332
:100AA000595CD20338D440F60010C0F23D004843F0
:100AB0003EE000BF606859F8041C022808D00128F5
:100AC00026D1890306D4012001B0BDE8F08300BF20
:100AD0008901F8D5D9F8001021F003010843C9F8BD
:100AE0000000FFF7B9FE064641F28837D9F800004A
:100AF000616800F00C00B0EB810F98D0FFF7ACFEFE
:100B0000801BB842F2D9032001B0BDE8F08300BFDA
:100B10008907D8D5DEE700BFD9F8002041F60203E7
:100B2000C2F34042C0F600039A5C4843B0FBF2F0C7
:100B3000D9F8001041F60402C1F30311C0F6000217
:100B4000515C40F2080220FA01F140F20400C2F2C6
:100B500000000068C2F200021160FFF7A5FE00204D
:100B600001B0BDE8F083000040F2080041F204014A
:100B7000C2F20000C4F202010068096841F61402E2
:100B8000C1F30221C0F60002515CC840704700006A
:100B900040F2080041F20401C2F20000C4F2020176
:100BA0000068096841F61402C1F3C221C0F60002D0
:100BB000515CC84070470000002804BF0120704706
:100BC0002DE9F04182B00446007841F20006C007EA
:100BD000C4F202060CD0706800F00C00042840F04B
:100BE00081803068800303D56068002800F046816A
:100BF000207880071BD5706810F00C0F09D0706842
:100C000000F00C00082840F087807068C00300F1F5
:100C100083803068800703D52069012840F02E8149
:100C20003068616920F0F80040EAC1003060207847
:100C3000000713D4207840072CD4E569002D00F07C
:100C40001881706800F00C00082840F0A780012D82
:100C500040F00481012002B0BDE8F081A0690028C5
:100C600000F084800020C4F242200121C0F88014EA
:100C7000FFF7F2FD054600BF706A800700F1B28001
:100C8000FFF7EAFD401B0228F6D9032002B0BDE8B9
:100C9000F08100BFF0695FEAC00808D4F06940F055
:100CA0008050F061F06900F080500090009847F2A9
:100CB0000007C4F200073868C00549D4386840F41A
:100CC00080703860FFF7C8FD054600BF3868C00572
:100CD0003ED4FFF7C1FD401B6428F7D9032002B0C2
:100CE000BDE8F081706800F00C00082803D170683E
:100CF000C0033FF576AF61683068002900F00C81D1
:100D0000B1F5A02F00F00081B1F5803F40F01A81CD
:100D100040F480301CE100BF2069002840F2000050
:100D2000C4F2422000F0888001210160FFF794FDA9
:100D3000054600BF306880073FF572AFFFF78CFDB6
:100D4000401B0228F6D9032002B0BDE8F08100BFA5
:100D5000E168306A002900F09D80052900F092804A
:100D6000012940F0AF8040F00100B1E00020C4F262
:100D700042200021C0F88014FFF76EFD054600BF39
:100D8000706A80077FF556AFFFF766FD401B0228AB
:100D9000F6D9032002B0BDE8F08100BF0027C4F2FD
:100DA000422700203866FFF757FD022D05460DD17A
:100DB0003068800140F1DE80FFF74EFD401B0228C5
:100DC0004FF00300F4D902B0BDE8F0813068800133
:100DD0004FD5FFF741FD401B02284FF00300F5D926
:100DE000F1E700BF40F20800C2F20000006844F6DC
:100DF000D351C1F26201A0FB0101480A019000BF7A
:100E000000BF0198411E002801913FF413AF00BFBD
:100E10000198411E002801913FF40CAF00BF0198DA
:100E2000411E002801913FF405AF00BF0198411E0B
:100E300000280191E4D1FDE600210160FFF70CFDDF
:100E4000054600BF306880077FF5F1AEFFF704FD6F
:100E5000401B02284FF00300F4D9B4E77068216A00
:100E600000F480328A4209D1616A00F4701088422D
:100E700004D1002002B0BDE8F08100BF012002B023
:100E8000BDE8F08140F004003062306A40F00100BB
:100E90001EE000BF20F001003062306A20F0040044
:100EA0003062FFF7D9FC054641F28837306A800787
:100EB00020D5FFF7D1FC401BB8424FF00300F5D915
:100EC00081E700BF20F001003062306A20F00400AA
:100ED0003062FFF7C1FC054641F28837306A80076F
:100EE00008D4FFF7B9FC401BB842F7D9032002B081
:100EF000BDE8F081B8F1000F3FF59FAEF06920F03A
:100F00008050F06199E600BF40F480203060306886
:100F100040F480301CE000BF20F480303060306846
:100F200020F480203060FFF797FC0546306880038E
:100F30007FF55EAEFFF790FC401B64284FF0030086
:100F4000F4D940E720F480303060306820F480200D
:100F50003060FFF781FC0546306880033FF548AEFE
:100F6000FFF77AFC401B6428F6D9032002B0BDE8E5
:100F7000F08100BF206AB0F5803F05D17168A2689A
:100F800021F40031114371607168626A21F47411B7
:100F900011430843706001203866FFF75DFC04468A
:100FA000306880013FF565AFFFF756FC001B022853
:100FB0004FF00300F4D906E7411E0020B0EB116F9B
:100FC0001CBF012070474EF21002CEF200025160A9
:100FD0004EF62351CEF20001F0230B7007219060F2
:100FE00011607047002804BF0120704710B5044607
:100FF00090F8390028B9002084F83800204600F025
:1010000061F8242084F839002068D4E90212C3680A
:1010100023F40053C360036923F440531A4302616D
:10102000D4E904231143C268194341F20C639A4383
:101030001143C1604169A26921F44071114343F633
:101040000002C4F201029042416103D0FFF78CFD1F
:1010500002E000BFFFF79CFDD4E9002319214843BB
:101060009900B0FBF1F048F21F5CC5F2EB1CA0FB4D
:101070000C314FF69C734909C0F6FF7301FB030066
:10108000322303EB0010A0FB0C03F02000EA531006
:1010900000EB0110C3F34311084490601069202154
:1010A00020F490401061506920F02A005061D0680F
:1010B00040F40050D0600020E06384F8391084F8D8
:1010C0003A1010BD70B586B040F60004C4F20104B9
:1010D000006804F54051002688420596CDE9036674
:1010E000029601D006B070BD41F21800C4F20200B1
:1010F000016802AD41F480410160016801F4804162
:1011000001910199016841F00401016000682946DC
:1011100000F00400019001984FF40070029002204A
:101120000390032005902046FFF79CFA4FF480605F
:10113000CDE90206204629460496FFF793FA06B049
:1011400070BD00002DE9F04381B0044690F83A00EC
:1011500020280DD10E4600294FF0010018BF002AAB
:1011600002D101B0BDE8F08394F83800012803D122
:10117000022001B0BDE8F083012084F838004FF070
:10118000000822201D46C4F83C8084F83A00174627
:10119000FFF762FBA785E785E18D002972D007463E
:1011A00005F101090BE000BF21694068002918BF63
:1011B00000F07F0006F8010BE08D002862D0E08D82
:1011C0000138E0852068A1680268B1F5805F4FEAC8
:1011D000826117D100290ED4B9F1000F22D0002D61
:1011E00042D000BFFFF738FBC11B2068A9423BD8A3
:1011F00001688906F6D52169406879B3C0B226F83E
:10120000010BD9E70029CFD4B9F1000F18D05DB395
:10121000FFF722FBC11B2068A94225D80168890677
:10122000F6D5C1E701688906E5D4016889065CBF87
:1012300001685FEA8161DED401688906F2D5DAE7E8
:1012400001688906B0D4016889065CBF01685FEA5D
:101250008161A9D401688906F2D5A5E76FF35F2003
:1012600026F8020BA8E700BFC16821F4D071C16065
:10127000416921F001014161202084F839000320F7
:1012800001E000BF0020202184F83A1084F8388063
:1012900001B0BDE8F0830000FEE70000012100F08E
:1012A00081B80000B0B50446DDE90650DDE904CEA2
:1012B000A075A582C4F810E0A4F80CC0C4E900121F
:1012C000A36008B1382108E02046332100F06AF815
:1012D0002046322100F066F82821204600F062F80E
:1012E0002046012100F05EF820460C2100F05AF85B
:1012F0002046062100F056F8B0BD000041F61C0360
:10130000C0F60003595C11448039C9B200F04AB8F4
:10131000F0B581B00C46097869B105460027002672
:10132000E15D284600F0F0F801362046F7B2FFF7FD
:1013300086F8B842F4D801B0F0BD0000FEE7000026
:10134000FEE700007047000070470000FFF78ABA10
:1013500041F20000C4F202000168002241F00101E4
:1013600001604168CFF6FF021140416001684FF60D
:10137000FF72CFF6F66211400160016821F480210E
:101380000160416821F4FE0141604FF41F0181605A
:101390004EF60850CEF200004FF000610160704739
:1013A000FEE70000F0B581B00446A28980680D46D2
:1013B00011460022FFF74AFAA07D002844D0D4E964
:1013C000000105F0010200680988FFF73FFAD4E93F
:1013D0000001C5F3400240684988FFF737FAD4E9B5
:1013E0000001C5F3800280688988FFF72FFAD4E9ED
:1013F0000001C5F3C002C068C988FFF727FAD4E925
:101400000001C5F3001200690989FFF71FFAD4E94A
:101410000001C5F3401240694989FFF717FAD4E982
:101420000001C5F3801280698989FFF70FFAD4E9BA
:101430000001EA09C069C989FFF708FA04F110063A
:1014400004F1140750E000BFD4E90001C5F3001215
:1014500000680988FFF7FAF9D4E90001C5F34012E2
:1014600040684988FFF7F2F9D4E90001C5F380121A
:1014700080688988FFF7EAF9D4E90001EA09C068C1
:10148000C988FFF7E3F92646274656F8100F37F8C4
:10149000141F0122FFF7DAF90120FFF7CFF83068B7
:1014A00039880022FFF7D2F9D4E9000105F00102E2
:1014B00000680988FFF7CAF9D4E90001C5F34002C2
:1014C00040684988FFF7C2F9D4E90001C5F38002FA
:1014D00080688988FFF7BAF9D4E90001C5F3C00232
:1014E000C068C988FFF7B2F9306839880122FFF770
:1014F000ADF90120FFF7A2F830683988002201B069
:10150000BDE8F040FFF7A2B9F0B581B00446A2896A
:1015100080680D4611460122FFF798F9A07D00284A
:1015200044D0D4E9000105F0010200680988FFF702
:101530008DF9D4E90001C5F3400240684988FFF7FE
:1015400085F9D4E90001C5F3800280688988FFF736
:101550007DF9D4E90001C5F3C002C068C988FFF76E
:1015600075F9D4E90001C5F3001200690989FFF794
:101570006DF9D4E90001C5F3401240694989FFF7CC
:1015800065F9D4E90001C5F3801280698989FFF704
:101590005DF9D4E90001EA09C069C989FFF756F984
:1015A00004F1100604F1140750E000BFD4E9000173
:1015B000C5F3001200680988FFF748F9D4E9000173
:1015C000C5F3401240684988FFF740F9D4E90001AB
:1015D000C5F3801280688988FFF738F9D4E90001E3
:1015E000EA09C068C988FFF731F92646274656F848
:1015F000100F37F8141F0122FFF728F90120FFF719
:101600001DF8306839880022FFF720F9D4E900017D
:1016100005F0010200680988FFF718F9D4E9000114
:10162000C5F3400240684988FFF710F9D4E900018A
:10163000C5F3800280688988FFF708F9D4E90001C2
:10164000C5F3C002C068C988FFF700F9306839885F
:101650000122FFF7FBF80120FEF7F0FF3068398820
:10166000002201B0BDE8F040FFF7F0B896B0FFF7F8
:1016700007F90CAC201D2421FEF700FF02200C907E
:101680000120109010201190002520461395FFF79F
:1016900093FA28B1EFF3108072B600BFFEE700BFE7
:1016A0000F20CDE9070507A80021CDE909550B95C5
:1016B000FFF77CF920B1EFF3108072B6FEE700BFB0
:1016C000002741F21800CDE90E77CDE90C77C4F27E
:1016D0000200016840F6000541F020010160016848
:1016E000C4F2010501F02001079107990168002269
:1016F00041F00401016000683F2100F00400079000
:10170000079828463F24FFF7A1F80120CDE90D07EF
:1017100002200F900CA928460C94FEF7A3FF40F27C
:101720007004C2F2000405F54051204640F8141F31
:101730004FF416510C22C0E90117C0E90377C0E944
:101740000527C761FFF74EFC20B1EFF3108072B69A
:10175000FEE700BF0420C0F2080005900120C0F29F
:1017600002000490202010210CAECDE9001502905B
:1017700007A904AA30462B46CDE90955CDE90755FE
:101780000397FFF78FFD3046FFF788FD30460021B5
:101790000022FFF7B3FD0FA704F114050FF2440870
:1017A00030463946FFF7B4FD284621460122322350
:1017B000FFF7C8FC0028F7D1304601210022FFF7CF
:1017C0009DFD274617F8012B41463846FEF738FDA8
:1017D000E6E700BF4D6F64653A20504F4C4C494ED0
:1017E0004700000056616C75653A2025336420205F
:1017F0002000000030380A2801D201207047002064
:101800007047010200000000000000000102030414
:101810000607080900000000010203040040105000
:1018200002030405060708090A0B0C0D0E0F101021
:10183000501800080000002010000000940100086B
:101840006018000810000020B8060000B40100086D
:1018500001000000100000000024F400000000005F
:0400000508000131BD
:00000001FF
