:020000040800F2
:1000000078060020F9010008790C0008710C00083E
:10001000750C000801030008D90C0008000000005E
:10002000000000000000000000000000810C00083B
:1000300005030008000000007D0C0008850C000886
:10004000130200081302000813020008130200083C
:10005000130200081302000813020008130200082C
:10006000130200081302000813020008130200081C
:10007000130200081302000813020008130200080C
:1000800013020008130200081302000813020008FC
:1000900013020008130200081302000813020008EC
:1000A00013020008130200081302000813020008DC
:1000B00013020008130200081302000813020008CC
:1000C00013020008130200081302000813020008BC
:1000D00013020008130200081302000813020008AC
:1000E000130200081302000813020008130200089C
:1000F000130200081302000813020008130200088C
:10010000130200081302000813020008130200087B
:10011000130200081302000813020008130200086B
:10012000130200081302000813020008130200085B
:1001300000F002F800F050F814A696E8000CB24463
:10014000B344DA4501D100F047F8BAE80F000FA632
:1001500096E83000A5EB040504EB0607AAEB0704BC
:10016000A7F101074FEA15154FEA3414A4F1010471
:10017000AC4201D300F030F813F0010F18BFFB1AA6
:1001800043F0010300F001F8DBE71847480E0000D8
:10019000680E0000103A24BF78C878C1FAD8520718
:1001A00024BF30C830C144BF04680C6070470000F1
:1001B000704700000023002400250026103A28BFC5
:1001C00078C1FBD8520728BF30C148BF0B607047C9
:1001D0001FB51FBD10B510BD00F058F81146FFF750
:1001E000F7FF00F07BFD00F076F803B4FFF7F2FFB5
:1001F00003BC00F07DF8000009488047094800472B
:10020000FEE7FEE7FEE7FEE7FEE7FEE7FEE7FEE7C6
:10021000FEE7FEE704480549054A064B7047000023
:10022000890C0008310100087800002078060020C1
:1002300078020020780200204FF0000200B513463B
:1002400094469646203922BFA0E80C50A0E80C50F6
:10025000B1F12001BFF4F7AF090728BFA0E80C50A7
:1002600048BF0CC05DF804EB890028BF40F8042BA0
:1002700008BF704748BF20F8022B11F0804F18BF0D
:1002800000F8012B7047704770477047754600F0C3
:100290002BF8AE4605006946534620F00700854618
:1002A00018B020B5FFF7B6FFBDE820404FF00006BC
:1002B0004FF000074FF000084FF0000BAC46ACE8E1
:1002C000C009ACE8C009ACE8C009ACE8C00921F03D
:1002D00007018D46704710B50446AFF300802046F5
:1002E000BDE81040FFF781BF0048704710000020B4
:1002F00001491820ABBEFEE726000200704700004F
:10030000FEE7000070470000B0B5044600F012F9A7
:10031000054640F20000C2F200000078611C18BFE0
:10032000044400BF00F006F9401BA042FAD3B0BD60
:100330002DE9F04F82B00E68002E00F0E980A0F1A8
:10034000804241F6004540F20043A2F58432C4F2F7
:1003500001050624C4F201034FEAB227A84208BFF0
:1003600005244FF0000E4FF001080F254FF0000A52
:100370004FF0000B052F38BF4FEAB224009408E07D
:100380000E680AF1010A36FA0AF20EF1040E00F0C4
:10039000BF8008FA0AFC16EA0C09F1D04E684FF645
:1003A000FF72C1F21002964212DC122E56D8DFE81C
:1003B00006F0350B4D49555555555555555555551F
:1003C00055555545510000BFD1F80CB046E000BF6F
:1003D0004FF6FF72C1F2210296420FDC0022C1F2F9
:1003E000110296421AD00022C1F21202964215D092
:1003F0000022C1F22102964210D02FE00022C1F269
:10040000220296420AD00022C1F23102964205D061
:100410000022C1F23202964220D100BF8A684AB15E
:10042000012A14BFC0F814C0C0F810C04FF0080B68
:1004300014E000BF4FF0040B10E000BFCA6802F1E7
:10044000040B0BE04FF0000B08E000BFCA6802F19C
:10045000080B03E0CA6802F10C0B00BF02467446A9
:10046000B9F5807F24BF0432203C166805FA04F7F2
:1004700026EA07070BFA04F637431760CA79D20653
:100480007FF57EAF41F21807C4F202073A684FF6D3
:10049000084542F001023A603A68CFF6FF7502F073
:1004A00001020192019A2AF003021A440F245759BB
:1004B0000EF00C06B440A743009C04FA06F637433E
:1004C00057514E680F25F2031A6854BF22EA0902F9
:1004D00042EA09021A605A68B70354BF22EA0902C5
:1004E00042EA09025A60F7029A6854BF22EA0902F6
:1004F00042EA0902B70240F20C479A60C4F20107CF
:100500003A6854BF22EA090242EA09023A6037E730
:1005100002B0BDE8F08F0000C26814230A4208BF91
:100520001023C15070470000002A08BF0904016170
:100530007047000040F27000C2F20000006870478F
:1005400040F2000040F27001C2F20000C2F200016D
:1005500000780A68104408607047000080B542F2D5
:100560000000C4F20200016841F0100101600320A4
:1005700000F07AF80F2000F005F800F027F80020CE
:1005800080BD000070B540F20006C2F2000640F2E5
:1005900008013278C2F200014FF47A730968B3FBA4
:1005A000F2F20446B1FBF2F1084600F04BFB0F2CCF
:1005B0004FF0010508D838B94FF0FF30214600222E
:1005C000002500F025F87460284670BD82B041F225
:1005D0001800C4F202000168022241F0010101602A
:1005E000016801F0010101910199416841F08051D8
:1005F0004160406800F08050009000980420C4F2F0
:100600000100016862F31A61016002B070470000E6
:1006100010B54EF60C5CCEF2000CDCF80030C3F3E3
:10062000022E8EF00704042C28BF0424BEF103031D
:100630004FF0FF3E0EFA04F438BF0023A143994067
:100640000EFA03F39A43114300F00F0200F16043E6
:100650000901043A03F564436244002848BF02F1EB
:100660000C03197010BD00004EF60C51CEF20001C3
:100670000A684FF6FF031A4060F30A2242F08060D6
:1006800040F0FD7008607047002804BF01207047EB
:100690002DE9F04381B042F20008C4F2020804469A
:1006A000D8F800000D4600F0070081420CD9D8F8B8
:1006B000000020F007002843C8F80000D8F8000028
:1006C00000F00700A8426CD1206841F204098107BC
:1006D000C4F2020917D5410705D5D9F8001041F435
:1006E000E061C9F80010010705D5D9F8001041F400
:1006F0006051C9F80010D9F80010A26821F0F0018B
:100700001143C9F80010C00742D1D8F8000000F02A
:10071000070085420CD2D8F8000020F007002843DB
:10072000C8F80000D8F8000000F00700A84238D14F
:100730002068410707D5D9F80010E26821F4E0618C
:100740001143C9F80010000708D5D9F80000216945
:1007500020F4605040EAC100C9F80000D9F8002038
:1007600002F00C00082841F20020C0F27A004DD1BE
:1007700040F6C473C2F38341C0F60003595CD20350
:1007800038D440F60010C0F23D0048433EE000BFC0
:10079000606859F8041C022808D0012826D1890372
:1007A00006D4012001B0BDE8F08300BF8901F8D56F
:1007B000D9F8001021F003010843C9F80000FFF741
:1007C000B9FE064641F28837D9F80000616800F0AA
:1007D0000C00B0EB810F98D0FFF7ACFE801BB84245
:1007E000F2D9032001B0BDE8F08300BF8907D8D556
:1007F000DEE700BFD9F8002040F6B273C2F34042F2
:10080000C0F600039A5C4843B0FBF2F0D9F8001040
:1008100040F6B472C1F30311C0F60002515C40F21D
:10082000080220FA01F140F20400C2F20000006860
:10083000C2F200021160FFF7A5FE002001B0BDE882
:10084000F0830000002804BF012070472DE9F0412B
:1008500082B00446007841F20006C007C4F20206E6
:100860000CD0706800F00C00042840F081803068E3
:10087000800303D56068002800F046812078800757
:100880001BD5706810F00C0F09D0706800F00C00D8
:10089000082840F087807068C00300F183803068CA
:1008A000800703D52069012840F02E8130686169F6
:1008B00020F0F80040EAC10030602078000713D42F
:1008C000207840072CD4E569002D00F0188170686D
:1008D00000F00C00082840F0A780012D40F00481B2
:1008E000012002B0BDE8F081A069002800F08480FA
:1008F0000020C4F242200121C0F88014FFF71AFE44
:10090000054600BF706A800700F1B280FFF712FE53
:10091000401B0228F6D9032002B0BDE8F08100BFD9
:10092000F0695FEAC00808D4F06940F08050F061D7
:10093000F06900F080500090009847F20007C4F280
:1009400000073868C00549D4386840F480703860C2
:10095000FFF7F0FD054600BF3868C0053ED4FFF73D
:10096000E9FD401B6428F7D9032002B0BDE8F081FF
:10097000706800F00C00082803D17068C0033FF5D0
:1009800076AF61683068002900F00C81B1F5A02FC6
:1009900000F00081B1F5803F40F01A8140F48030D2
:1009A0001CE100BF2069002840F20000C4F2422090
:1009B00000F0888001210160FFF7BCFD054600BF03
:1009C000306880073FF572AFFFF7B4FD401B022887
:1009D000F6D9032002B0BDE8F08100BFE168306ABB
:1009E000002900F09D80052900F09280012940F047
:1009F000AF8040F00100B1E00020C4F242200021AD
:100A0000C0F88014FFF796FD054600BF706A8007A6
:100A10007FF556AFFFF78EFD401B0228F6D9032065
:100A200002B0BDE8F08100BF0027C4F242270020D9
:100A30003866FFF77FFD022D05460DD13068800135
:100A400040F1DE80FFF776FD401B02284FF00300E7
:100A5000F4D902B0BDE8F081306880014FD5FFF7CE
:100A600069FD401B02284FF00300F5D9F1E700BFF4
:100A700040F20800C2F20000006844F6D351C1F20F
:100A80006201A0FB0101480A019000BF00BF01986C
:100A9000411E002801913FF413AF00BF0198411E91
:100AA000002801913FF40CAF00BF0198411E0028BF
:100AB00001913FF405AF00BF0198411E002801914C
:100AC000E4D1FDE600210160FFF734FD054600BFDB
:100AD000306880077FF5F1AEFFF72CFD401B022840
:100AE0004FF00300F4D9B4E77068216A00F4803253
:100AF0008A4209D1616A00F47010884204D1002052
:100B000002B0BDE8F08100BF012002B0BDE8F08175
:100B100040F004003062306A40F001001EE000BF87
:100B200020F001003062306A20F004003062FFF7EC
:100B300001FD054641F28837306A800720D5FFF76E
:100B4000F9FC401BB8424FF00300F5D981E700BF24
:100B500020F001003062306A20F004003062FFF7BC
:100B6000E9FC054641F28837306A800708D4FFF770
:100B7000E1FC401BB842F7D9032002B0BDE8F08188
:100B8000B8F1000F3FF59FAEF06920F08050F061A2
:100B900099E600BF40F480203060306840F4803037
:100BA0001CE000BF20F480303060306820F48020EA
:100BB0003060FFF7BFFC0546306880037FF55EAE0E
:100BC000FFF7B8FC401B64284FF00300F4D940E75E
:100BD00020F480303060306820F480203060FFF7EF
:100BE000A9FC0546306880033FF548AEFFF7A2FC3C
:100BF000401B6428F6D9032002B0BDE8F08100BF95
:100C0000206AB0F5803F05D17168A26821F40031F7
:100C1000114371607168626A21F4741111430843D1
:100C2000706001203866FFF785FC0446306880015B
:100C30003FF565AFFFF77EFC001B02284FF0030075
:100C4000F4D906E7411E0020B0EB116F1CBF012054
:100C500070474EF21002CEF2000251604EF6235160
:100C6000CEF20001F0230B700721906011607047F5
:100C7000FEE70000FEE70000FEE70000704700000E
:100C800070470000FFF75CBC41F20000C4F20200B4
:100C90000168002241F0010101604168CFF6FF02C6
:100CA0001140416001684FF6FF72CFF6F6621140C5
:100CB0000160016821F480210160416821F4FE0196
:100CC00041604FF41F0181604EF60850CEF20000E3
:100CD0004FF0006101607047FEE7000070B590B012
:100CE000FFF73CFC06AC201D2421FFF7A5FA0220EB
:100CF000069001200A9010200B90002520460D95AB
:100D0000FFF7A0FD20B1EFF3108072B6FEE700BF41
:100D10000F20CDE9010501A80021CDE90355059576
:100D2000FFF7B2FC20B1EFF3108072B6FEE700BF10
:100D3000002541F21800CDE90855CDE90655C4F269
:100D40000200016840F6004441F0200101600168A2
:100D5000C4F2010401F0200101910199016800220F
:100D600041F00801016001684FF6FF7601F00801CB
:100D700001910199016841F00401016000684FF69A
:100D8000FF7100F00400019001982046FFF7CCFBB2
:100D90000120CDE907050220099006A92046069604
:100DA000FFF7C6FA20460121FFF7B6FB4FF4FA70B1
:100DB000FFF7AAFA20460121FFF7AEFB1E20FFF73E
:100DC000A3FA20460221FFF7A7FB4FF4FA70FFF7C2
:100DD0009BFA20460221FFF79FFB1E20FFF794FAA3
:100DE00020460421FFF798FB4FF4FA70FFF78CFAC6
:100DF00020460421FFF790FB1E20FFF785FA2046CE
:100E00000821FFF789FB4FF4FA70FFF77DFA2046BF
:100E10000821FFF781FB1E20FFF776FA20461021FC
:100E2000FFF77AFB4FF4FA70FFF76EFA20461021B5
:100E3000FFF772FB1E20FFF767FA20462021FFF71D
:100E40006BFB4FF4FA70FFF75FFA20462021FFF7A3
:100E500063FB1E20FFF758FA20464021FFF75CFB9A
:100E60004FF4FA70FFF750FA20464021FFF754FB89
:100E70001E20FFF749FA20468021FFF74DFB4FF473
:100E8000FA70FFF741FA20468021FFF745FB1E204C
:100E9000FFF73AFA20464FF48071FFF73DFB4FF41D
:100EA000FA70FFF731FA20464FF48071FFF734FBF8
:100EB0001E20FFF729FA20464FF40071FFF72CFBA4
:100EC0004FF4FA70FFF720FA20464FF40071FFF755
:100ED00023FB1E20FFF718FA20464FF48061FFF72E
:100EE0001BFB4FF4FA70FFF70FFA20464FF48061B6
:100EF000FFF712FB1E20FFF707FA20464FF40061B0
:100F0000FFF70AFB4FF4FA70FFF7FEF920464FF4A3
:100F10000061FFF701FB1E20FFF7F6F920464FF4B2
:100F20008051FFF7F9FA4FF4FA70FFF7EDF9204618
:100F30004FF48051FFF7F0FA1E20FFF7E5F9204645
:100F40004FF40051FFF7E8FA4FF4FA70FFF7DCF9BD
:100F500020464FF40051FFF7DFFA1E20FFF7D4F9C7
:100F600020464FF48041FFF7D7FA4FF4FA70FFF7AD
:100F7000CBF920464FF48041FFF7CEFA1E20FFF751
:100F8000C3F920464FF40041FFF7C6FA4FF4FA7058
:100F9000FFF7BAF920464FF40041FFF7BDFA1E20D3
:100FA000FFF7B2F94FF47A70FFF7AEF9002010B0F6
:100FB00070BD0102000000000000000001020304F7
:100FC0000607080902030405060708090A0B0C0DA9
:100FD0000E0F1010F80F0008000000201000000095
:100FE00094010008081000081000002068060000A6
:100FF000B401000800000000010000001000000023
:081000000024F40000000000D0
:0400000508000131BD
:00000001FF
