:020000040800F2
:10000000780600200102000851100008B10F000816
:100010004D10000851060008B11000080000000053
:10002000000000000000000000000000591000085F
:100030005506000800000000551000085D1000087B
:100040001B0200081B0200081B0200081B0200081C
:100050001B0200081B0200081B0200081B0200080C
:100060001B0200081B0200081B0200081B020008FC
:100070001B0200081B0200081B0200081B020008EC
:100080001B0200081B0200081B0200081B020008DC
:100090001B0200081B0200081B0200081B020008CC
:1000A0001B0200081B0200081B0200081B020008BC
:1000B0001B0200081B0200081B0200081B020008AC
:1000C0001B0200081B0200081B0200081B0200089C
:1000D0001B0200081B0200081B0200081B0200088C
:1000E0001B0200081B0200081B0200081B0200087C
:1000F0001B0200081B0200081B0200081B0200086C
:100100001B0200081B0200081B0200081B0200085B
:100110001B0200081B0200081B0200081B0200084B
:100120001B0200081B0200081B0200081B0200083B
:1001300000F002F800F055F814A696E8000CB2445E
:10014000B344DA4501D100F04CF8BAE80F000FA62D
:1001500096E83000A5EB040504EB0607AAEB0704BC
:10016000A7F101074FEA15154FEA3414A4F1010471
:10017000AC4201D300F035F813F0010F18BFFB1AA1
:1001800043F0010300F001F8DBE7184758130000C3
:1001900078130000103A24BF78C878C1FAD8520703
:1001A00024BF30C830C144BF04680C6070470000F1
:1001B000704700000023002400250026103A28BFC5
:1001C00078C1FBD8520728BF30C148BF0B607047C9
:1001D000642900F07D80002070471FB51FBD10B559
:1001E00010BD00F0FBF91146FFF7F7FF01F0C6F86C
:1001F00000F019FA03B4FFF7F2FF03BC00F020FA95
:100200000948804709480047FEE7FEE7FEE7FEE7AA
:10021000FEE7FEE7FEE7FEE7FEE7FEE704480549E6
:10022000054A064B704700006110000831010008C4
:100230007800002078060020780200207802002054
:100240000FB41CB50C0007AA009007D04142A14290
:1002500002D32044401E01E04FF0FF30074B7B44A7
:1002600069460190069800F09EF90020002C01D00C
:10027000009908701CBC5DF814FB00006B030000C3
:1002800070B5044685690068C10601D5302600E0D6
:100290002026C00707D070BDD4E901213046904721
:1002A000206A401C20626D1EF6D570BD70B50446F4
:1002B00085690078C00707D170BDD4E901212020ED
:1002C0009047206A401C20626D1EF6D570BD00006C
:1002D0002DE9F0410646002410687529314616A51F
:1002E00010D0AFF30080002802DA404213A507E0E7
:1002F00031688A0701D512A502E0490704D511A586
:10030000012401E0AFF3008000210A2206F1240756
:1003100009E0B0FBF2FCB0FBF2F302FB1C00303052
:1003200078541846491C0028F3D123462A46304603
:10033000BDE8F04100F0D8B8000000002D0000003A
:100340002B000000200000002DE9F0474FF0000ACC
:1003500089460446C0F820A02046E1688847002866
:1003600076D0252806D0D4E901219047206A401C88
:100370002062F1E7E168204600258847C4F81CA008
:1003800006460027C4F818A02A2E09D0304601F0EE
:100390008FF838B304EB8708303EC8F8186019E0CE
:1003A00059F8041B204604EB87029161E1688847F5
:1003B000012F064618D1E069002820DA25F0200533
:1003C0001DE0D8F8180000EB800006EB4000303844
:1003D000C8F818002046E1688847064601F068F82A
:1003E0000028EED1012F0AD02E2E08D12046E16838
:1003F00088477F1C0646022F45F02005C4DBA06914
:10040000002803DA404245F00105A061E80701D069
:1004100025F01005B6B1A6F14100192802D8203602
:1004200045F400654A463146204625604D46FFF7B3
:10043000CFFE58B1012806D0ED1D25F0070000F1D0
:10044000080989E704E005F1040985E730468AE7F1
:10045000206ABDE8F08710B5431C02E010F8011BCC
:1004600071B18107FAD14FF0013202C88C1A8C4366
:1004700014EAC211F9D0C01A0A0603D0C01E10BD7A
:10048000C01A10BD0A0401D0801E10BD0902FCD0A4
:10049000401E10BD4FF0000200B51346944696462C
:1004A000203922BFA0E80C50A0E80C50B1F1200187
:1004B000BFF4F7AF090728BFA0E80C5048BF0CC035
:1004C0005DF804EB890028BF40F8042B08BF704793
:1004D00048BF20F8022B11F0804F18BF00F8012B05
:1004E00070477047704770472DE9F0470D469946B1
:1004F0009246044600F124080168880604D5E069A4
:1005000021F01001216000E00120A84201DD471B1D
:1005100000E00027A1697A1902EB0900081AA0611E
:100520002078C00602D42046FFF7AAFE002608E085
:10053000D4E901211AF806009047206A401C761C75
:1005400020624E45F4DB2078C0060AD52046FFF72E
:1005500097FE06E0D4E9012130209047206A401C34
:100560002062381EA7F10107F4DC07E0D4E901217D
:1005700018F805009047206A401C2062281EA5F14B
:100580000105F3DC2046FFF791FE2078000602D536
:100590000220BDE8F0870120FBE7000001694A1C4A
:1005A00002610878704700B58FB0CDE901310021B4
:1005B000059105497944CDE9031011466846FFF7D6
:1005C000C3FE0FB000BD0000E5FFFFFFD1E900232F
:1005D0009A4202D2531C0B6010707047754600F0AF
:1005E0002BF8AE4605006946534620F007008546C5
:1005F00018B020B5FFF712FEBDE820404FF000060E
:100600004FF000074FF000084FF0000BAC46ACE88D
:10061000C009ACE8C009ACE8C009ACE8C00921F0E9
:1006200007018D46704710B50446AFF300802046A1
:10063000BDE81040FFF7DEBD004870471000002005
:1006400001491820ABBEFEE72600020070470000FB
:10065000FEE7000070470000B0B5044600F00AF95C
:10066000054640F20000C2F200000078611C18BF8D
:10067000044400BF00F0FEF8401BA042FAD3B0BD16
:100680002DE9F04F82B00E68002E00F0E980A0F155
:10069000804241F6004540F20043A2F58432C4F2A4
:1006A00001050624C4F201034FEAB227A84208BF9D
:1006B00005244FF0000E4FF001080F254FF0000AFF
:1006C0004FF0000B052F38BF4FEAB224009408E02A
:1006D0000E680AF1010A36FA0AF20EF1040E00F071
:1006E000BF8008FA0AFC16EA0C09F1D04E684FF6F2
:1006F000FF72C1F21002964212DC122E56D8DFE8C9
:1007000006F0350B4D4955555555555555555555CB
:1007100055555545510000BFD1F80CB046E000BF1B
:100720004FF6FF72C1F2210296420FDC0022C1F2A5
:10073000110296421AD00022C1F21202964215D03E
:100740000022C1F22102964210D02FE00022C1F215
:10075000220296420AD00022C1F23102964205D00E
:100760000022C1F23202964220D100BF8A684AB10B
:10077000012A14BFC0F814C0C0F810C04FF0080B15
:1007800014E000BF4FF0040B10E000BFCA6802F194
:10079000040B0BE04FF0000B08E000BFCA6802F149
:1007A000080B03E0CA6802F10C0B00BF0246744656
:1007B000B9F5807F24BF0432203C166805FA04F79F
:1007C00026EA07070BFA04F637431760CA79D20600
:1007D0007FF57EAF41F21807C4F202073A684FF680
:1007E000084542F001023A603A68CFF6FF7502F020
:1007F00001020192019A2AF003021A440F24575968
:100800000EF00C06B440A743009C04FA06F63743EA
:1008100057514E680F25F2031A6854BF22EA0902A5
:1008200042EA09021A605A68B70354BF22EA090271
:1008300042EA09025A60F7029A6854BF22EA0902A2
:1008400042EA0902B70240F20C479A60C4F201077B
:100850003A6854BF22EA090242EA09023A6037E7DD
:1008600002B0BDE8F08F0000002A08BF0904016152
:100870007047000040F27000C2F20000006870474C
:1008800040F2000040F27001C2F20000C2F200012A
:1008900000780A68104408607047000080B542F292
:1008A0000000C4F20200016841F010010160032061
:1008B00000F07AF80F2000F005F800F027F800208B
:1008C00080BD000070B540F20006C2F2000640F2A2
:1008D00008013278C2F200014FF47A730968B3FB61
:1008E000F2F20446B1FBF2F1084600F04BFB0F2C8C
:1008F0004FF0010508D838B94FF0FF3021460022EB
:10090000002500F025F87460284670BD82B041F2E1
:100910001800C4F202000168022241F001010160E6
:10092000016801F0010101910199416841F0805194
:100930004160406800F08050009000980420C4F2AC
:100940000100016862F31A61016002B070470000A3
:1009500010B54EF60C5CCEF2000CDCF80030C3F3A0
:10096000022E8EF00704042C28BF0424BEF10303DA
:100970004FF0FF3E0EFA04F438BF0023A143994024
:100980000EFA03F39A43114300F00F0200F16043A3
:100990000901043A03F564436244002848BF02F1A8
:1009A0000C03197010BD00004EF60C51CEF2000180
:1009B0000A684FF6FF031A4060F30A2242F0806093
:1009C00040F0FD7008607047002804BF01207047A8
:1009D0002DE9F04381B042F20008C4F20208044657
:1009E000D8F800000D4600F0070081420CD9D8F875
:1009F000000020F007002843C8F80000D8F80000E5
:100A000000F00700A8426CD1206841F20409810778
:100A1000C4F2020917D5410705D5D9F8001041F4F1
:100A2000E061C9F80010010705D5D9F8001041F4BC
:100A30006051C9F80010D9F80010A26821F0F00147
:100A40001143C9F80010C00742D1D8F8000000F0E7
:100A5000070085420CD2D8F8000020F00700284398
:100A6000C8F80000D8F8000000F00700A84238D10C
:100A70002068410707D5D9F80010E26821F4E06149
:100A80001143C9F80010000708D5D9F80000216902
:100A900020F4605040EAC100C9F80000D9F80020F5
:100AA00002F00C00082841F20020C0F27A004DD17B
:100AB00041F2D443C2F38341C0F60003595CD20330
:100AC00038D440F60010C0F23D0048433EE000BF7D
:100AD000606859F8041C022808D0012826D189032F
:100AE00006D4012001B0BDE8F08300BF8901F8D52C
:100AF000D9F8001021F003010843C9F80000FFF7FE
:100B0000B9FE064641F28837D9F80000616800F066
:100B10000C00B0EB810F98D0FFF7ACFE801BB84201
:100B2000F2D9032001B0BDE8F08300BF8907D8D512
:100B3000DEE700BFD9F8002041F2BE43C2F34042D5
:100B4000C0F600039A5C4843B0FBF2F0D9F80010FD
:100B500041F2C042C1F30311C0F60002515C40F201
:100B6000080220FA01F140F20400C2F2000000681D
:100B7000C2F200021160FFF7A5FE002001B0BDE83F
:100B8000F0830000002804BF012070472DE9F041E8
:100B900082B00446007841F20006C007C4F20206A3
:100BA0000CD0706800F00C00042840F081803068A0
:100BB000800303D56068002800F046812078800714
:100BC0001BD5706810F00C0F09D0706800F00C0095
:100BD000082840F087807068C00300F18380306887
:100BE000800703D52069012840F02E8130686169B3
:100BF00020F0F80040EAC10030602078000713D4EC
:100C0000207840072CD4E569002D00F01881706829
:100C100000F00C00082840F0A780012D40F004816E
:100C2000012002B0BDE8F081A069002800F08480B6
:100C30000020C4F242200121C0F88014FFF71AFE00
:100C4000054600BF706A800700F1B280FFF712FE10
:100C5000401B0228F6D9032002B0BDE8F08100BF96
:100C6000F0695FEAC00808D4F06940F08050F06194
:100C7000F06900F080500090009847F20007C4F23D
:100C800000073868C00549D4386840F4807038607F
:100C9000FFF7F0FD054600BF3868C0053ED4FFF7FA
:100CA000E9FD401B6428F7D9032002B0BDE8F081BC
:100CB000706800F00C00082803D17068C0033FF58D
:100CC00076AF61683068002900F00C81B1F5A02F83
:100CD00000F00081B1F5803F40F01A8140F480308F
:100CE0001CE100BF2069002840F20000C4F242204D
:100CF00000F0888001210160FFF7BCFD054600BFC0
:100D0000306880073FF572AFFFF7B4FD401B022843
:100D1000F6D9032002B0BDE8F08100BFE168306A77
:100D2000002900F09D80052900F09280012940F003
:100D3000AF8040F00100B1E00020C4F24220002169
:100D4000C0F88014FFF796FD054600BF706A800763
:100D50007FF556AFFFF78EFD401B0228F6D9032022
:100D600002B0BDE8F08100BF0027C4F24227002096
:100D70003866FFF77FFD022D05460DD130688001F2
:100D800040F1DE80FFF776FD401B02284FF00300A4
:100D9000F4D902B0BDE8F081306880014FD5FFF78B
:100DA00069FD401B02284FF00300F5D9F1E700BFB1
:100DB00040F20800C2F20000006844F6D351C1F2CC
:100DC0006201A0FB0101480A019000BF00BF019829
:100DD000411E002801913FF413AF00BF0198411E4E
:100DE000002801913FF40CAF00BF0198411E00287C
:100DF00001913FF405AF00BF0198411E0028019109
:100E0000E4D1FDE600210160FFF734FD054600BF97
:100E1000306880077FF5F1AEFFF72CFD401B0228FC
:100E20004FF00300F4D9B4E77068216A00F480320F
:100E30008A4209D1616A00F47010884204D100200E
:100E400002B0BDE8F08100BF012002B0BDE8F08132
:100E500040F004003062306A40F001001EE000BF44
:100E600020F001003062306A20F004003062FFF7A9
:100E700001FD054641F28837306A800720D5FFF72B
:100E8000F9FC401BB8424FF00300F5D981E700BFE1
:100E900020F001003062306A20F004003062FFF779
:100EA000E9FC054641F28837306A800708D4FFF72D
:100EB000E1FC401BB842F7D9032002B0BDE8F08145
:100EC000B8F1000F3FF59FAEF06920F08050F0615F
:100ED00099E600BF40F480203060306840F48030F4
:100EE0001CE000BF20F480303060306820F48020A7
:100EF0003060FFF7BFFC0546306880037FF55EAECB
:100F0000FFF7B8FC401B64284FF00300F4D940E71A
:100F100020F480303060306820F480203060FFF7AB
:100F2000A9FC0546306880033FF548AEFFF7A2FCF8
:100F3000401B6428F6D9032002B0BDE8F08100BF51
:100F4000206AB0F5803F05D17168A26821F40031B4
:100F5000114371607168626A21F47411114308438E
:100F6000706001203866FFF785FC04463068800118
:100F70003FF565AFFFF77EFC001B02284FF0030032
:100F8000F4D906E7411E0020B0EB116F1CBF012011
:100F900070474EF21002CEF2000251604EF623511D
:100FA000CEF20001F0230B700721906011607047B2
:100FB000FEE70000B0B50446DDE90650DDE904CEE9
:100FC000A075A582C4F810E0A4F80CC0C4E9001212
:100FD000A36008B1382108E02046332100F06AF808
:100FE0002046322100F066F82821204600F062F801
:100FF0002046012100F05EF820460C2100F05AF84E
:101000002046062100F056F8B0BD000041F2D04362
:10101000C0F60003595C11448039C9B200F04AB8E7
:10102000F0B581B00C46097869B105460027002665
:10103000E15D284600F0F0F801362046F7B2FFF7F0
:101040000AFAB842F4D801B0F0BD0000FEE7000093
:10105000FEE700007047000070470000FFF710BC7B
:1010600041F20000C4F202000168002241F00101D7
:1010700001604168CFF6FF021140416001684FF600
:10108000FF72CFF6F66211400160016821F4802101
:101090000160416821F4FE0141604FF41F0181604D
:1010A0004EF60850CEF200004FF00061016070472C
:1010B000FEE70000F0B581B00446A28980680D46C5
:1010C00011460022FFF7D0FBA07D002844D0D4E9D0
:1010D000000105F0010200680988FFF7C5FBD4E9AB
:1010E0000001C5F3400240684988FFF7BDFBD4E921
:1010F0000001C5F3800280688988FFF7B5FBD4E959
:101100000001C5F3C002C068C988FFF7ADFBD4E990
:101110000001C5F3001200690989FFF7A5FBD4E9B6
:101120000001C5F3401240694989FFF79DFBD4E9EE
:101130000001C5F3801280698989FFF795FBD4E926
:101140000001EA09C069C989FFF78EFB04F11006A6
:1011500004F1140750E000BFD4E90001C5F3001208
:1011600000680988FFF780FBD4E90001C5F340124D
:1011700040684988FFF778FBD4E90001C5F3801285
:1011800080688988FFF770FBD4E90001EA09C0682C
:10119000C988FFF769FB2646274656F8100F37F82F
:1011A000141F0122FFF760FB0120FFF755FA30689A
:1011B00039880022FFF758FBD4E9000105F001024D
:1011C00000680988FFF750FBD4E90001C5F340022D
:1011D00040684988FFF748FBD4E90001C5F3800265
:1011E00080688988FFF740FBD4E90001C5F3C0029D
:1011F000C068C988FFF738FB306839880122FFF7DB
:1012000033FB0120FFF728FA30683988002201B04B
:10121000BDE8F040FFF728BBF0B581B00446A289D5
:1012200080680D4611460122FFF71EFBA07D0028B5
:1012300044D0D4E9000105F0010200680988FFF7F5
:1012400013FBD4E90001C5F3400240684988FFF769
:101250000BFBD4E90001C5F3800280688988FFF7A1
:1012600003FBD4E90001C5F3C002C068C988FFF7D9
:10127000FBFAD4E90001C5F3001200690989FFF700
:10128000F3FAD4E90001C5F3401240694989FFF738
:10129000EBFAD4E90001C5F3801280698989FFF770
:1012A000E3FAD4E90001EA09C069C989FFF7DCFA69
:1012B00004F1100604F1140750E000BFD4E9000166
:1012C000C5F3001200680988FFF7CEFAD4E90001DF
:1012D000C5F3401240684988FFF7C6FAD4E9000117
:1012E000C5F3801280688988FFF7BEFAD4E900014F
:1012F000EA09C068C988FFF7B7FA2646274656F8B4
:10130000100F37F8141F0122FFF7AEFA0120FFF784
:10131000A3F9306839880022FFF7A6FAD4E9000162
:1013200005F0010200680988FFF79EFAD4E9000180
:10133000C5F3400240684988FFF796FAD4E90001F6
:10134000C5F3800280688988FFF78EFAD4E900012E
:10135000C5F3C002C068C988FFF786FA30683988CB
:101360000122FFF781FA0120FFF776F9306839880A
:10137000002201B0BDE8F040FFF776BA98B0FFF761
:101380008DFA0EAC201D2421FFF784F802200E9068
:101390000120129010201390002520461595FFF78C
:1013A000F1FB28B1EFF3108072B600BFFEE700BF7B
:1013B0000F20CDE9090509A80021CDE90B550D95B0
:1013C000FFF702FB20B1EFF3108072B6FEE700BF1B
:1013D000002741F21800CDE91077CDE90E77C4F26D
:1013E0000200016840F6004541F0200101600168FB
:1013F000C4F2010501F02001099109990168002258
:1014000041F00801016001683F2401F008010991E1
:101410000999016841F00401016000683F2100F072
:101420000400099009982846FFF71EFA0E940EACA6
:101430004FF00108022628462146CDE90F87119674
:10144000FFF71EF91020C0F2200007900420C0F220
:10145000080006900EA809A906AA2B46CDE90B554F
:10146000CDE90955CDE9008502960397FFF7A2FD66
:101470000EA50DF1130600BFBBB2304605212A466A
:10148000FEF7DEFE204600210622FFF7BFFD2046C4
:101490003146FFF7C5FD0137B8B2B0F5FA6F4FF02E
:1014A000140088BF0027FFF7D7F8E5E7253464006C
:1014B00030380A2801D2012070470020704701020D
:1014C00000000000000000000102030406070809F4
:1014D0000040105002030405060708090A0B0C0D12
:1014E0000E0F10100815000800000020100000006A
:1014F000940100081815000810000020680600007C
:10150000B40100080000000001000000100000000D
:081510000024F40000000000BB
:0400000508000131BD
:00000001FF
