:020000040800F2
:10000000200700200102000871150008C91400082B
:100010006D1500083D050008E91500080000000006
:10002000000000000000000000000000791500083A
:100030004105000800000000751500087D15000846
:100040001B0200081B0200081B0200081B0200081C
:100050001B0200081B0200081B0200081B0200080C
:100060001B0200081B0200081B0200081B020008FC
:100070001B0200081B0200081B0200081B020008EC
:100080001B0200081B0200081B0200081B020008DC
:100090001B0200081B0200081B0200081B020008CC
:1000A0001B0200081B0200081B0200081B020008BC
:1000B0001B0200081B0200081B0200081B020008AC
:1000C0001B0200081B0200081B0200081B0200089C
:1000D0001B020008DD1500081B0200081B020008B7
:1000E0001B0200081B0200081B0200081B0200087C
:1000F0001B0200081B0200081B0200081B0200086C
:100100001B0200081B0200081B0200081B0200085B
:100110001B0200081B0200081B0200081B0200084B
:100120001B0200081B0200081B0200081B0200083B
:1001300000F002F800F055F814A696E8000CB2445E
:10014000B344DA4501D100F04CF8BAE80F000FA62D
:1001500096E83000A5EB040504EB0607AAEB0704BC
:10016000A7F101074FEA15154FEA3414A4F1010471
:10017000AC4201D300F035F813F0010F18BFFB1AA1
:1001800043F0010300F001F8DBE71847001A000014
:10019000201A0000103A24BF78C878C1FAD8520754
:1001A00024BF30C830C144BF04680C6070470000F1
:1001B000704700000023002400250026103A28BFC5
:1001C00078C1FBD8520728BF30C148BF0B607047C9
:1001D000642900F07D80002070471FB51FBD10B559
:1001E00010BD00F070F91146FFF7F7FF01F062FB58
:1001F00000F08EF903B4FFF7F2FF03BC00F096F9AC
:100200000948804709480047FEE7FEE7FEE7FEE7AA
:10021000FEE7FEE7FEE7FEE7FEE7FEE704480549E6
:10022000054A064B7047000081150008310100089F
:1002300020010020200700202003002020030020B0
:100240000FB41CB5074B06AA7B446946009005987D
:1002500000F021F90020694600F030F91CBC5DF87F
:1002600014FB0000710200002DE9F0410E46044627
:10027000002020622046E168884730B3252805D059
:10028000D4E901219047206A401CF2E7E16820464A
:1002900000278847050018D0A5F14100192802D889
:1002A00020354FF400673246294620462760FFF785
:1002B0008FFF40B1012804D0F61D26F0070608364E
:1002C000D8E7361DD6E72846DAE7206ABDE8F08190
:1002D0002DE9F0410646002410687529314616A51F
:1002E00010D0AFF30080002802DA404213A507E0E7
:1002F00031688A0701D512A502E0490704D511A586
:10030000012401E0AFF3008000210A2206F1240756
:1003100009E0B0FBF2FCB0FBF2F302FB1C00303052
:1003200078541846491C0028F3D123462A46304603
:10033000BDE8F04100F051B8000000002D000000C1
:100340002B0000002000000010B5431C02E010F854
:10035000011B71B18107FAD14FF0013202C88C1A2A
:100360008C4314EAC211F9D0C01A0A0603D0C01E89
:1003700010BDC01A10BD0A0401D0801E10BD0902B4
:10038000FCD0401E10BD4FF0000200B5134694464D
:100390009646203922BFA0E80C50A0E80C50B1F1DD
:1003A0002001BFF4F7AF090728BFA0E80C5048BFF1
:1003B0000CC05DF804EB890028BF40F8042B08BF8F
:1003C000704748BF20F8022B11F0804F18BF00F88B
:1003D000012B70477047704770472DE9F0470D4675
:1003E00099469246044600F124080168880604D51F
:1003F000E06921F01001216000E00120A84201DD48
:10040000471B00E00027A1697A1902EB0900081ACE
:10041000A0612078C00602D42046AFF300800026F9
:1004200008E0D4E901211AF806009047206A401C30
:10043000761C20624E45F4DB2078C0060AD52046A3
:10044000AFF3008006E0D4E9012130209047206A14
:10045000401C2062381EA7F10107F4DC07E0D4E954
:10046000012118F805009047206A401C2062281ED0
:10047000A5F10105F3DC2046AFF3008020780006EB
:1004800002D50220BDE8F0870120FBE701694A1C84
:1004900002610878704700B58FB0CDE901310021C5
:1004A000059105497944CDE9031011466846FFF7E7
:1004B000DBFE0FB000BD0000E5FFFFFF0A6802F899
:1004C000010B0A607047754600F02CF8AE46050037
:1004D0006946534620F00700854618B020B5FFF75F
:1004E0009DFEBDE820404FF000064FF000074FF0A2
:1004F00000084FF0000BAC46ACE8C009ACE8C009FE
:10050000ACE8C009ACE8C00921F007018D4670478E
:1005100010B50446AFF300802046BDE81040FFF759
:1005200069BE0000004870471000002001491820F3
:10053000ABBEFEE72600020070470000FEE70000A9
:100540007047000090F82110022927D1026840F27C
:10055000040C1368C4F2020C23F00E03136013683A
:100560000CF17C018A4223F0010111601AD940F29A
:100570000841C4F202018A4250D040F21C41C4F248
:1005800002018A4242D040F23041C4F202018A4262
:1005900048D14FF48073CCF800345CE004218163CF
:1005A000012070474321C4F202018A420EDD6B2113
:1005B000C4F202018A421BDC4421C4F202018A42D5
:1005C0003ED05821C4F202018A4223E00821C4F23D
:1005D00002018A4232D01C21C4F202018A4237D081
:1005E0003021C4F202018A4214D14FF4807230E00B
:1005F0006C21C4F202018A4226D08021C4F2020199
:100600008A4207D14FF0807223E000BF1023CCF85C
:10061000003420E04FF480321BE000BF0123CCF80F
:10062000003418E00CF588614FF480338A4208BF2B
:100630004FF48053CCF800340DE000BF012208E0F5
:100640004FF4805205E000BF4FF4801201E000BF7C
:100650001022CCF80020416B4FF4807200290284F4
:1006600004BF0020704780B58847002080BD00008F
:10067000B0B5044600F00AF9054640F20000C2F2A7
:1006800000000078611C18BF044400BF00F0FEF8B1
:10069000401BA042FAD3B0BD2DE9F04F82B00E68E6
:1006A000002E00F0E980A0F1804241F6004540F2C2
:1006B0000043A2F58432C4F201050624C4F201030A
:1006C0004FEAB227A84208BF05244FF0000E4FF0B2
:1006D00001080F254FF0000A4FF0000B052F38BF1F
:1006E0004FEAB224009408E00E680AF1010A36FAD3
:1006F0000AF20EF1040E00F0BF8008FA0AFC16EAB6
:100700000C09F1D04E684FF6FF72C1F2100296420A
:1007100012DC122E56D8DFE806F0350B4D49555540
:10072000555555555555555555555545510000BFCD
:10073000D1F80CB046E000BF4FF6FF72C1F22102C3
:1007400096420FDC0022C1F2110296421AD000221A
:10075000C1F21202964215D00022C1F22102964245
:1007600010D02FE00022C1F2220296420AD00022CD
:10077000C1F23102964205D00022C1F23202964205
:1007800020D100BF8A684AB1012A14BFC0F814C042
:10079000C0F810C04FF0080B14E000BF4FF0040B7E
:1007A00010E000BFCA6802F1040B0BE04FF0000B31
:1007B00008E000BFCA6802F1080B03E0CA6802F152
:1007C0000C0B00BF02467446B9F5807F24BF04328B
:1007D000203C166805FA04F726EA07070BFA04F628
:1007E00037431760CA79D2067FF57EAF41F218070A
:1007F000C4F202073A684FF6084542F001023A6037
:100800003A68CFF6FF7502F001020192019A2AF0D0
:1008100003021A440F2457590EF00C06B440A743A4
:10082000009C04FA06F6374357514E680F25F20331
:100830001A6854BF22EA090242EA09021A605A6899
:10084000B70354BF22EA090242EA09025A60F702DA
:100850009A6854BF22EA090242EA0902B70240F24A
:100860000C479A60C4F201073A6854BF22EA0902B1
:1008700042EA09023A6037E702B0BDE8F08F0000B3
:10088000002A08BF090401617047000040F21C10F3
:10089000C2F200000068704740F2000040F21C11F4
:1008A000C2F20000C2F2000100780A681044086039
:1008B0007047000080B542F20000C4F202000168F7
:1008C00041F010010160032000F08CF80F2000F0CF
:1008D00005F800F027F8002080BD000070B540F258
:1008E0000006C2F2000640F208013278C2F20001AE
:1008F0004FF47A730968B3FBF2F20446B1FBF2F1EC
:10090000084600F085FB0F2C4FF0010508D838B9D8
:100910004FF0FF3021460022002500F037F87460C8
:10092000284670BD82B041F21800C4F2020001688E
:10093000022241F001010160016801F00101019111
:100940000199416841F080514160406800F0805059
:10095000009000980420C4F20100016862F31A615B
:10096000016002B070470000002848BF704700F0E7
:100970001F01012202FA01F11C2202EAD0004EF20C
:100980000012CEF2000281507047000010B54EF602
:100990000C5CCEF2000CDCF80030C3F3022E8EF0BB
:1009A0000704042C28BF0424BEF103034FF0FF3ECC
:1009B0000EFA04F438BF0023A14399400EFA03F362
:1009C0009A43114300F00F0200F160430901043A19
:1009D00003F564436244002848BF02F10C03197018
:1009E00010BD00004EF60C51CEF200010A684FF621
:1009F000FF031A4060F30A2242F0806040F0FD706D
:100A000008607047002804BF012070472DE9F043BB
:100A100081B042F20008C4F202080446D8F800008F
:100A20000D4600F0070081420CD9D8F8000020F0F4
:100A300007002843C8F80000D8F8000000F00700BD
:100A4000A8426CD1206841F204098107C4F202096E
:100A500017D5410705D5D9F8001041F4E061C9F870
:100A60000010010705D5D9F8001041F46051C9F80C
:100A70000010D9F80010A26821F0F0011143C9F864
:100A80000010C00742D1D8F8000000F007008542EE
:100A90000CD2D8F8000020F007002843C8F8000066
:100AA000D8F8000000F00700A84238D120684107BC
:100AB00007D5D9F80010E26821F4E0611143C9F8C4
:100AC0000010000708D5D9F80000216920F4605013
:100AD00040EAC100C9F80000D9F8002002F00C007B
:100AE000082841F20020C0F27A004DD141F67A3355
:100AF000C2F38341C0F60003595CD20338D440F6F8
:100B00000010C0F23D0048433EE000BF606859F865
:100B1000041C022808D0012826D1890306D401200C
:100B200001B0BDE8F08300BF8901F8D5D9F8001005
:100B300021F003010843C9F80000FFF7A7FE0646AD
:100B400041F28837D9F80000616800F00C00B0EB82
:100B5000810F98D0FFF79AFE801BB842F2D903208C
:100B600001B0BDE8F08300BF8907D8D5DEE700BF3C
:100B7000D9F8002041F65C33C2F34042C0F60003CE
:100B80009A5C4843B0FBF2F0D9F8001041F65E32AF
:100B9000C1F30311C0F60002515C40F2080220FAD2
:100BA00001F140F20400C2F200000068C2F200024B
:100BB0001160FFF793FE002001B0BDE8F083000054
:100BC00040F2080041F20401C2F20000C4F2020146
:100BD0000068096841F66E32C1F30221C0F60002D6
:100BE000515CC8407047000040F2080041F2040127
:100BF000C2F20000C4F202010068096841F66E32D8
:100C0000C1F3C221C0F60002515CC8407047000029
:100C1000002804BF012070472DE9F04182B004464E
:100C2000007841F20006C007C4F202060CD07068DA
:100C300000F00C00042840F081803068800303D568
:100C40006068002800F04681207880071BD5706816
:100C500010F00C0F09D0706800F00C00082840F06C
:100C600087807068C00300F183803068800703D5F7
:100C70002069012840F02E813068616920F0F80079
:100C800040EAC10030602078000713D42078400784
:100C90002CD4E569002D00F01881706800F00C007C
:100CA000082840F0A780012D40F00481012002B007
:100CB000BDE8F081A069002800F084800020C4F223
:100CC00042200121C0F88014FFF7E0FD054600BF77
:100CD000706A800700F1B280FFF7D8FD401B022840
:100CE000F6D9032002B0BDE8F08100BFF0695FEAE9
:100CF000C00808D4F06940F08050F061F06900F05D
:100D000080500090009847F20007C4F2000738684E
:100D1000C00549D4386840F480703860FFF7B6FDEC
:100D2000054600BF3868C0053ED4FFF7AFFD401B45
:100D30006428F7D9032002B0BDE8F081706800F0A4
:100D40000C00082803D17068C0033FF576AF6168D6
:100D50003068002900F00C81B1F5A02F00F000816F
:100D6000B1F5803F40F01A8140F480301CE100BFB3
:100D70002069002840F20000C4F2422000F0888080
:100D800001210160FFF782FD054600BF3068800742
:100D90003FF572AFFFF77AFD401B0228F6D903201A
:100DA00002B0BDE8F08100BFE168306A002900F0C0
:100DB0009D80052900F09280012940F0AF8040F02D
:100DC0000100B1E00020C4F242200021C0F88014EC
:100DD000FFF75CFD054600BF706A80077FF556AFE0
:100DE000FFF754FD401B0228F6D9032002B0BDE8EE
:100DF000F08100BF0027C4F2422700203866FFF7C9
:100E000045FD022D05460DD13068800140F1DE80A0
:100E1000FFF73CFD401B02284FF00300F4D902B05D
:100E2000BDE8F081306880014FD5FFF72FFD401BF2
:100E300002284FF00300F5D9F1E700BF40F20800A7
:100E4000C2F20000006844F6D351C1F26201A0FB77
:100E50000101480A019000BF00BF0198411E00280F
:100E600001913FF413AF00BF0198411E002801918A
:100E70003FF40CAF00BF0198411E002801913FF4E0
:100E800005AF00BF0198411E00280191E4D1FDE6A5
:100E900000210160FFF7FAFC054600BF30688007BB
:100EA0007FF5F1AEFFF7F2FC401B02284FF0030084
:100EB000F4D9B4E77068216A00F480328A4209D11B
:100EC000616A00F47010884204D1002002B0BDE8CD
:100ED000F08100BF012002B0BDE8F08140F00400C5
:100EE0003062306A40F001001EE000BF20F00100D7
:100EF0003062306A20F004003062FFF7C7FC05461C
:100F000041F28837306A800720D5FFF7BFFC401BCD
:100F1000B8424FF00300F5D981E700BF20F001008F
:100F20003062306A20F004003062FFF7AFFC054603
:100F300041F28837306A800708D4FFF7A7FC401BCE
:100F4000B842F7D9032002B0BDE8F081B8F1000F34
:100F50003FF59FAEF06920F08050F06199E600BF48
:100F600040F480203060306840F480301CE000BFE6
:100F700020F480303060306820F480203060FFF74B
:100F800085FC0546306880037FF55EAEFFF77EFC8A
:100F9000401B64284FF00300F4D940E720F4803070
:100FA0003060306820F480203060FFF76FFC054629
:100FB000306880033FF548AEFFF768FC401B6428AB
:100FC000F6D9032002B0BDE8F08100BF206AB0F579
:100FD000803F05D17168A26821F40031114371602E
:100FE0007168626A21F47411114308437060012032
:100FF0003866FFF74BFC0446306880013FF565AF6B
:10100000FFF744FC001B02284FF00300F4D906E769
:10101000411E0020B0EB116F1CBF012070474EF243
:101020001002CEF2000251604EF62351CEF20001C2
:10103000F0230B700721906011607047704700002B
:10104000B0B501680A68CC684B6902F02F05202D05
:1010500004F0200512D18DB190F83A20222A40F0F8
:1010600017818268B2F5805F3ED10369826A496860
:10107000002B61D0C9B222F8011B61E05FEA027C5B
:101080001EBF03F0010E04F4907313EB0E0337D16F
:10109000130617D514F0800314D090F83920212AB4
:1010A00040F0F6808368026AB3F5805F30D1138820
:1010B0006FF35F234B600369002B14BF01320232D0
:1010C000026229E0520640F1E38014F0400208BFBA
:1010D000B0BDCA6822F04002CA60202180F83910F1
:1010E000BDE8B04000F0EEB902694968002A826AA2
:1010F00018BF01F07F01531C8362117021E000BF13
:10110000D30718BF14F4807336D153073AD440E0A4
:10111000531C036212784A60C28C013A1304C284E1
:1011200040F0B680C86820F08000C860C86840F011
:101130004000C860B0BD00BF6FF35F2122F8021B02
:101140008262C18D01390A04C18540F0A180016825
:10115000CA6822F02002CA60CA6822F48072CA609B
:101160004A6922F001024A61202180F83A10BDE864
:10117000B04000F07BB900BFC36B43F00103C36311
:10118000530706D5BEF1000F03D0C36B43F0020333
:10119000C363930706D5BEF1000F03D0C36B43F0C2
:1011A0000403C363BCF1000F06D5BEF1000F03D0EA
:1011B000C36B43F00803C363C36B002B68D0920674
:1011C0003BD5D5B390F83A20222A36D18268B2F5C1
:1011D000805F07D10369826A49687BB1C9B222F88E
:1011E000011B0FE002694968002A826A18BF01F0FA
:1011F0007F01531C8362117005E000BF6FF35F2114
:1012000022F8021B8262C18D4A1EC2850168120447
:1012100013D1CA68044622F02002CA60CA6822F4C8
:101220008072CA604A6922F001024A61202180F876
:101230003A1000F01BF9216820464A69C36B02F09E
:10124000400203F00803D21824D0CA6822F4907236
:10125000CA604A6922F001024A61202280F83A20DD
:101260004A6952061CD54A6922F040024A61416B24
:10127000B1B141F2D152C0F60002044608464A63B9
:10128000FFF760F920B1606B416BBDE8B0400847E3
:10129000B0BD00BF0446FFF7D1FE0020E063B0BD43
:1012A000BDE8B040FFF7CABE002804BF0120704768
:1012B00010B5044690F8390028B9002084F83800A9
:1012C000204600F061F8242084F839002068D4E931
:1012D0000212C36823F40053C360036923F440532C
:1012E0001A430261D4E904231143C268194341F24D
:1012F0000C639A431143C1604169A26921F44071B2
:10130000114343F60002C4F201029042416103D04E
:10131000FFF756FC02E000BFFFF766FCD4E90023AC
:10132000192148439900B0FBF1F048F21F5CC5F267
:10133000EB1CA0FB0C314FF69C734909C0F6FF7300
:1013400001FB0300322303EB0010A0FB0C03F02091
:1013500000EA531000EB0110C3F3431108449060FE
:101360001069202120F490401061506920F02A007B
:101370005061D06840F40050D0600020E06384F8F1
:10138000391084F83A1010BD70B586B040F60004EC
:10139000C4F20104006804F5405100268842059615
:1013A000CDE90366029601D006B070BD41F2180087
:1013B000C4F20200016802AD41F48041016001689D
:1013C00001F4804101910199016841F0040101603B
:1013D0000068294600F00400019001984FF4007065
:1013E000029002200390032005902046FFF754F955
:1013F0004FF48060CDE90206204629460496FFF7A7
:101400004BF9252000210022FFF7C0FA2520FFF725
:10141000ABFA06B070BD0000034690F83A002028F1
:101420000AD100294FF0010018BF002A00D17047EF
:1014300093F83800012801D10220704799620020FA
:1014400022219A85DA85D86383F83A10196883F8DF
:101450003800CA6842F48072CA604A6942F00102E8
:101460004A61CA6842F02002CA607047006843F6C9
:101470000001C4F20101884218BF704740F27000B9
:10148000C2F2000041780D2901D00A2908D1418813
:101490000022014481F82C2001210170704700BF17
:1014A00042883E2A05D84288531C0244438082F871
:1014B0002C10411C40F2DC00C2F200000122FFF7B8
:1014C000ABBF000070470000FEE70000012100F004
:1014D0008DB80000B0B50446DDE90650DDE904CE64
:1014E000A075A582C4F810E0A4F80CC0C4E90012ED
:1014F000A36008B1382108E02046332100F076F8D7
:101500002046322100F072F82821204600F06EF8C3
:101510002046012100F06AF820460C2100F066F810
:101520002046062100F062F8B0BD000041F6763397
:10153000C0F60003595C11448039C9B200F056B8B6
:10154000F0B581B00C46097869B105460027002640
:10155000E15D284600F0FCF801362046F7B2FEF7C0
:10156000F3FEB842F4D801B0F0BD0000FEE7000081
:10157000FEE700007047000070470000FFF78CB9DD
:1015800041F20000C4F202000168002241F00101B2
:1015900001604168CFF6FF021140416001684FF6DB
:1015A000FF72CFF6F66211400160016821F48021DC
:1015B0000160416821F4FE0141604FF41F01816028
:1015C0004EF60850CEF200004FF000610160704707
:1015D000406A0021C185C184FFF730BD40F2DC00C4
:1015E000C2F20000FFF72CBDFEE70000F0B581B0AD
:1015F0000446A28980680D4611460022FFF740F993
:10160000A07D002844D0D4E9000105F00102006863
:101610000988FFF735F9D4E90001C5F340024068B5
:101620004988FFF72DF9D4E90001C5F380028068ED
:101630008988FFF725F9D4E90001C5F3C002C06825
:10164000C988FFF71DF9D4E90001C5F3001200694C
:101650000989FFF715F9D4E90001C5F34012406983
:101660004989FFF70DF9D4E90001C5F380128069BB
:101670008989FFF705F9D4E90001EA09C069C98938
:10168000FFF7FEF804F1100604F1140750E000BF64
:10169000D4E90001C5F3001200680988FFF7F0F8EB
:1016A000D4E90001C5F3401240684988FFF7E8F823
:1016B000D4E90001C5F3801280688988FFF7E0F85B
:1016C000D4E90001EA09C068C988FFF7D9F82646BD
:1016D000274656F8100F37F8141F0122FFF7D0F8ED
:1016E0000120FEF7C5FF306839880022FFF7C8F8EF
:1016F000D4E9000105F0010200680988FFF7C0F88D
:10170000D4E90001C5F3400240684988FFF7B8F802
:10171000D4E90001C5F3800280688988FFF7B0F83A
:10172000D4E90001C5F3C002C068C988FFF7A8F872
:10173000306839880122FFF7A3F80120FEF798FFEF
:1017400030683988002201B0BDE8F040FFF798B852
:10175000F0B581B00446A28980680D461146012289
:10176000FFF78EF8A07D002844D0D4E9000105F0F1
:10177000010200680988FFF783F8D4E90001C5F386
:10178000400240684988FFF77BF8D4E90001C5F3BF
:10179000800280688988FFF773F8D4E90001C5F3F7
:1017A000C002C068C988FFF76BF8D4E90001C5F32F
:1017B000001200690989FFF763F8D4E90001C5F355
:1017C000401240694989FFF75BF8D4E90001C5F38D
:1017D000801280698989FFF753F8D4E90001EA098A
:1017E000C069C989FFF74CF804F1100604F1140729
:1017F00050E000BFD4E90001C5F300120068098879
:10180000FFF73EF8D4E90001C5F34012406849886B
:10181000FFF736F8D4E90001C5F3801280688988A3
:10182000FFF72EF8D4E90001EA09C068C988FFF77C
:1018300027F82646274656F8100F37F8141F0122BE
:10184000FFF71EF80120FEF713FF306839880022E9
:10185000FFF716F8D4E9000105F0010200680988D5
:10186000FFF70EF8D4E90001C5F34002406849884B
:10187000FFF706F8D4E90001C5F380028068898883
:10188000FEF7FEFFD4E90001C5F3C002C068C988B5
:10189000FEF7F6FF306839880122FEF7F1FF0120DC
:1018A000FEF7E6FE30683988002201B0BDE8F0405E
:1018B000FEF7E6BF96B0FEF7FDFF0CAC201D24211D
:1018C000FEF761FD02200C90012010901020119075
:1018D000002520461395FFF79BF928B1EFF3108000
:1018E00072B600BFFEE700BF0F20CDE9070507A8CD
:1018F0000021CDE909550B95FFF784F820B1EFF3EE
:10190000108072B6FEE700BF4FF0000A41F21800E7
:10191000CDE90EAACDE90CAAC4F20200016840F696
:10192000000541F0200101600168C4F2010501F0E9
:101930002001079107990168002241F0040101602C
:1019400000683F2100F004000790079828463F24D4
:10195000FEF796FF0120CDE90D0A02200F900CA999
:1019600028460C94FEF798FE40F2DC0905F540503D
:10197000C2F200094FF416510C2289E803044846CC
:10198000C9E903AAC9E9052AC9F81CA0FFF78CFC1C
:1019900020B1EFF3108072B6FEE700BF0420C0F262
:1019A000080005900120C0F20200049020201021C0
:1019B000CDE9001502900CA807A904AA2B46CDE991
:1019C0000955CDE90755CDF80CA0FFF783FD40F28E
:1019D00070040CABC2F200040FCB264646F8140F7D
:1019E000DDE9100706F1040CC6E9040764208CE861
:1019F0000E00FEF73DFE3046FFF768FD3046002141
:101A00000022FFF793FD42A13046FFF799FD3046D3
:101A1000012100220125FFF789FD40A13046FFF793
:101A20008FFDCDF830A0D9F80000012201680C919B
:101A300041680C910C994068A6F113014846FFF7E4
:101A4000EBFC0FF2EC0815E004F12C004021FEF74E
:101A50009AFCA4F802A0CDF830A0D9F80000012229
:101A600001680C9141680C910C994068611C4846D2
:101A7000FFF7D2FC20780128FCD184F800A0608810
:101A80000028E1D004F114073846FFF71FFD261D9A
:101A9000304641462A46FEF7D3FB38460021002255
:101AA000FFF744FD38463146FFF74AFD384601212D
:101AB0000022FFF73BFD04F12C0638463146FFF7C4
:101AC0003FFD40F2DC50FEF7D3FD30464021FEF7EB
:101AD0005AFC0A2DA4F802A002D00135BBE700BFD2
:101AE0003846FFF7F3FC384600210022FFF71EFDC1
:101AF00012A13846FFF724FD384601210022FFF7E6
:101B000015FD12A13846FFF71BFD00BFFEE700BF21
:101B100057616974696E6720666F72004D41544C5D
:101B2000414220446174612049542E2E000000007F
:101B30004E616D652025642F31303A00416C6C2078
:101B40003130204E616D65730000000052656365A1
:101B50006976656421203A29000000000102000036
:101B6000000000000000010203040607080900004D
:101B700000000102030400401050020304050607A0
:101B800008090A0B0C0D0E0F10100000B01B000806
:101B9000000000201000000094010008C01B000895
:101BA0001000002010070000B40100080000000031
:101BB00001000000100000000024F40000000000FC
:0400000508000131BD
:00000001FF
