:020000040800F2
:1000000030070020F9010008851D00087D1D00084B
:10001000811D000829030008E51D000800000000FC
:100020000000000000000000000000008D1D00081E
:100030003903000800000000891D0008911D000818
:10004000130200081302000813020008130200083C
:10005000130200081302000813020008130200082C
:100060001302000813020008130200082D03000801
:10007000130200081302000813020008130200080C
:1000800013020008130200081302000813020008FC
:1000900013020008130200081302000813020008EC
:1000A00013020008130200081302000813020008DC
:1000B00013020008130200081302000813020008CC
:1000C00013020008130200081302000813020008BC
:1000D00013020008130200081302000813020008AC
:1000E000130200081302000813020008130200089C
:1000F000130200081302000813020008130200088C
:10010000130200081302000813020008130200087B
:10011000130200081302000813020008130200086B
:10012000130200081302000813020008130200085B
:1001300000F002F800F050F814A696E8000CB24463
:10014000B344DA4501D100F047F8BAE80F000FA632
:1001500096E83000A5EB040504EB0607AAEB0704BC
:10016000A7F101074FEA15154FEA3414A4F1010471
:10017000AC4201D300F030F813F0010F18BFFB1AA6
:1001800043F0010300F001F8DBE71847B41E00005C
:10019000D41E0000103A24BF78C878C1FAD852079C
:1001A00024BF30C830C144BF04680C6070470000F1
:1001B000704700000023002400250026103A28BFC5
:1001C00078C1FBD8520728BF30C148BF0B607047C9
:1001D0001FB51FBD10B510BD00F031F81146FFF777
:1001E000F7FF01F001FE00F04FF803B4FFF7F2FF54
:1001F00003BC00F057F80000094880470948004751
:10020000FEE7FEE7FEE7FEE7FEE7FEE7FEE7FEE7C6
:10021000FEE7FEE704480549054A064B7047000023
:10022000951D000831010008300100203007002032
:100230003003002030030020704770477047754638
:1002400000F02CF8AE4605006946534620F0070042
:10025000854618B020B5FFF7DDFFBDE820404FF020
:1002600000064FF000074FF000084FF0000BAC46BF
:10027000ACE8C009ACE8C009ACE8C009ACE8C0090A
:1002800021F007018D46704710B50446AFF300809A
:100290002046BDE81040FFF7A8BF000000487047A7
:1002A0001000002001491820ABBEFEE72600020026
:1002B000704700000146406A826A12F0500F03D076
:1002C000006A026B084610470168826A42F40072B5
:1002D0008262896801F46021B1F5602F01D1017B50
:1002E00011B100F0D1B800BF816A21F48071816240
:1002F000816AC90448BF00F0C7B8816A41F00101B2
:10030000816200F0C1B80000406A816A41F040019A
:100310008162C16A41F00401C16200F0CFB80000FF
:10032000406A00F0C9B80000FEE7000040F2E400B7
:10033000C2F2000000F098BA70470000EFF310809E
:1003400072B600BFFEE7000070B581B000220092D7
:1003500090F82420012A03D10221084601B070BD83
:100360004A680123062A02EB820E80F8243007D85F
:10037000D0F800C06FF004030CF134060CE000BFAD
:10038000D0F800C00C2A87BF0CF12C066FF0400398
:100390000CF130066FF022030EEB03021F233468CA
:1003A00003FA02F50B6824EA050503FA02F22A4370
:1003B0003260092B03EB43021AD9DCF80C601E3AB9
:1003C000072589689540AE43914023F001023143EF
:1003D000102ACCF80C1015D142F20041C4F20101F0
:1003E0008C4517D0816A41F02001816201210AE029
:1003F000DCF81030072689689640B34391401943D2
:10040000CCF810100021002280F82420084601B00A
:1004100070BD00BF89680902F4D4DCF80810102B05
:1004200041F40001CCF80810ECD140F20801C2F20E
:10043000000109684DF68362C4F21B32A1FB02126F
:10044000910C01EB81014900009100990029D9D05C
:1004500000990139009100990029D3D00099013900
:10046000009100990029CDD000990139009100999F
:100470000029C7D0009901390091009900294FF057
:100480000001E5D1BFE70000006842F20041C4F27C
:100490000101884218BF704740F27000C2F20000AC
:1004A000018843884FF4FA7251435A43406B090B59
:1004B000120B416382637047704700007047000071
:1004C000002804BF01207047B0B50446806A28B1F7
:1004D00020688168C9070CD03CE000BF0020E062C2
:1004E00084F82400204600F099F820688168C90744
:1004F00030D1A16AC90647D4A16A41F202129143E0
:100500000231A162E36980F0804181F49E3183F47D
:1005100040221143D4E9011208BF4FF4002343EAFB
:10052000010C531EB3FA83F35D091346B2F5807FC5
:1005300018BF2B02217D257B01294CEA45012ED1D4
:1005400045B3A56A45F02005A562E56A45F00105B9
:10055000E56224E0816821F00101816000F05AFC2D
:10056000054600BF20688168C907C2D000F052FC70
:10057000401B0328F6D3A06A40F01000A062E06A96
:1005800040F00100E062A06AA06A40F01000A062A2
:100590000120B0BDA56903EB4533A3F5C053456801
:1005A000B2F5807F25F4694543EA0503436083681B
:1005B0004FF2FD75CFF6E17503EA050343EA010347
:1005C000836001D0012A07D122690023CFF6F0739E
:1005D00003EB025201E000BF0022C36A23F4700360
:1005E0001A43C262806840F6FE62CFF61F72104066
:1005F000884207D10020E062A16A012262F3010172
:10060000A162B0BDA06A40F0100020F00200A0621C
:10061000E06A40F00100E0620120B0BD70B586B034
:10062000044640F60000C4F20100216800F5E052E3
:10063000002691420596CDE90366029602D006B0E7
:1006400070BD00BF41F21801C4F202010A6842F411
:1006500000720A600A6802F400720192019A0A6844
:1006600042F004020A60096801F004010191019955
:100670000321CDE9021102A900F0D8FA40F2E40505
:100680000820C2F20005C4F202004FF48072C5E9EE
:10069000000605F1100080214FF480634FF0200C1C
:1006A00080E80C102846C5E90261EE6100F028FAE6
:1006B000002818BFFFF742FE25626C6206B070BDCD
:1006C000F0B581B00446036842F60000C4F20100B0
:1006D000834205D042F20040C4F2010083420BD1B4
:1006E00042F20440C4F20100006810F4702F03D0FD
:1006F000012001B0F0BD00BF94F82400012803D10F
:10070000022001B0F0BD00BF012084F824000020C9
:10071000009098680E461546C00743D198684DF67C
:10072000836140F00100986040F20800C2F20000CE
:100730000068C4F21B31A0FB0101880C00900098F6
:10074000A8B100BF009801380090009878B10098D7
:1007500001380090009850B100980138009000983E
:1007600028B100980138009000980028EAD100F0E4
:1007700051FB074623689868C00713D100F04AFB75
:10078000C01B0228F6D9A06A40F01000A062E06AFF
:1007900040F00100E062002084F82400012001B054
:1007A000F0BD00BF42F20440A16AC4F2010040F66D
:1007B0000172914300F57F7201F580719342A1624D
:1007C00046D0A06A20F48010A0625868400504D585
:1007D000A06A012161F30D30A062A16A0020C90462
:1007E0004FF0000144BFE16A21F00601E16284F8A4
:1007F0002400206A40F2B521C0F6000140F2213207
:1008000040F2093700F1280CC0F60002C0F60007DC
:100810008CE886006FF0020119609968324641F455
:100820008071996003F14C012B4600F0AFF920680C
:10083000816801F460228168B2F5602F0CBF41F439
:10084000A00141F480118160002001B0F0BD00BF23
:10085000016811F4702FB4D0A16A41F48011A16233
:1008600000684005B4D4B8E710B5D0E90FE3D0F87C
:1008700000C0DEF80020DCF80010DA4054072DD567
:1008800011F004042AD0DCF80010890605D4DCF845
:10089000001021F00401CCF800100422C4F202027E
:1008A00002F17C018C4569D940F20841C4F2020191
:1008B0008C4500F0B78040F21C41C4F202018C4527
:1008C00000F0A88040F23041C4F202018C4540F0B3
:1008D000AD804FF48061C2F80014F7E0940731D581
:1008E00011F002042ED0DCF80010890608D4DCF8E0
:1008F000001021F00A01CCF80010012180F821102D
:100900000422C4F2020202F17C018C454CD940F26F
:100910000841C4F202018C4500F0BE8040F21C4147
:10092000C4F202018C4500F0AD8040F23041C4F2C7
:1009300002018C4540F0BC804FF40071C2F80014F5
:10094000D6E000BF120740F1D98011F0080108BFBE
:1009500010BDDCF8001021F00E01CCF800100121D0
:1009600001FA03F2CEF804208163016B4FF4807228
:100970000029028440F0AC80C0E000BF4321C4F2F3
:1009800002018C4526DD6B21C4F202018C4533DC6B
:100990004421C4F202018C4500F082805821C4F247
:1009A00002018C453AE000BF4321C4F202018C45AC
:1009B00048DD6B21C4F202018C4555DC4421C4F2B0
:1009C00002018C4500F08A805821C4F202018C4556
:1009D0005EE000BF0821C4F202018C4556D01C2104
:1009E000C4F202018C456FD03021C4F202018C4563
:1009F00014D14FF4806168E06C21C4F202018C458F
:100A000052D08021C4F202018C4507D14FF08061A1
:100A10005BE000BF4021C2F8001457E04FF4802192
:100A200053E000BF0421C2F800144FE002F58863D0
:100A30004FF480219C4508BF4FF48041C2F8001458
:100A400044E000BF0821C4F202018C4544D01C21BF
:100A5000C4F202018C4549D03021C4F202018C4518
:100A600016D14FF4007142E06C21C4F202018C45B2
:100A700038D08021C4F202018C4509D14FF00071B9
:100A800035E000BF2021C2F8001431E004211CE051
:100A90004FF400312BE000BF0221C2F8001427E020
:100AA0004FF4804111E000BF4FF480010DE000BF22
:100AB00002F588634FF400319C4508BF4FF40051A4
:100AC000C2F8001414E000BF40211160C16AA9B14E
:100AD000BDE81040084700BF022108E04FF4005174
:100AE00005E000BF4FF4001101E000BF20211160BC
:100AF000816A0022002980F82020E9D110BD000081
:100B0000002804BF012070472DE9F04140F2000C9D
:100B1000C4F2020C01684FF6F8320CF58163CBF693
:100B2000FD72994238BF02F580624CF6CD430A440B
:100B3000CCF6CC43A2FB03236FF003040CF58062D8
:100B400004EA9303D0E9017ED0F80C803CBF002278
:100B5000C4F20202C0E90F230A6843F6F0739A4315
:100B600000F110063A4378CE42EA0E0242EA080249
:100B70001A4322432A4332430A6000214FF4807211
:100B800081630284BDE8F0410846704790F820C0B8
:100B9000BCF1010F04BF02207047F0B590F821C0EE
:100BA0004FF0010EBCF1010F80F820E026D14FF08C
:100BB000020C80F821C04FF0000CC0F838C0D0E91A
:100BC00000C4C56AC66BDCF80070102C27F0010762
:100BD000CCF80070006C0EFA00F070600846CCF89B
:100BE000043004BF10460A46CCF80800CCF80C20AC
:100BF000DCF8000045B140F00E000DE0002180F867
:100C000020100220F0BD00BF20F00400CCF800004E
:100C1000DCF8000040F00A00CCF80000DCF800002E
:100C200040F00100CCF800000020F0BD2DE9F04FAD
:100C300082B00E68002E00F0E980A0F1804241F6FB
:100C4000004540F20043A2F58432C4F201050624B7
:100C5000C4F201034FEAB227A84208BF05244FF0AF
:100C6000000E4FF001080F254FF0000A4FF0000B67
:100C7000052F38BF4FEAB224009408E00E680AF14D
:100C8000010A36FA0AF20EF1040E00F0BF8008FAEB
:100C90000AFC16EA0C09F1D04E684FF6FF72C1F259
:100CA0001002964212DC122E56D8DFE806F0350B01
:100CB0004D49555555555555555555555555554508
:100CC000510000BFD1F80CB046E000BF4FF6FF72F4
:100CD000C1F2210296420FDC0022C1F211029642BB
:100CE0001AD00022C1F21202964215D00022C1F29F
:100CF0002102964210D02FE00022C1F22202964239
:100D00000AD00022C1F23102964205D00022C1F27F
:100D10003202964220D100BF8A684AB1012A14BF2C
:100D2000C0F814C0C0F810C04FF0080B14E000BFAA
:100D30004FF0040B10E000BFCA6802F1040B0BE097
:100D40004FF0000B08E000BFCA6802F1080B03E097
:100D5000CA6802F10C0B00BF02467446B9F5807FE9
:100D600024BF0432203C166805FA04F726EA070778
:100D70000BFA04F637431760CA79D2067FF57EAFC7
:100D800041F21807C4F202073A684FF6084542F0EC
:100D900001023A603A68CFF6FF7502F00102019253
:100DA000019A2AF003021A440F2457590EF00C0638
:100DB000B440A743009C04FA06F6374357514E68E7
:100DC0000F25F2031A6854BF22EA090242EA090217
:100DD0001A605A68B70354BF22EA090242EA0902BC
:100DE0005A60F7029A6854BF22EA090242EA0902ED
:100DF000B70240F20C479A60C4F201073A6854BF48
:100E000022EA090242EA09023A6037E702B0BDE885
:100E1000F08F000040F22810C2F200000068704716
:100E200040F2000040F22811C2F20000C2F20001BC
:100E300000780A68104408607047000080B542F2EC
:100E40000000C4F20200016841F0100101600320BB
:100E500000F08CF80F2000F005F800F027F80020D3
:100E600080BD000070B540F20006C2F2000640F2FC
:100E700008013278C2F200014FF47A730968B3FBBB
:100E8000F2F20446B1FBF2F1084600F0DFFB0F2C52
:100E90004FF0010508D838B94FF0FF302146002245
:100EA000002500F037F87460284670BD82B041F22A
:100EB0001800C4F202000168022241F00101016041
:100EC000016801F0010101910199416841F08051EF
:100ED0004160406800F08050009000980420C4F207
:100EE0000100016862F31A61016002B070470000FE
:100EF000002848BF704700F01F01012202FA01F1EB
:100F00001C2202EAD0004EF20012CEF20002815002
:100F10007047000010B54EF60C5CCEF2000CDCF809
:100F20000030C3F3022E8EF00704042C28BF0424E3
:100F3000BEF103034FF0FF3E0EFA04F438BF002366
:100F4000A14399400EFA03F39A43114300F00F02B4
:100F500000F160430901043A03F564436244002848
:100F600048BF02F10C03197010BD00004EF60C5181
:100F7000CEF200010A684FF6FF031A4060F30A221E
:100F800042F0806040F0FD70086070472DE9F0414C
:100F900082B00446007841F21C06C007C4F2020683
:100FA0004AD030685FEAC00808D4306840F080500A
:100FB0003060306800F080500190019847F20007DF
:100FC000C4F200073868C00512D4386840F4807055
:100FD0003860FFF71FFF05463868C00508D4FFF7E3
:100FE00019FF401B6428F7D9032002B0BDE8F08147
:100FF000706810F4407012D0616801F4407188424A
:101000000DD0706840F24042C4F24222012320F425
:10101000407113600023C0071360716026D17068AF
:10102000616820F440700843B8F1000F706003D489
:10103000306820F0805030602068810707D556F86E
:10104000181CA26821F44041114346F8181CC00640
:1010500007D556F8180C616920F48000084346F85B
:10106000180C002002B0BDE8F08100BFFFF7D2FEEF
:10107000054641F2883700BF70688007CFD4FFF77C
:10108000C9FE401BB8424FF00300F5D9EAE7000063
:10109000002804BF012070472DE9F04381B042F2DF
:1010A0000008C4F202080446D8F800000D4600F01B
:1010B000070081420CD9D8F8000020F0070028432F
:1010C000C8F80000D8F8000000F00700A8426CD172
:1010D000206841F204098107C4F2020917D54107CB
:1010E00005D5D9F8001041F4E061C9F800100107F6
:1010F00005D5D9F8001041F46051C9F80010D9F8AD
:101100000010A26821F0F0011143C9F80010C007D7
:1011100042D1D8F8000000F0070085420CD2D8F880
:10112000000020F007002843C8F80000D8F80000AD
:1011300000F00700A84238D12068410707D5D9F848
:101140000010E26821F4E0611143C9F800100007C3
:1011500008D5D9F80000216920F4605040EAC100A8
:10116000C9F80000D9F8002002F00C00082841F26C
:101170000020C0F27A004DD142F23003C2F3834125
:10118000C0F60003595CD20338D440F60010C0F218
:101190003D0048433EE000BF606859F8041C022847
:1011A00008D0012826D1890306D4012001B0BDE86A
:1011B000F08300BF8901F8D5D9F8001021F00301B0
:1011C0000843C9F80000FFF725FE064641F28837BC
:1011D000D9F80000616800F00C00B0EB810F98D0E6
:1011E000FFF718FE801BB842F2D9032001B0BDE81A
:1011F000F08300BF8907D8D5DEE700BFD9F800200B
:1012000042F21E03C2F34042C0F600039A5C484318
:10121000B0FBF2F0D9F8001042F22002C1F3031142
:10122000C0F60002515C40F2080220FA01F140F2DF
:101230000400C2F200000068C2F200021160FFF771
:1012400011FE002001B0BDE8F0830000002804BFBB
:10125000012070472DE9F04182B00446007841F248
:101260000006C007C4F202060CD0706800F00C0043
:10127000042840F081803068800303D5606800282E
:1012800000F04681207880071BD5706810F00C0FA5
:1012900009D0706800F00C00082840F08780706862
:1012A000C00300F183803068800703D520690128DE
:1012B00040F02E813068616920F0F80040EAC100FA
:1012C00030602078000713D4207840072CD4E569DB
:1012D000002D00F01881706800F00C00082840F024
:1012E000A780012D40F00481012002B0BDE8F0810B
:1012F000A069002800F084800020C4F2422001216F
:10130000C0F88014FFF786FD054600BF706A8007AD
:1013100000F1B280FFF77EFD401B0228F6D90320C2
:1013200002B0BDE8F08100BFF0695FEAC00808D4F0
:10133000F06940F08050F061F06900F0805000905A
:10134000009847F20007C4F200073868C00549D486
:10135000386840F480703860FFF75CFD054600BFD8
:101360003868C0053ED4FFF755FD401B6428F7D907
:10137000032002B0BDE8F081706800F00C0008287E
:1013800003D17068C0033FF576AF6168306800290B
:1013900000F00C81B1F5A02F00F00081B1F5803F85
:1013A00040F01A8140F480301CE100BF2069002821
:1013B00040F20000C4F2422000F088800121016068
:1013C000FFF728FD054600BF306880073FF572AF84
:1013D000FFF720FD401B0228F6D9032002B0BDE82C
:1013E000F08100BFE168306A002900F09D80052986
:1013F00000F09280012940F0AF8040F00100B1E0A0
:101400000020C4F242200021C0F88014FFF702FD42
:10141000054600BF706A80077FF556AFFFF7FAFCFC
:10142000401B0228F6D9032002B0BDE8F08100BFBE
:101430000027C4F2422700203866FFF7EBFC022D9C
:1014400005460DD13068800140F1DE80FFF7E2FCF7
:10145000401B02284FF00300F4D902B0BDE8F08130
:10146000306880014FD5FFF7D5FC401B02284FF0B4
:101470000300F5D9F1E700BF40F20800C2F2000016
:10148000006844F6D351C1F26201A0FB0101480A91
:10149000019000BF00BF0198411E002801913FF458
:1014A00013AF00BF0198411E002801913FF40CAF1B
:1014B00000BF0198411E002801913FF405AF00BF15
:1014C0000198411E00280191E4D1FDE60021016050
:1014D000FFF7A0FC054600BF306880077FF5F1AE3E
:1014E000FFF798FC401B02284FF00300F4D9B4E743
:1014F0007068216A00F480328A4209D1616A00F47E
:101500007010884204D1002002B0BDE8F08100BF15
:10151000012002B0BDE8F08140F004003062306A82
:1015200040F001001EE000BF20F001003062306A90
:1015300020F004003062FFF76DFC054641F2883769
:10154000306A800720D5FFF765FC401BB8424FF09A
:101550000300F5D981E700BF20F001003062306A56
:1015600020F004003062FFF755FC054641F2883751
:10157000306A800708D4FFF74DFC401BB842F7D90A
:10158000032002B0BDE8F081B8F1000F3FF59FAE37
:10159000F06920F08050F06199E600BF40F48020AF
:1015A0003060306840F480301CE000BF20F48030B0
:1015B0003060306820F480203060FFF72BFC054657
:1015C000306880037FF55EAEFFF724FC401B642883
:1015D0004FF00300F4D940E720F4803030603068E9
:1015E00020F480203060FFF715FC0546306880034A
:1015F0003FF548AEFFF70EFC401B6428F6D90320E8
:1016000002B0BDE8F08100BF206AB0F5803F05D18F
:101610007168A26821F40031114371607168626AD7
:1016200021F4741111430843706001203866FFF7FC
:10163000F1FB0446306880013FF565AFFFF7EAFB38
:10164000001B02284FF00300F4D906E7411E0020DA
:10165000B0EB116F1CBF012070474EF21002CEF2AA
:10166000000251604EF62351CEF20001F0230B70C0
:10167000072190601160704790F83C20012A4FF0DC
:10168000020219D080B580F83D2002685368D2F874
:1016900008C091E8024023F0700319432CF0800346
:1016A00043EA0E03516093600121002280F83D104F
:1016B00080F83C20BDE8804010467047002804BFF9
:1016C0000120704710B590F83D1031B9002180F825
:1016D0003C10044600F070F82046022180F83D10CE
:1016E000016840F6FF320B68C4F2000240F6004E7B
:1016F00043F2004C9142C4F2000EC4F2010C21DC12
:10170000B1F1804F28D040F20044C4F20004A1425D
:1017100022D040F60004C4F20004A1421CD0914241
:1017200020DCB1F1804F27D040F20042C4F2000229
:10173000914221D040F60002C4F2000291421BD037
:101740001EE000BF714507D0614505D042F6004458
:10175000C4F20104A142E2D1846823F07003234360
:101760009142DEDD714507D0614505D042F6004269
:10177000C4F20102914203D1026923F4407313437E
:10178000846923F08002D0F804E0C36822436145F5
:101790000A60CB62C1F828E005D042F60042C4F2EC
:1017A0000102914201D142690A6301224A6180F833
:1017B0003D20002010BD0000006840F20041C4F24E
:1017C0000001884218BF704781B041F21C00C4F28A
:1017D0000200016841F002010160006800F00200AF
:1017E0000090009801B0704790F83C20012A4FF01B
:1017F000020248D080B580F83D20D0F800C04FF6F6
:101800007772DCF8083023EA0202CCF808200B6873
:101810003F2B1DDD5F2B39DD602B5BD0B3F5005F07
:1018200000F09880702B26D1D1E901E3C968DCF87B
:10183000082043EA0E0322F47F4243EA01211143C8
:10184000CCF80810DCF8081041F0770111E000BF77
:101850001F2B03DC33B1102B04D00CE0202B01D064
:10186000302B08D1DCF8081021F07001194341F049
:101870000701CCF808100121002280F83D1080F803
:101880003C20BDE880401046704700BF402B41D04F
:10189000502BF0D1D1F804E0C968DCF82030DCF836
:1018A000202022F00102CCF82020DCF8182022F0C1
:1018B000F00242EA011123F00A0242EA0E02CCF8D9
:1018C0001810CCF82020DCF8081041F0570121F066
:1018D0002001CEE7D1F804E0C968DCF8203023F01D
:1018E0001003CCF82030DCF81830DCF8202023F48A
:1018F000704322F0A00243EA013142EA0E12CCF812
:101900001810CCF82020DCF8081041F0670121F015
:101910001001AEE7D1F804E0C968DCF82030DCF84B
:10192000202022F00102CCF82020DCF8182022F040
:10193000F00242EA011123F00A0242EA0E02CCF858
:101940001810CCF82020DCF8081041F0470121F0F5
:1019500030018EE7D1E901E3C968DCF8082043EAE9
:101960000E0322F47F4243EA01211143CCF8081010
:10197000DCF8081041F480417BE7000080B586B0B8
:10198000016840F20040C4F2000081424FF00001C3
:10199000CDE90411CDE9021102D006B080BD00BF2F
:1019A00041F21801C4F202010A6800F5823042F0E7
:1019B00004020A60096801F0040101910199C02143
:1019C000029102210391059102A9FFF72FF906B0B8
:1019D00080BD000090F83C30012B4FF0020300F076
:1019E00023814FEAB202032A80F83D3000F21681CB
:1019F0002DE9F041DFE802F002C64690036843F2A9
:101A000000461A6AC4F2010622F001021A621D6A37
:101A10001A465C6852F818CF8F68D1F800E025F0BC
:101A20000205B34245EA070505D042F60047C4F275
:101A30000107BB4205D1CF6825F00C0527F004074C
:101A40003D43B34205D042F60046C4F20106B3421C
:101A500005D1D1E9056724F4407434433C432CF0AC
:101A6000730747EA0E075C609F614F6809695F630F
:101A70001D629F6947F008079F619F6927F004076F
:101A80009F61C6E0036843F200461A6AC4F2010689
:101A900022F480721A621D6A1A46D3F804C052F802
:101AA0001CEF8F68D1F8008025F40075B34245EA39
:101AB000072505D042F60047C4F20107BB4208D112
:101AC000CF6840F2FF443F0225F4406527EA040452
:101AD0002543B34205D042F60044C4F20104A342B8
:101AE00006D1D1E905462CF44057264347EA061CA7
:101AF0002EF0730747EA0807C3F804C0DF614F6898
:101B00000969DF631D62DF6947F00807DF61DF698C
:101B100027F00407DF617CE0036843F200471A6A9C
:101B2000C4F2010722F480521A621A46D3F820C088
:101B30005D6852F81C4FD1F800E08E68BB4205D0BA
:101B400042F60047C4F20107BB4204D14F6925F4B5
:101B5000804545EA87152CF4005747EA063724F4F8
:101B6000E64646EA0E265D60DE614E6809691E643F
:101B70001F62DF6947F40067DF61DF6927F4806770
:101B8000DF6145E0036843F200481A6AC4F20108C5
:101B900022F010021A621D6A1A465C6852F818CFC9
:101BA0008F68D1F800E025F02005434545EA071588
:101BB00005D042F60047C4F20107BB4207D1CF6807
:101BC0006FF0400625F0C00506EA07163543434589
:101BD00005D042F60046C4F20106B34206D1D1E96F
:101BE000056724F440643E4344EA86042CF4E64747
:101BF00047EA0E275C609F614F6809699F631D6219
:101C00009F6947F400679F619F6927F480679F6120
:101C10000902136819431160BDE8F0410121002356
:101C200080F83D1080F83C3018467047002804BF0B
:101C30000120704710B590F83D1031B9002180F8AF
:101C40003C10044600F070F82046022180F83D1058
:101C5000016840F6FF320B68C4F2000240F6004E05
:101C600043F2004C9142C4F2000EC4F2010C21DC9C
:101C7000B1F1804F28D040F20044C4F20004A142E8
:101C800022D040F60004C4F20004A1421CD09142CC
:101C900020DCB1F1804F27D040F20042C4F20002B4
:101CA000914221D040F60002C4F2000291421BD0C2
:101CB0001EE000BF714507D0614505D042F60044E3
:101CC000C4F20104A142E2D1846823F070032343EB
:101CD0009142DEDD714507D0614505D042F60042F4
:101CE000C4F20102914203D1026923F44073134309
:101CF000846923F08002D0F804E0C3682243614580
:101D00000A60CB62C1F828E005D042F60042C4F276
:101D10000102914201D142690A6301224A6180F8BD
:101D20003D20002010BD000070470000006801F059
:101D30001F010122036A02FA01F123EA0102026291
:101D4000026A114343F20042C4F20102904201626E
:101D500005D042F60041C4F20101884203D1416C32
:101D600041F400414164816801F00701062903D074
:101D7000016841F00101016000207047FEE70000AA
:101D8000FEE70000FEE7000070470000704700001B
:101D9000FFF746B841F20000C4F2020001680022D9
:101DA00041F0010101604168CFF6FF02114041603E
:101DB00001684FF6FF72CFF6F662114001600168CC
:101DC00021F480210160416821F4FE0141604FF45B
:101DD0001F0181604EF60850CEF200004FF0006106
:101DE00001607047FEE7000096B0FFF727F8002477
:101DF0000120CDE91144CDE90F440C9010904FF42F
:101E0000E0104FF48031022515900CA80594CDE91F
:101E10000344CDE90144CDE90D14CDE91351FFF799
:101E200015FA28B1EFF3108072B600BFFEE700BFCD
:101E30000F20CDE906054FF48060CDE9090406A81E
:101E400002210894FFF724F920B1EFF3108072B655
:101E5000FEE700BF4FF4004002250290684600955F
:101E6000FFF794F820B1EFF3108072B6FEE700BFE1
:101E700041F21800C4F20200016840F2004641F04D
:101E8000200101600168002201F020010C910C99F1
:101E90000168C4F2000641F00401016001680027F6
:101EA00001F004010C910C9950F8041C41F001015F
:101EB00040F8041C50F8040C002100F001000C90C4
:101EC0000C980B20FFF726F80B20FFF711F840F2D3
:101ED0007008C2F2000806F59031404640F8041F31
:101EE0004FF4807101244FF4602204730775C261BE
:101EF000C0E901710561FEF7E3FA28B1EFF3108044
:101F000072B600BFFEE700BF072008F104050E907F
:101F10000CA92846CDE90C74FEF716FA20B1EFF3B0
:101F2000108072B6FEE700BF01200C9002200D90D9
:101F30000CA92846FEF708FA20B1EFF3108072B61C
:101F4000FEE700BF4046002140F8346F472240F2D0
:101F5000F3130391CDE90111CDE90611CDE911117A
:101F6000CDE90F11C0E90121C0E903318161FFF71B
:101F7000A5FB28B1EFF3108072B600BFFEE700BFEB
:101F80004FF4805008F13406009069463046FFF760
:101F90002BFC28B1EFF3108072B600BFFEE700BF44
:101FA0003046FFF743FE28B1EFF3108072B600BF52
:101FB000FEE700BF06A93046FFF75EFB20B1EFF356
:101FC000108072B6FEE700BF60200C900020CDE9C3
:101FD0000D0010900CA930460022FFF7FBFC18B151
:101FE000EFF3108072B6FEE70CA930460422FFF72B
:101FF000F1FC18B1EFF3108072B6FEE73046FFF740
:10200000BDFC284641460222FEF75AFB304600211D
:10201000FFF78CFE30460421FFF788FEFEE7010241
:102020000000000000000000010203040607080988
:1020300002030405060708090A0B0C0D0E0F101009
:10204000602000080000002010000000940100083B
:10205000702000081000002020070000B4010008D4
:1020600001000000100000000024F4000000000047
:0400000508000131BD
:00000001FF
