:020000040800F2
:1000000008070020F901000801170008F916000888
:10001000FD16000841030008051800080000000054
:1000200000000000000000000000000009170008A8
:100030005103000800000000051700080D17000814
:10004000130200081302000813020008130200083C
:10005000130200081302000813020008130200082C
:10006000130200081302000813020008130200081C
:1000700013020008130200084503000813020008D9
:1000800013020008130200081302000813020008FC
:1000900013020008130200081302000813020008EC
:1000A00013020008130200081302000813020008DC
:1000B00013020008130200081302000813020008CC
:1000C00013020008130200081302000813020008BC
:1000D00013020008F91700081302000813020008B1
:1000E000130200081302000813020008130200089C
:1000F000130200081302000813020008130200088C
:10010000130200081302000813020008130200087B
:10011000130200081302000813020008130200086B
:10012000130200081302000813020008130200085B
:1001300000F002F800F050F814A696E8000CB24463
:10014000B344DA4501D100F047F8BAE80F000FA632
:1001500096E83000A5EB040504EB0607AAEB0704BC
:10016000A7F101074FEA15154FEA3414A4F1010471
:10017000AC4201D300F030F813F0010F18BFFB1AA6
:1001800043F0010300F001F8DBE71847C419000051
:10019000E4190000103A24BF78C878C1FAD8520791
:1001A00024BF30C830C144BF04680C6070470000F1
:1001B000704700000023002400250026103A28BFC5
:1001C00078C1FBD8520728BF30C148BF0B607047C9
:1001D0001FB51FBD10B510BD00F077F81146FFF731
:1001E000F7FF01F011FB00F095F803B4FFF7F2FF01
:1001F00003BC00F09DF8000009488047094800470B
:10020000FEE7FEE7FEE7FEE7FEE7FEE7FEE7FEE7C6
:10021000FEE7FEE704480549054A064B7047000023
:10022000111700083101000808010020080700200C
:10023000080300200803002010B5431C02E010F85A
:10024000011B71B18107FAD14FF0013202C88C1A3B
:100250008C4314EAC211F9D0C01A0A0603D0C01E9A
:1002600010BDC01A10BD0A0401D0801E10BD0902C5
:10027000FCD0401E10BD4FF0000200B5134694465E
:100280009646203922BFA0E80C50A0E80C50B1F1EE
:100290002001BFF4F7AF090728BFA0E80C5048BF02
:1002A0000CC05DF804EB890028BF40F8042B08BFA0
:1002B000704748BF20F8022B11F0804F18BF00F89C
:1002C000012B7047704770477047754600F02CF857
:1002D000AE4605006946534620F00700854618B033
:1002E00020B5FFF797FFBDE820404FF000064FF024
:1002F00000074FF000084FF0000BAC46ACE8C00917
:10030000ACE8C009ACE8C009ACE8C00921F00701BD
:100310008D46704710B50446AFF300802046BDE817
:100320001040FFF762BF0000004870472000002027
:1003300001491820ABBEFEE726000200704700000E
:10034000FEE7000040F28000C2F2000000F09EB81C
:1003500070470000EFF3108072B600BFFEE70000A8
:1003600090F82110022927D1026840F2040C13688A
:10037000C4F2020C23F00E03136013680CF17C012D
:100380008A4223F0010111601AD940F20841C4F2F7
:1003900002018A4250D040F21C41C4F202018A425A
:1003A00042D040F23041C4F202018A4248D14FF4B7
:1003B0008073CCF800345CE0042181630120704735
:1003C0004321C4F202018A420EDD6B21C4F2020114
:1003D0008A421BDC4421C4F202018A423ED05821E9
:1003E000C4F202018A4223E00821C4F202018A42D7
:1003F00032D01C21C4F202018A4237D03021C4F22B
:1004000002018A4214D14FF4807230E06C21C4F2B0
:1004100002018A4226D08021C4F202018A4207D119
:100420004FF0807223E000BF1023CCF8003420E0AE
:100430004FF480321BE000BF0123CCF8003418E0F9
:100440000CF588614FF480338A4208BF4FF4805323
:10045000CCF800340DE000BF012208E04FF48052D8
:1004600005E000BF4FF4801201E000BF1022CCF87D
:100470000020416B4FF480720029028404BF0020E9
:10048000704780B58847002080BD000010B5D0E9D6
:100490000FE3D0F800C0DEF80020DCF80010DA40EE
:1004A00054072DD511F004042AD0DCF80010890679
:1004B00005D4DCF8001021F00401CCF8001004226F
:1004C000C4F2020202F17C018C4569D940F2084174
:1004D000C4F202018C4500F0B78040F21C41C4F226
:1004E00002018C4500F0A88040F23041C4F20201C4
:1004F0008C4540F0AD804FF48061C2F80014F7E005
:10050000940731D511F002042ED0DCF800108906D2
:1005100008D4DCF8001021F00A01CCF80010012109
:1005200080F821100422C4F2020202F17C018C4501
:100530004CD940F20841C4F202018C4500F0BE8063
:1005400040F21C41C4F202018C4500F0AD8040F243
:100550003041C4F202018C4540F0BC804FF4007180
:10056000C2F80014D6E000BF120740F1D98011F0A4
:10057000080108BF10BDDCF8001021F00E01CCF816
:100580000010012101FA03F2CEF804208163016B0F
:100590004FF480720029028440F0AC80C0E000BFBC
:1005A0004321C4F202018C4526DD6B21C4F2020115
:1005B0008C4533DC4421C4F202018C4500F082807A
:1005C0005821C4F202018C453AE000BF4321C4F235
:1005D00002018C4548DD6B21C4F202018C4555DCDB
:1005E0004421C4F202018C4500F08A805821C4F2F3
:1005F00002018C455EE000BF0821C4F202018C4577
:1006000056D01C21C4F202018C456FD03021C4F2B7
:1006100002018C4514D14FF4806168E06C21C4F272
:1006200002018C4552D08021C4F202018C4507D1D1
:100630004FF080615BE000BF4021C2F8001457E03A
:100640004FF4802153E000BF0421C2F800144FE0B2
:1006500002F588634FF480219C4508BF4FF4804128
:10066000C2F8001444E000BF0821C4F202018C4526
:1006700044D01C21C4F202018C4549D03021C4F27F
:1006800002018C4516D14FF4007142E06C21C4F296
:1006900002018C4538D08021C4F202018C4509D179
:1006A0004FF0007135E000BF2021C2F8001431E0A6
:1006B00004211CE04FF400312BE000BF0221C2F8FE
:1006C000001427E04FF4804111E000BF4FF4800197
:1006D0000DE000BF02F588634FF400319C4508BF70
:1006E0004FF40051C2F8001414E000BF4021116023
:1006F000C16AA9B1BDE81040084700BF022108E067
:100700004FF4005105E000BF4FF4001101E000BFBD
:1007100020211160816A0022002980F82020E9D17F
:1007200010BD0000002804BF012070472DE9F041F2
:1007300040F2000CC4F2020C01684FF6F8320CF5DE
:100740008163CBF6FD72994238BF02F580624CF6A8
:10075000CD430A44CCF6CC43A2FB03236FF0030441
:100760000CF5806204EA9303D0E9017ED0F80C8096
:100770003CBF0022C4F20202C0E90F230A6843F61C
:10078000F0739A4300F110063A4378CE42EA0E0223
:1007900042EA08021A4322432A4332430A600021F4
:1007A0004FF4807281630284BDE8F04108467047CF
:1007B00090F820C0BCF1010F04BF02207047F0B5D3
:1007C00090F821C04FF0010EBCF1010F80F820E03D
:1007D00026D14FF0020C80F821C04FF0000CC0F879
:1007E00038C0D0E900C4C56AC66BDCF80070102CB4
:1007F00027F00107CCF80070006C0EFA00F0706072
:100800000846CCF8043004BF10460A46CCF808006D
:10081000CCF80C20DCF8000045B140F00E000DE0F3
:10082000002180F820100220F0BD00BF20F004005D
:10083000CCF80000DCF8000040F00A00CCF8000022
:10084000DCF8000040F00100CCF800000020F0BD12
:10085000B0B5044600F004F9054640F21000C2F2BB
:1008600000000078611C18BF044400BF00F0F8F8D5
:10087000401BA042FAD3B0BD2DE9F04F82B00E6804
:10088000002E00F0E980A0F1804241F6004540F2E0
:100890000043A2F58432C4F201050624C4F2010328
:1008A0004FEAB227A84208BF05244FF0000E4FF0D0
:1008B00001080F254FF0000A4FF0000B052F38BF3D
:1008C0004FEAB224009408E00E680AF1010A36FAF1
:1008D0000AF20EF1040E00F0BF8008FA0AFC16EAD4
:1008E0000C09F1D04E684FF6FF72C1F21002964229
:1008F00012DC122E56D8DFE806F0350B4D4955555F
:10090000555555555555555555555545510000BFEB
:10091000D1F80CB046E000BF4FF6FF72C1F22102E1
:1009200096420FDC0022C1F2110296421AD0002238
:10093000C1F21202964215D00022C1F22102964263
:1009400010D02FE00022C1F2220296420AD00022EB
:10095000C1F23102964205D00022C1F23202964223
:1009600020D100BF8A684AB1012A14BFC0F814C060
:10097000C0F810C04FF0080B14E000BF4FF0040B9C
:1009800010E000BFCA6802F1040B0BE04FF0000B4F
:1009900008E000BFCA6802F1080B03E0CA6802F170
:1009A0000C0B00BF02467446B9F5807F24BF0432A9
:1009B000203C166805FA04F726EA07070BFA04F646
:1009C00037431760CA79D2067FF57EAF41F2180728
:1009D000C4F202073A684FF6084542F001023A6055
:1009E0003A68CFF6FF7502F001020192019A2AF0EF
:1009F00003021A440F2457590EF00C06B440A743C3
:100A0000009C04FA06F6374357514E680F25F2034F
:100A10001A6854BF22EA090242EA09021A605A68B7
:100A2000B70354BF22EA090242EA09025A60F702F8
:100A30009A6854BF22EA090242EA0902B70240F268
:100A40000C479A60C4F201073A6854BF22EA0902CF
:100A500042EA09023A6037E702B0BDE8F08F0000D1
:100A600040F20410C2F200000068704740F210002B
:100A700040F20411C2F20000C2F2000100780A68DC
:100A8000104408607047000080B542F20000C4F2D4
:100A90000200016841F010010160032000F08CF8B1
:100AA0000F2000F005F800F027F8002080BD0000BE
:100AB00070B540F21006C2F2000640F2180132781A
:100AC000C2F200014FF47A730968B3FBF2F20446F4
:100AD000B1FBF2F1084600F085FB0F2C4FF0010549
:100AE00008D838B94FF0FF3021460022002500F029
:100AF00037F87460284670BD82B041F21800C4F225
:100B000002000168022241F001010160016801F068
:100B1000010101910199416841F0805141604068B3
:100B200000F08050009000980420C4F20100016899
:100B300062F31A61016002B070470000002848BFEC
:100B4000704700F01F01012202FA01F11C2202EAA3
:100B5000D0004EF20012CEF2000281507047000029
:100B600010B54EF60C5CCEF2000CDCF80030C3F38E
:100B7000022E8EF00704042C28BF0424BEF10303C8
:100B80004FF0FF3E0EFA04F438BF0023A143994012
:100B90000EFA03F39A43114300F00F0200F1604391
:100BA0000901043A03F564436244002848BF02F196
:100BB0000C03197010BD00004EF60C51CEF200016E
:100BC0000A684FF6FF031A4060F30A2242F0806081
:100BD00040F0FD7008607047002804BF0120704796
:100BE0002DE9F04381B042F20008C4F20208044645
:100BF000D8F800000D4600F0070081420CD9D8F863
:100C0000000020F007002843C8F80000D8F80000D2
:100C100000F00700A8426CD1206841F20409810766
:100C2000C4F2020917D5410705D5D9F8001041F4DF
:100C3000E061C9F80010010705D5D9F8001041F4AA
:100C40006051C9F80010D9F80010A26821F0F00135
:100C50001143C9F80010C00742D1D8F8000000F0D5
:100C6000070085420CD2D8F8000020F00700284386
:100C7000C8F80000D8F8000000F00700A84238D1FA
:100C80002068410707D5D9F80010E26821F4E06137
:100C90001143C9F80010000708D5D9F800002169F0
:100CA00020F4605040EAC100C9F80000D9F80020E3
:100CB00002F00C00082841F20020C0F27A004DD169
:100CC00041F64033C2F38341C0F60003595CD203BE
:100CD00038D440F60010C0F23D0048433EE000BF6B
:100CE000606859F8041C022808D0012826D189031D
:100CF00006D4012001B0BDE8F08300BF8901F8D51A
:100D0000D9F8001021F003010843C9F80000FFF7EB
:100D1000A7FE064641F28837D9F80000616800F066
:100D20000C00B0EB810F98D0FFF79AFE801BB84201
:100D3000F2D9032001B0BDE8F08300BF8907D8D500
:100D4000DEE700BFD9F8002041F62633C2F3404267
:100D5000C0F600039A5C4843B0FBF2F0D9F80010EB
:100D600041F62832C1F30311C0F60002515C40F293
:100D7000180220FA01F140F21400C2F200000068EB
:100D8000C2F200021160FFF793FE002001B0BDE83F
:100D9000F083000040F2180041F20401C2F20000AA
:100DA000C4F202010068096841F63832C1F3022139
:100DB000C0F60002515CC8407047000040F21800C5
:100DC00041F20401C2F20000C4F2020100680968A5
:100DD00041F63832C1F3C221C0F60002515CC8406E
:100DE00070470000002804BF012070472DE9F04142
:100DF00082B00446007841F20006C007C4F2020641
:100E00000CD0706800F00C00042840F0818030683D
:100E1000800303D56068002800F0468120788007B1
:100E20001BD5706810F00C0F09D0706800F00C0032
:100E3000082840F087807068C00300F18380306824
:100E4000800703D52069012840F02E813068616950
:100E500020F0F80040EAC10030602078000713D489
:100E6000207840072CD4E569002D00F018817068C7
:100E700000F00C00082840F0A780012D40F004810C
:100E8000012002B0BDE8F081A069002800F0848054
:100E90000020C4F242200121C0F88014FFF7E0FDD9
:100EA000054600BF706A800700F1B280FFF7D8FDE9
:100EB000401B0228F6D9032002B0BDE8F08100BF34
:100EC000F0695FEAC00808D4F06940F08050F06132
:100ED000F06900F080500090009847F20007C4F2DB
:100EE00000073868C00549D4386840F4807038601D
:100EF000FFF7B6FD054600BF3868C0053ED4FFF7D2
:100F0000AFFD401B6428F7D9032002B0BDE8F08193
:100F1000706800F00C00082803D17068C0033FF52A
:100F200076AF61683068002900F00C81B1F5A02F20
:100F300000F00081B1F5803F40F01A8140F480302C
:100F40001CE100BF2069002840F20000C4F24220EA
:100F500000F0888001210160FFF782FD054600BF97
:100F6000306880073FF572AFFFF77AFD401B02281B
:100F7000F6D9032002B0BDE8F08100BFE168306A15
:100F8000002900F09D80052900F09280012940F0A1
:100F9000AF8040F00100B1E00020C4F24220002107
:100FA000C0F88014FFF75CFD054600BF706A80073B
:100FB0007FF556AFFFF754FD401B0228F6D90320FA
:100FC00002B0BDE8F08100BF0027C4F24227002034
:100FD0003866FFF745FD022D05460DD130688001CA
:100FE00040F1DE80FFF73CFD401B02284FF003007C
:100FF000F4D902B0BDE8F081306880014FD5FFF729
:101000002FFD401B02284FF00300F5D9F1E700BF88
:1010100040F21800C2F20000006844F6D351C1F259
:101020006201A0FB0101480A019000BF00BF0198C6
:10103000411E002801913FF413AF00BF0198411EEB
:10104000002801913FF40CAF00BF0198411E002819
:1010500001913FF405AF00BF0198411E00280191A6
:10106000E4D1FDE600210160FFF7FAFC054600BF70
:10107000306880077FF5F1AEFFF7F2FC401B0228D5
:101080004FF00300F4D9B4E77068216A00F48032AD
:101090008A4209D1616A00F47010884204D10020AC
:1010A00002B0BDE8F08100BF012002B0BDE8F081D0
:1010B00040F004003062306A40F001001EE000BFE2
:1010C00020F001003062306A20F004003062FFF747
:1010D000C7FC054641F28837306A800720D5FFF704
:1010E000BFFC401BB8424FF00300F5D981E700BFB9
:1010F00020F001003062306A20F004003062FFF717
:10110000AFFC054641F28837306A800708D4FFF704
:10111000A7FC401BB842F7D9032002B0BDE8F0811C
:10112000B8F1000F3FF59FAEF06920F08050F061FC
:1011300099E600BF40F480203060306840F4803091
:101140001CE000BF20F480303060306820F4802044
:101150003060FFF785FC0546306880037FF55EAEA2
:10116000FFF77EFC401B64284FF00300F4D940E7F2
:1011700020F480303060306820F480203060FFF749
:101180006FFC0546306880033FF548AEFFF768FC0A
:10119000401B6428F6D9032002B0BDE8F08100BFEF
:1011A000206AB0F5803F05D17168A26821F4003152
:1011B000114371607168626A21F47411114308432C
:1011C000706001203866FFF74BFC044630688001F0
:1011D0003FF565AFFFF744FC001B02284FF003000A
:1011E000F4D906E7411E0020B0EB116F1CBF0120AF
:1011F00070474EF21002CEF2000251604EF62351BB
:10120000CEF20001F0230B7007219060116070474F
:1012100070470000B0B501680A68CC684B6902F0FD
:101220002F05202D04F0200512D18DB190F83A2021
:10123000222A40F017818268B2F5805F3ED10369AF
:10124000826A4968002B61D0C9B222F8011B61E0B3
:101250005FEA027C1EBF03F0010E04F4907313EBEF
:101260000E0337D1130617D514F0800314D090F86D
:101270003920212A40F0F6808368026AB3F5805F46
:1012800030D113886FF35F234B600369002B14BFC9
:1012900001320232026229E0520640F1E38014F08A
:1012A000400208BFB0BDCA6822F04002CA602021D7
:1012B00080F83910BDE8B04000F00CBA0269496806
:1012C000002A826A18BF01F07F01531C83621170EB
:1012D00021E000BFD30718BF14F4807336D1530741
:1012E0003AD440E0531C036212784A60C28C013A3F
:1012F0001304C28440F0B680C86820F08000C86043
:10130000C86840F04000C860B0BD00BF6FF35F2107
:1013100022F8021B8262C18D01390A04C18540F0A6
:10132000A1800168CA6822F02002CA60CA6822F45B
:101330008072CA604A6922F001024A61202180F865
:101340003A10BDE8B04000F06BB900BFC36B43F08A
:101350000103C363530706D5BEF1000F03D0C36B6F
:1013600043F00203C363930706D5BEF1000F03D019
:10137000C36B43F00403C363BCF1000F06D5BEF199
:10138000000F03D0C36B43F00803C363C36B002B90
:1013900068D092063BD5D5B390F83A20222A36D1B0
:1013A0008268B2F5805F07D10369826A49687BB1C0
:1013B000C9B222F8011B0FE002694968002A826A5B
:1013C00018BF01F07F01531C8362117005E000BF5C
:1013D0006FF35F2122F8021B8262C18D4A1EC28513
:1013E0000168120413D1CA68044622F02002CA60C0
:1013F000CA6822F48072CA604A6922F001024A6116
:10140000202180F83A1000F00BF9216820464A6943
:10141000C36B02F0400203F00803D21824D0CA685C
:1014200022F49072CA604A6922F001024A612022C5
:1014300080F83A204A6952061CD54A6922F04002D7
:101440004A61416BB1B141F26172C0F600020446DB
:1014500008464A63FEF784FF20B1606B416BBDE82C
:10146000B0400847B0BD00BF0446FFF7D1FE0020E2
:10147000E063B0BDBDE8B040FFF7CABE002804BFBE
:101480000120704710B5044690F8390028B90020B3
:1014900084F83800204600F061F8242084F83900F0
:1014A0002068D4E90212C36823F40053C3600369BF
:1014B00023F440531A430261D4E904231143C26860
:1014C000194341F20C639A431143C1604169A26917
:1014D00021F44071114343F60002C4F2010290422C
:1014E000416103D0FFF756FC02E000BFFFF766FC46
:1014F000D4E90023192148439900B0FBF1F048F2E8
:101500001F5CC5F2EB1CA0FB0C314FF69C73490924
:10151000C0F6FF7301FB0300322303EB0010A0FBB6
:101520000C03F02000EA531000EB0110C3F3431149
:10153000084490601069202120F4904010615069A7
:1015400020F02A005061D06840F40050D0600020A4
:10155000E06384F8391084F83A1010BDF0B585B016
:1015600040F600050446C4F20105006805F5405147
:10157000002788420497CDE90277019702D005B091
:10158000F0BD00BF41F21800C4F20200016801AED4
:1015900041F480410160016801F4804100910099AB
:1015A000016841F0040101600068314600F0040068
:1015B000009000984FF400700190022002900320E8
:1015C00004902846FFF758F94FF48060CDE90107F1
:1015D000284631460397FFF74FF940F28005442033
:1015E000C2F20005C4F202001021802285E88300C7
:1015F0002846C5E90327C5E90577EF61FFF792F8AB
:10160000002818BFFEF7A6FE252000210022256332
:101610006C62FFF7A5FA2520FFF790FA05B0F0BD40
:101620007047000090F83930202B1CBF0220704713
:1016300070B5964600294FF0010218BFBEF1000FA9
:1016400004D1BDE870401046704700BF90F83820C4
:10165000012A05D10222BDE870401046704700BF44
:10166000012280F83820002221230162A0F824E022
:10167000A0F826E0C26380F839300368D0F830C0A3
:1016800041F2C974C0F6000441F2F17541F26D7681
:10169000C0F60005C0F60006CCF82840CCF834208F
:1016A0001A1D044660467346CCF82C50CCF83060C6
:1016B000FFF77EF8206800226FF04001016084F897
:1016C0003820416941F080014161BDE87040104619
:1016D00070470000006843F60001C4F2010188422F
:1016E00018BF704740F20000C2F2000001210170F3
:1016F0007047000070470000FEE70000FEE70000B2
:10170000FEE700007047000070470000FFF7AEB929
:1017100041F20000C4F202000168002241F0010120
:1017200001604168CFF6FF021140416001684FF649
:10173000FF72CFF6F66211400160016821F480214A
:101740000160416821F4FE0141604FF41F01816096
:101750004EF60850CEF200004FF000610160704775
:10176000406A0021C185C184FFF752BD406A01680B
:101770004A6990F83930212B0BD112F0800208D041
:101780000022C284CA6822F0C002CA60202280F807
:1017900039204A6990F83A30222B0FD112F04002DA
:1017A0000CD00022C285CA6822F49072CA604A69CD
:1017B00022F001024A61202180F83A10C16B41F009
:1017C0001001C163FFF724BD0168406A09688906FA
:1017D00048BFFFF77FBF0021C1840068416921F045
:1017E00080014161C16841F04001C1607047000063
:1017F000406AFFF77FBF000040F2C400C2F2000061
:10180000FFF708BDFEE7000090B0FFF73DF906AC1A
:10181000201D2421FEF72FFD0220069001200A90B2
:1018200010200B90002520460D95FFF7DBFA28B11C
:10183000EFF3108072B600BFFEE700BF0F20CDE9C6
:10184000010501A80021CDE903550595FFF7C4F96D
:1018500020B1EFF3108072B6FEE700BF41F218002E
:10186000C4F202000168002241F020010160016819
:10187000002601F0200106910699016841F004015B
:101880000160016801F004010691069950F8041CFA
:1018900041F0010140F8041C50F8040C002100F054
:1018A0000100069006980E20FFF75AF90E20FFF768
:1018B00045F940F2C40043F60001C2F20000C4F250
:1018C00001010C234FF4165280E84600C0E903667C
:1018D000C0E90536C661FFF7D1FD28B1EFF31080EE
:1018E00072B600BFFEE700BF4FF47A70FEF7B0FF9C
:1018F00040F20005C2F200052C4604F8016B2046B8
:10190000FEF79AFC82B240F2C400C2F20000214607
:10191000FFF788FE287830B9287820B9287810B9E0
:1019200028780028F6D0C820FEF792FF00202C4629
:1019300004F8010B2046FEF77FFC82B240F2C4009F
:10194000C2F200002146FFF76DFE00BF287830B9D3
:10195000287820B9287810B928780028F6D0C8202F
:10196000FEF776FF00202C4604F8010B2046FEF718
:1019700063FC82B240F2C400C2F200002146FFF7CD
:1019800051FE00BF287830B9287820B9287810B9DE
:1019900028780028F6D0C820FEF75AFF00202C46F1
:1019A00004F8010B2046FEF747FC82B240F2C40067
:1019B000C2F200002146FFF735FE00BF287830B99B
:1019C000287820B9287810B928780028F6D0C820BF
:1019D000FEF73EFF00202C4604F8010B2046FEF7E0
:1019E0002BFC82B240F2C400C2F200002146FFF795
:1019F00019FE00BF287830B9287820B9287810B9A6
:101A000028780028F6D0C820FEF722FF00202C46B8
:101A100004F8010B2046FEF70FFC82B240F2C4002E
:101A2000C2F200002146FFF7FDFD00BF287830B963
:101A3000287820B9287810B928780028F6D0C8204E
:101A4000FEF706FF00202C4604F8010B2046FEF7A7
:101A5000F3FB82B240F2C400C2F200002146FFF75D
:101A6000E1FD00BF287830B9287820B9287810B96E
:101A700028780028F6D0C820FEF7EAFE00202C4681
:101A800004F8010B2046FEF7D7FB82B240F2C400F7
:101A9000C2F200002146FFF7C5FD00BF287830B92B
:101AA000287820B9287810B928780028F6D0C820DE
:101AB000FEF7CEFE00202C4604F8010B2046FEF770
:101AC000BBFB82B240F2C400C2F200002146FFF725
:101AD000A9FD00BF287830B9287820B9287810B936
:101AE00028780028F6D0C820FEF7B2FE00202C4649
:101AF00004F8010B2046FEF79FFB82B240F2C400BF
:101B0000C2F200002146FFF78DFD00BF287830B9F2
:101B1000287820B9287810B928780028F6D0C8206D
:101B2000FEF796FEFEE70102000000000000000044
:101B30000102030406070809000000000102030473
:101B400002030405060708090A0B0C0D0E0F1010FE
:101B5000701B000800000020200000009401000815
:101B6000901B000820000020E8060000B4010008D7
:101B70000152657A61204E6164696D690A00000056
:101B800001000000100000000024F400000000002C
:0400000508000131BD
:00000001FF
