:020000040800F2
:10000000C8060020F9010008D50F0008CD0F000830
:10001000D10F00084103000835100008000000005F
:10002000000000000000000000000000DD0F0008DC
:100030004503000800000000D90F0008E10F000888
:10004000130200081302000813020008130200083C
:10005000130200081302000813020008130200082C
:10006000130200081302000813020008130200081C
:10007000130200081302000813020008130200080C
:1000800013020008130200081302000813020008FC
:1000900013020008130200081302000813020008EC
:1000A00013020008130200081302000813020008DC
:1000B00013020008130200081302000813020008CC
:1000C00013020008130200081302000813020008BC
:1000D00013020008130200081302000813020008AC
:1000E000130200081302000813020008130200089C
:1000F000130200081302000813020008130200088C
:10010000130200081302000813020008130200087B
:10011000130200081302000813020008130200086B
:10012000130200081302000813020008130200085B
:1001300000F002F800F050F814A696E8000CB24463
:10014000B344DA4501D100F047F8BAE80F000FA632
:1001500096E83000A5EB040504EB0607AAEB0704BC
:10016000A7F101074FEA15154FEA3414A4F1010471
:10017000AC4201D300F030F813F0010F18BFFB1AA6
:1001800043F0010300F001F8DBE71847AC10000072
:10019000CC100000103A24BF78C878C1FAD85207B2
:1001A00024BF30C830C144BF04680C6070470000F1
:1001B000704700000023002400250026103A28BFC5
:1001C00078C1FBD8520728BF30C148BF0B607047C9
:1001D0001FB51FBD10B510BD00F077F81146FFF731
:1001E000F7FF00F029FF00F095F803B4FFF7F2FFE6
:1001F00003BC00F09DF8000009488047094800470B
:10020000FEE7FEE7FEE7FEE7FEE7FEE7FEE7FEE7C6
:10021000FEE7FEE704480549054A064B7047000023
:10022000E50F000831010008C8000020C8060020C2
:10023000C8020020C802002010B5431C02E010F8DC
:10024000011B71B18107FAD14FF0013202C88C1A3B
:100250008C4314EAC211F9D0C01A0A0603D0C01E9A
:1002600010BDC01A10BD0A0401D0801E10BD0902C5
:10027000FCD0401E10BD4FF0000200B5134694465E
:100280009646203922BFA0E80C50A0E80C50B1F1EE
:100290002001BFF4F7AF090728BFA0E80C5048BF02
:1002A0000CC05DF804EB890028BF40F8042B08BFA0
:1002B000704748BF20F8022B11F0804F18BF00F89C
:1002C000012B7047704770477047754600F02CF857
:1002D000AE4605006946534620F00700854618B033
:1002E00020B5FFF797FFBDE820404FF000064FF024
:1002F00000074FF000084FF0000BAC46ACE8C00917
:10030000ACE8C009ACE8C009ACE8C00921F00701BD
:100310008D46704710B50446AFF300802046BDE817
:100320001040FFF762BF0000004870472000002027
:1003300001491820ABBEFEE726000200704700000E
:10034000FEE7000070470000B0B5044600F004F975
:10035000054640F20000C2F200000078611C18BFA0
:10036000044400BF00F0F8F8401BA042FAD3B0BD2F
:100370002DE9F04F82B00E68002E00F0E980A0F168
:10038000804241F6004540F20043A2F58432C4F2B7
:1003900001050624C4F201034FEAB227A84208BFB0
:1003A00005244FF0000E4FF001080F254FF0000A12
:1003B0004FF0000B052F38BF4FEAB224009408E03D
:1003C0000E680AF1010A36FA0AF20EF1040E00F084
:1003D000BF8008FA0AFC16EA0C09F1D04E684FF605
:1003E000FF72C1F21002964212DC122E56D8DFE8DC
:1003F00006F0350B4D4955555555555555555555DF
:1004000055555545510000BFD1F80CB046E000BF2E
:100410004FF6FF72C1F2210296420FDC0022C1F2B8
:10042000110296421AD00022C1F21202964215D051
:100430000022C1F22102964210D02FE00022C1F228
:10044000220296420AD00022C1F23102964205D021
:100450000022C1F23202964220D100BF8A684AB11E
:10046000012A14BFC0F814C0C0F810C04FF0080B28
:1004700014E000BF4FF0040B10E000BFCA6802F1A7
:10048000040B0BE04FF0000B08E000BFCA6802F15C
:10049000080B03E0CA6802F10C0B00BF0246744669
:1004A000B9F5807F24BF0432203C166805FA04F7B2
:1004B00026EA07070BFA04F637431760CA79D20613
:1004C0007FF57EAF41F21807C4F202073A684FF693
:1004D000084542F001023A603A68CFF6FF7502F033
:1004E00001020192019A2AF003021A440F2457597B
:1004F0000EF00C06B440A743009C04FA06F63743FE
:1005000057514E680F25F2031A6854BF22EA0902B8
:1005100042EA09021A605A68B70354BF22EA090284
:1005200042EA09025A60F7029A6854BF22EA0902B5
:1005300042EA0902B70240F20C479A60C4F201078E
:100540003A6854BF22EA090242EA09023A6037E7F0
:1005500002B0BDE8F08F000040F2C000C2F200001F
:100560000068704740F2000040F2C001C2F2000093
:10057000C2F2000100780A68104408607047000069
:1005800080B542F20000C4F20200016841F010019F
:100590000160032000F07AF80F2000F005F800F069
:1005A00027F8002080BD000070B540F20006C2F2BE
:1005B000000640F208013278C2F200014FF47A736B
:1005C0000968B3FBF2F20446B1FBF2F1084600F011
:1005D00073FB0F2C4FF0010508D838B94FF0FF30EE
:1005E00021460022002500F025F87460284670BDE1
:1005F00082B041F21800C4F202000168022241F008
:1006000001010160016801F0010101910199416856
:1006100041F080514160406800F0805000900098A7
:100620000420C4F20100016862F31A61016002B0A3
:100630007047000010B54EF60C5CCEF2000CDCF8F2
:100640000030C3F3022E8EF00704042C28BF0424CC
:10065000BEF103034FF0FF3E0EFA04F438BF00234F
:10066000A14399400EFA03F39A43114300F00F029D
:1006700000F160430901043A03F564436244002831
:1006800048BF02F10C03197010BD00004EF60C516A
:10069000CEF200010A684FF6FF031A4060F30A2207
:1006A00042F0806040F0FD7008607047002804BF91
:1006B000012070472DE9F04381B042F20008C4F2F6
:1006C00002080446D8F800000D4600F007008142F9
:1006D0000CD9D8F8000020F007002843C8F8000023
:1006E000D8F8000000F00700A8426CD1206841F261
:1006F00004098107C4F2020917D5410705D5D9F8C5
:10070000001041F4E061C9F80010010705D5D9F8DF
:10071000001041F46051C9F80010D9F80010A26827
:1007200021F0F0011143C9F80010C00742D1D8F8F8
:10073000000000F0070085420CD2D8F8000020F03D
:1007400007002843C8F80000D8F8000000F00700B0
:10075000A84238D12068410707D5D9F80010E268CF
:1007600021F4E0611143C9F80010000708D5D9F859
:100770000000216920F4605040EAC100C9F800007F
:10078000D9F8002002F00C00082841F20020C0F245
:100790007A004DD141F22823C2F38341C0F6000311
:1007A000595CD20338D440F60010C0F23D004843F3
:1007B0003EE000BF606859F8041C022808D00128F8
:1007C00026D1890306D4012001B0BDE8F08300BF23
:1007D0008901F8D5D9F8001021F003010843C9F8C0
:1007E0000000FFF7B9FE064641F28837D9F800004D
:1007F000616800F00C00B0EB810F98D0FFF7ACFE01
:10080000801BB842F2D9032001B0BDE8F08300BFDD
:100810008907D8D5DEE700BFD9F8002041F20E23C2
:10082000C2F34042C0F600039A5C4843B0FBF2F0CA
:10083000D9F8001041F21022C1F30311C0F60002F2
:10084000515C40F2080220FA01F140F20400C2F2C9
:1008500000000068C2F200021160FFF7A5FE002050
:1008600001B0BDE8F083000040F2080041F204014D
:10087000C2F20000C4F202010068096841F22022BD
:10088000C1F30221C0F60002515CC840704700006D
:1008900040F2080041F20401C2F20000C4F2020179
:1008A0000068096841F22022C1F3C221C0F60002AB
:1008B000515CC84070470000002804BF0120704709
:1008C0002DE9F04182B00446007841F20006C007ED
:1008D000C4F202060CD0706800F00C00042840F04E
:1008E00081803068800303D56068002800F046816D
:1008F000207880071BD5706810F00C0F09D0706845
:1009000000F00C00082840F087807068C00300F1F8
:1009100083803068800703D52069012840F02E814C
:100920003068616920F0F80040EAC100306020784A
:10093000000713D4207840072CD4E569002D00F07F
:100940001881706800F00C00082840F0A780012D85
:1009500040F00481012002B0BDE8F081A0690028C8
:1009600000F084800020C4F242200121C0F88014ED
:10097000FFF7F2FD054600BF706A800700F1B28004
:10098000FFF7EAFD401B0228F6D9032002B0BDE8BC
:10099000F08100BFF0695FEAC00808D4F06940F058
:1009A0008050F061F06900F080500090009847F2AC
:1009B0000007C4F200073868C00549D4386840F41D
:1009C00080703860FFF7C8FD054600BF3868C00575
:1009D0003ED4FFF7C1FD401B6428F7D9032002B0C5
:1009E000BDE8F081706800F00C00082803D1706841
:1009F000C0033FF576AF61683068002900F00C81D4
:100A0000B1F5A02F00F00081B1F5803F40F01A81D0
:100A100040F480301CE100BF2069002840F2000053
:100A2000C4F2422000F0888001210160FFF794FDAC
:100A3000054600BF306880073FF572AFFFF78CFDB9
:100A4000401B0228F6D9032002B0BDE8F08100BFA8
:100A5000E168306A002900F09D80052900F092804D
:100A6000012940F0AF8040F00100B1E00020C4F265
:100A700042200021C0F88014FFF76EFD054600BF3C
:100A8000706A80077FF556AFFFF766FD401B0228AE
:100A9000F6D9032002B0BDE8F08100BF0027C4F200
:100AA000422700203866FFF757FD022D05460DD17D
:100AB0003068800140F1DE80FFF74EFD401B0228C8
:100AC0004FF00300F4D902B0BDE8F0813068800136
:100AD0004FD5FFF741FD401B02284FF00300F5D929
:100AE000F1E700BF40F20800C2F20000006844F6DF
:100AF000D351C1F26201A0FB0101480A019000BF7D
:100B000000BF0198411E002801913FF413AF00BFC0
:100B10000198411E002801913FF40CAF00BF0198DD
:100B2000411E002801913FF405AF00BF0198411E0E
:100B300000280191E4D1FDE600210160FFF70CFDE2
:100B4000054600BF306880077FF5F1AEFFF704FD72
:100B5000401B02284FF00300F4D9B4E77068216A03
:100B600000F480328A4209D1616A00F47010884230
:100B700004D1002002B0BDE8F08100BF012002B026
:100B8000BDE8F08140F004003062306A40F00100BE
:100B90001EE000BF20F001003062306A20F0040047
:100BA0003062FFF7D9FC054641F28837306A80078A
:100BB00020D5FFF7D1FC401BB8424FF00300F5D918
:100BC00081E700BF20F001003062306A20F00400AD
:100BD0003062FFF7C1FC054641F28837306A800772
:100BE00008D4FFF7B9FC401BB842F7D9032002B084
:100BF000BDE8F081B8F1000F3FF59FAEF06920F03D
:100C00008050F06199E600BF40F480203060306889
:100C100040F480301CE000BF20F480303060306849
:100C200020F480203060FFF797FC05463068800391
:100C30007FF55EAEFFF790FC401B64284FF0030089
:100C4000F4D940E720F480303060306820F4802010
:100C50003060FFF781FC0546306880033FF548AE01
:100C6000FFF77AFC401B6428F6D9032002B0BDE8E8
:100C7000F08100BF206AB0F5803F05D17168A2689D
:100C800021F40031114371607168626A21F47411BA
:100C900011430843706001203866FFF75DFC04468D
:100CA000306880013FF565AFFFF756FC001B022856
:100CB0004FF00300F4D906E7411E0020B0EB116F9E
:100CC0001CBF012070474EF21002CEF200025160AC
:100CD0004EF62351CEF20001F0230B7007219060F5
:100CE00011607047002804BF0120704710B504460A
:100CF00090F8390028B9002084F83800204600F028
:100D000061F8242084F839002068D4E90212C3680D
:100D100023F40053C360036923F440531A43026170
:100D2000D4E904231143C268194341F20C639A4386
:100D30001143C1604169A26921F44071114343F636
:100D40000002C4F201029042416103D0FFF78CFD22
:100D500002E000BFFFF79CFDD4E9002319214843BE
:100D60009900B0FBF1F048F21F5CC5F2EB1CA0FB50
:100D70000C314FF69C734909C0F6FF7301FB030069
:100D8000322303EB0010A0FB0C03F02000EA531009
:100D900000EB0110C3F34311084490601069202157
:100DA00020F490401061506920F02A005061D06812
:100DB00040F40050D0600020E06384F8391084F8DB
:100DC0003A1010BD70B586B040F60004C4F20104BC
:100DD000006804F54051002688420596CDE9036677
:100DE000029601D006B070BD41F21800C4F20200B4
:100DF000016802AD41F480410160016801F4804165
:100E000001910199016841F00401016000682946DF
:100E100000F00400019001984FF40070029002204D
:100E20000390032005902046FFF7A2FA4FF480605C
:100E3000CDE90206204629460496FFF799FA06B046
:100E400070BD00002DE9F041044690F839002028DB
:100E50000CD10E4600294FF0010018BF002A01D125
:100E6000BDE8F08194F83800012803D10220BDE8E4
:100E7000F08100BF012084F838000020E0632120C9
:100E80001D4684F839001746FFF766FBA784E78400
:100E9000E18C074600295FD005F1010806E000BF9C
:100EA00016F8011B4160E18C002956D0E08C013816
:100EB000E0842068A1680268B1F5805F4FEA0261B2
:100EC0001CD100290DD4B8F1000F29D0002D6AD013
:100ED000FFF742FBC11B2068A94264D801680906DC
:100EE000F6D531886FF35F2141602169002914BF75
:100EF00001360236E18C0029D8D12EE00029CFD46A
:100F0000B8F1000F1AD0002D4DD000BFFFF724FB21
:100F1000C11B2068A94246D801680906F6D5BFE77B
:100F200001680906DDD4016809065CBF01685FEA53
:100F30000161D6D401680906F2D5D2E70168090635
:100F4000AED4016809065CBF01685FEA0161A7D4FD
:100F500001680906F2D5A3E72068016849060FD4A5
:100F60000DB3691C19D10168490609D40168490605
:100F70005CBF01685FEA416102D401684906F2D5AD
:100F8000202084F839000020002184F83810BDE8C2
:100F9000F08100BF00684006F2D4FFF7DDFAC11B04
:100FA0002068A942F6D9C16821F4D071C1604169B5
:100FB00021F001014161202084F8390084F83A00D1
:100FC0000320002184F83810BDE8F081FEE700001E
:100FD000FEE70000FEE700007047000070470000D9
:100FE000FFF7C0BA41F20000C4F20200016800221B
:100FF00041F0010101604168CFF6FF0211404160FC
:1010000001684FF6FF72CFF6F66211400160016889
:1010100021F480210160416821F4FE0141604FF418
:101020001F0181604EF60850CEF200004FF00061C3
:1010300001607047FEE7000090B0FFF7A1FA06AC30
:10104000201D2421FFF717F90220069001200A90A5
:1010500010200B90002520460D95FFF72DFC28B1A0
:10106000EFF3108072B600BFFEE700BF0F20CDE99E
:10107000010501A80021CDE903550595FFF716FBF1
:1010800020B1EFF3108072B6FEE700BF41F2180006
:10109000C4F202000168002341F0200101600168F0
:1010A0000C2501F020010691069901684FF41652B3
:1010B00041F004010160006843F6000100F0040003
:1010C0000690069840F28000C2F20000C4F20101CE
:1010D00080E80E00C0E90333C0E90553C361FFF7A0
:1010E00001FE28B1EFF3108072B600BFFEE700BF2B
:1010F0004FF4FA70FFF728F940F20C04C2F2000432
:101100002046FFF799F840F28005C2F2000582B24E
:10111000284621464FF0FF33FFF794FEC820FFF723
:1011200013F92046FFF788F882B2284621464FF08F
:10113000FF33FFF787FEC820FFF706F92046FFF7C9
:101140007BF882B2284621464FF0FF33FFF77AFE44
:10115000C820FFF7F9F82046FFF76EF882B228465C
:1011600021464FF0FF33FFF76DFEC820FFF7ECF884
:101170002046FFF761F882B2284621464FF0FF3340
:10118000FFF760FEC820FFF7DFF82046FFF754F8AE
:1011900082B2284621464FF0FF33FFF753FEC820A6
:1011A000FFF7D2F82046FFF747F882B228462146DB
:1011B0004FF0FF33FFF746FEC820FFF7C5F8204683
:1011C000FFF73AF882B2284621464FF0FF33FFF787
:1011D00039FEC820FFF7B8F82046FFF72DF882B295
:1011E000284621464FF0FF33FFF72CFEC820FFF7BB
:1011F000ABF82046FFF720F882B2284621464FF090
:10120000FF33FFF71FFEC820FFF79EF8FEE701023D
:1012100000000000000000000102030406070809A6
:101220000000000001020304020304050607080988
:101230000A0B0C0D0E0F10105812000800000020B1
:10124000200000009401000878120008200000200F
:10125000A8060000B4010008010000001000000012
:101260000024F40052657A61204E6164696D690A58
:08127000000000000000000076
:0400000508000131BD
:00000001FF
