:020000040800F2
:100000003807002001020008C9190008211900085A
:10001000C51900083D050008DD1A000800000000B1
:10002000000000000000000000000000D1190008DE
:100030004D05000800000000CD190008D519000882
:100040001B0200081B0200081B0200081B0200081C
:100050001B0200081B0200081B0200081B0200080C
:100060001B0200081B0200081B0200081B020008FC
:100070001B0200081B0200081B02000841050008C3
:100080001B0200081B0200081B0200081B020008DC
:100090001B0200081B0200081B0200081B020008CC
:1000A0001B0200081B0200081B0200081B020008BC
:1000B0001B0200081B0200081B0200081B020008AC
:1000C0001B0200081B0200081B0200081B0200089C
:1000D0001B020008D11A00081B0200081B020008BE
:1000E0001B0200081B0200081B0200081B0200087C
:1000F0001B0200081B0200081B0200081B0200086C
:100100001B0200081B0200081B0200081B0200085B
:100110001B0200081B0200081B0200081B0200084B
:100120001B0200081B0200081B0200081B0200083B
:1001300000F002F800F055F814A696E8000CB2445E
:10014000B344DA4501D100F04CF8BAE80F000FA62D
:1001500096E83000A5EB040504EB0607AAEB0704BC
:10016000A7F101074FEA15154FEA3414A4F1010471
:10017000AC4201D300F035F813F0010F18BFFB1AA1
:1001800043F0010300F001F8DBE71847101F0000FF
:10019000301F0000103A24BF78C878C1FAD852073F
:1001A00024BF30C830C144BF04680C6070470000F1
:1001B000704700000023002400250026103A28BFC5
:1001C00078C1FBD8520728BF30C148BF0B607047C9
:1001D000642900F07D80002070471FB51FBD10B559
:1001E00010BD00F070F91146FFF7F7FF01F0DCFDDC
:1001F00000F08EF903B4FFF7F2FF03BC00F096F9AC
:100200000948804709480047FEE7FEE7FEE7FEE7AA
:10021000FEE7FEE7FEE7FEE7FEE7FEE704480549E6
:10022000054A064B70470000D91900083101000843
:100230003801002038070020380300203803002050
:100240000FB41CB5074B06AA7B446946009005987D
:1002500000F021F90020694600F030F91CBC5DF87F
:1002600014FB0000710200002DE9F0410E46044627
:10027000002020622046E168884730B3252805D059
:10028000D4E901219047206A401CF2E7E16820464A
:1002900000278847050018D0A5F14100192802D889
:1002A00020354FF400673246294620462760FFF785
:1002B0008FFF40B1012804D0F61D26F0070608364E
:1002C000D8E7361DD6E72846DAE7206ABDE8F08190
:1002D0002DE9F0410646002410687529314616A51F
:1002E00010D0AFF30080002802DA404213A507E0E7
:1002F00031688A0701D512A502E0490704D511A586
:10030000012401E0AFF3008000210A2206F1240756
:1003100009E0B0FBF2FCB0FBF2F302FB1C00303052
:1003200078541846491C0028F3D123462A46304603
:10033000BDE8F04100F051B8000000002D000000C1
:100340002B0000002000000010B5431C02E010F854
:10035000011B71B18107FAD14FF0013202C88C1A2A
:100360008C4314EAC211F9D0C01A0A0603D0C01E89
:1003700010BDC01A10BD0A0401D0801E10BD0902B4
:10038000FCD0401E10BD4FF0000200B5134694464D
:100390009646203922BFA0E80C50A0E80C50B1F1DD
:1003A0002001BFF4F7AF090728BFA0E80C5048BFF1
:1003B0000CC05DF804EB890028BF40F8042B08BF8F
:1003C000704748BF20F8022B11F0804F18BF00F88B
:1003D000012B70477047704770472DE9F0470D4675
:1003E00099469246044600F124080168880604D51F
:1003F000E06921F01001216000E00120A84201DD48
:10040000471B00E00027A1697A1902EB0900081ACE
:10041000A0612078C00602D42046AFF300800026F9
:1004200008E0D4E901211AF806009047206A401C30
:10043000761C20624E45F4DB2078C0060AD52046A3
:10044000AFF3008006E0D4E9012130209047206A14
:10045000401C2062381EA7F10107F4DC07E0D4E954
:10046000012118F805009047206A401C2062281ED0
:10047000A5F10105F3DC2046AFF3008020780006EB
:1004800002D50220BDE8F0870120FBE701694A1C84
:1004900002610878704700B58FB0CDE901310021C5
:1004A000059105497944CDE9031011466846FFF7E7
:1004B000DBFE0FB000BD0000E5FFFFFF0A6802F899
:1004C000010B0A607047754600F02CF8AE46050037
:1004D0006946534620F00700854618B020B5FFF75F
:1004E0009DFEBDE820404FF000064FF000074FF0A2
:1004F00000084FF0000BAC46ACE8C009ACE8C009FE
:10050000ACE8C009ACE8C00921F007018D4670478E
:1005100010B50446AFF300802046BDE81040FFF759
:1005200069BE0000004870471000002001491820F3
:10053000ABBEFEE72600020070470000FEE70000A9
:1005400040F2B000C2F2000000F09EB87047000018
:10055000EFF3108072B600BFFEE7000090F82110A4
:10056000022927D1026840F2040C1368C4F2020C7D
:1005700023F00E03136013680CF17C018A4223F010
:10058000010111601AD940F20841C4F202018A4205
:1005900050D040F21C41C4F202018A4242D040F2E3
:1005A0003041C4F202018A4248D14FF48073CCF842
:1005B00000345CE004218163012070474321C4F2D0
:1005C00002018A420EDD6B21C4F202018A421BDC69
:1005D0004421C4F202018A423ED05821C4F20201F1
:1005E0008A4223E00821C4F202018A4232D01C214F
:1005F000C4F202018A4237D03021C4F202018A4299
:1006000014D14FF4807230E06C21C4F202018A42AE
:1006100026D08021C4F202018A4207D14FF08072B5
:1006200023E000BF1023CCF8003420E04FF48032E8
:100630001BE000BF0123CCF8003418E00CF5886102
:100640004FF480338A4208BF4FF48053CCF8003413
:100650000DE000BF012208E04FF4805205E000BF2A
:100660004FF4801201E000BF1022CCF80020416B53
:100670004FF480720029028404BF0020704780B5C7
:100680008847002080BD000010B5D0E90FE3D0F806
:1006900000C0DEF80020DCF80010DA4054072DD549
:1006A00011F004042AD0DCF80010890605D4DCF827
:1006B000001021F00401CCF800100422C4F2020260
:1006C00002F17C018C4569D940F20841C4F2020173
:1006D0008C4500F0B78040F21C41C4F202018C4509
:1006E00000F0A88040F23041C4F202018C4540F095
:1006F000AD804FF48061C2F80014F7E0940731D563
:1007000011F002042ED0DCF80010890608D4DCF8C1
:10071000001021F00A01CCF80010012180F821100E
:100720000422C4F2020202F17C018C454CD940F251
:100730000841C4F202018C4500F0BE8040F21C4129
:10074000C4F202018C4500F0AD8040F23041C4F2A9
:1007500002018C4540F0BC804FF40071C2F80014D7
:10076000D6E000BF120740F1D98011F0080108BFA0
:1007700010BDDCF8001021F00E01CCF800100121B2
:1007800001FA03F2CEF804208163016B4FF480720A
:100790000029028440F0AC80C0E000BF4321C4F2D5
:1007A00002018C4526DD6B21C4F202018C4533DC4D
:1007B0004421C4F202018C4500F082805821C4F229
:1007C00002018C453AE000BF4321C4F202018C458E
:1007D00048DD6B21C4F202018C4555DC4421C4F292
:1007E00002018C4500F08A805821C4F202018C4538
:1007F0005EE000BF0821C4F202018C4556D01C21E6
:10080000C4F202018C456FD03021C4F202018C4544
:1008100014D14FF4806168E06C21C4F202018C4570
:1008200052D08021C4F202018C4507D14FF0806183
:100830005BE000BF4021C2F8001457E04FF4802174
:1008400053E000BF0421C2F800144FE002F58863B2
:100850004FF480219C4508BF4FF48041C2F800143A
:1008600044E000BF0821C4F202018C4544D01C21A1
:10087000C4F202018C4549D03021C4F202018C45FA
:1008800016D14FF4007142E06C21C4F202018C4594
:1008900038D08021C4F202018C4509D14FF000719B
:1008A00035E000BF2021C2F8001431E004211CE033
:1008B0004FF400312BE000BF0221C2F8001427E002
:1008C0004FF4804111E000BF4FF480010DE000BF04
:1008D00002F588634FF400319C4508BF4FF4005186
:1008E000C2F8001414E000BF40211160C16AA9B130
:1008F000BDE81040084700BF022108E04FF4005156
:1009000005E000BF4FF4001101E000BF202111609D
:10091000816A0022002980F82020E9D110BD000062
:10092000002804BF012070472DE9F04140F2000C7F
:10093000C4F2020C01684FF6F8320CF58163CBF675
:10094000FD72994238BF02F580624CF6CD430A44ED
:10095000CCF6CC43A2FB03236FF003040CF58062BA
:1009600004EA9303D0E9017ED0F80C803CBF00225A
:10097000C4F20202C0E90F230A6843F6F0739A43F7
:1009800000F110063A4378CE42EA0E0242EA08022B
:100990001A4322432A4332430A6000214FF48072F3
:1009A00081630284BDE8F0410846704790F820C09A
:1009B000BCF1010F04BF02207047F0B590F821C0D0
:1009C0004FF0010EBCF1010F80F820E026D14FF06E
:1009D000020C80F821C04FF0000CC0F838C0D0E9FC
:1009E00000C4C56AC66BDCF80070102C27F0010744
:1009F000CCF80070006C0EFA00F070600846CCF87D
:100A0000043004BF10460A46CCF80800CCF80C208D
:100A1000DCF8000045B140F00E000DE0002180F848
:100A200020100220F0BD00BF20F00400CCF8000030
:100A3000DCF8000040F00A00CCF80000DCF8000010
:100A400040F00100CCF800000020F0BDB0B5044635
:100A500000F00AF9054640F20000C2F200000078FA
:100A6000611C18BF044400BF00F0FEF8401BA04208
:100A7000FAD3B0BD2DE9F04F82B00E68002E00F021
:100A8000E980A0F1804241F6004540F20043A2F522
:100A90008432C4F201050624C4F201034FEAB227EE
:100AA000A84208BF05244FF0000E4FF001080F25A3
:100AB0004FF0000A4FF0000B052F38BF4FEAB22469
:100AC000009408E00E680AF1010A36FA0AF20EF103
:100AD000040E00F0BF8008FA0AFC16EA0C09F1D0F7
:100AE0004E684FF6FF72C1F21002964212DC122ECF
:100AF00056D8DFE806F0350B4D4955555555555537
:100B00005555555555555545510000BFD1F80CB0B8
:100B100046E000BF4FF6FF72C1F2210296420FDCA1
:100B20000022C1F2110296421AD00022C1F2120232
:100B3000964215D00022C1F22102964210D02FE039
:100B40000022C1F2220296420AD00022C1F23102F2
:100B5000964205D00022C1F23202964220D100BF57
:100B60008A684AB1012A14BFC0F814C0C0F810C086
:100B70004FF0080B14E000BF4FF0040B10E000BF73
:100B8000CA6802F1040B0BE04FF0000B08E000BF55
:100B9000CA6802F1080B03E0CA6802F10C0B00BF3F
:100BA00002467446B9F5807F24BF0432203C1668A3
:100BB00005FA04F726EA07070BFA04F6374317602D
:100BC000CA79D2067FF57EAF41F21807C4F2020758
:100BD0003A684FF6084542F001023A603A68CFF6AB
:100BE000FF7502F001020192019A2AF003021A44F1
:100BF0000F2457590EF00C06B440A743009C04FA8A
:100C000006F6374357514E680F25F2031A6854BF52
:100C100022EA090242EA09021A605A68B70354BF7D
:100C200022EA090242EA09025A60F7029A6854BFAE
:100C300022EA090242EA0902B70240F20C479A602E
:100C4000C4F201073A6854BF22EA090242EA0902E3
:100C50003A6037E702B0BDE8F08F0000002A08BF15
:100C6000090401617047000040F23410C2F2000034
:100C70000068704740F2000040F23411C2F20000F8
:100C8000C2F2000100780A68104408607047000052
:100C900080B542F20000C4F20200016841F0100188
:100CA0000160032000F08CF80F2000F005F800F040
:100CB00027F8002080BD000070B540F20006C2F2A7
:100CC000000640F208013278C2F200014FF47A7354
:100CD0000968B3FBF2F20446B1FBF2F1084600F0FA
:100CE00085FB0F2C4FF0010508D838B94FF0FF30C5
:100CF00021460022002500F037F87460284670BDB8
:100D000082B041F21800C4F202000168022241F0F0
:100D100001010160016801F001010191019941683F
:100D200041F080514160406800F080500090009890
:100D30000420C4F20100016862F31A61016002B08C
:100D400070470000002848BF704700F01F010122D3
:100D500002FA01F11C2202EAD0004EF20012CEF299
:100D6000000281507047000010B54EF60C5CCEF2C8
:100D7000000CDCF80030C3F3022E8EF00704042CC4
:100D800028BF0424BEF103034FF0FF3E0EFA04F423
:100D900038BF0023A14399400EFA03F39A4311434D
:100DA00000F00F0200F160430901043A03F56443C7
:100DB0006244002848BF02F10C03197010BD000006
:100DC0004EF60C51CEF200010A684FF6FF031A40AE
:100DD00060F30A2242F0806040F0FD7008607047C6
:100DE000002804BF012070472DE9F04381B042F292
:100DF0000008C4F202080446D8F800000D4600F0CE
:100E0000070081420CD9D8F8000020F007002843E1
:100E1000C8F80000D8F8000000F00700A8426CD124
:100E2000206841F204098107C4F2020917D541077D
:100E300005D5D9F8001041F4E061C9F800100107A8
:100E400005D5D9F8001041F46051C9F80010D9F85F
:100E50000010A26821F0F0011143C9F80010C0078A
:100E600042D1D8F8000000F0070085420CD2D8F833
:100E7000000020F007002843C8F80000D8F8000060
:100E800000F00700A84238D12068410707D5D9F8FB
:100E90000010E26821F4E0611143C9F80010000776
:100EA00008D5D9F80000216920F4605040EAC1005B
:100EB000C9F80000D9F8002002F00C00082841F21F
:100EC0000020C0F27A004DD142F28A03C2F383417E
:100ED000C0F60003595CD20338D440F60010C0F2CB
:100EE0003D0048433EE000BF606859F8041C0228FA
:100EF00008D0012826D1890306D4012001B0BDE81D
:100F0000F08300BF8901F8D5D9F8001021F0030162
:100F10000843C9F80000FFF7A7FE064641F28837EC
:100F2000D9F80000616800F00C00B0EB810F98D098
:100F3000FFF79AFE801BB842F2D9032001B0BDE84A
:100F4000F08300BF8907D8D5DEE700BFD9F80020BD
:100F500042F26C03C2F34042C0F600039A5C48437D
:100F6000B0FBF2F0D9F8001042F26E02C1F30311A7
:100F7000C0F60002515C40F2080220FA01F140F292
:100F80000400C2F200000068C2F200021160FFF724
:100F900093FE002001B0BDE8F083000040F208009D
:100FA00041F20401C2F20000C4F2020100680968C3
:100FB00042F27E02C1F30221C0F60002515CC84039
:100FC0007047000040F2080041F20401C2F2000044
:100FD000C4F202010068096842F27E02C1F3C22134
:100FE000C0F60002515CC84070470000002804BFF2
:100FF000012070472DE9F04182B00446007841F2AB
:101000000006C007C4F202060CD0706800F00C00A5
:10101000042840F081803068800303D56068002890
:1010200000F04681207880071BD5706810F00C0F07
:1010300009D0706800F00C00082840F087807068C4
:10104000C00300F183803068800703D52069012840
:1010500040F02E813068616920F0F80040EAC1005C
:1010600030602078000713D4207840072CD4E5693D
:10107000002D00F01881706800F00C00082840F086
:10108000A780012D40F00481012002B0BDE8F0816D
:10109000A069002800F084800020C4F242200121D1
:1010A000C0F88014FFF7E0FD054600BF706A8007B6
:1010B00000F1B280FFF7D8FD401B0228F6D90320CB
:1010C00002B0BDE8F08100BFF0695FEAC00808D453
:1010D000F06940F08050F061F06900F080500090BD
:1010E000009847F20007C4F200073868C00549D4E9
:1010F000386840F480703860FFF7B6FD054600BFE1
:101100003868C0053ED4FFF7AFFD401B6428F7D90F
:10111000032002B0BDE8F081706800F00C000828E0
:1011200003D17068C0033FF576AF6168306800296D
:1011300000F00C81B1F5A02F00F00081B1F5803FE7
:1011400040F01A8140F480301CE100BF2069002883
:1011500040F20000C4F2422000F0888001210160CA
:10116000FFF782FD054600BF306880073FF572AF8C
:10117000FFF77AFD401B0228F6D9032002B0BDE834
:10118000F08100BFE168306A002900F09D800529E8
:1011900000F09280012940F0AF8040F00100B1E002
:1011A0000020C4F242200021C0F88014FFF75CFD4B
:1011B000054600BF706A80077FF556AFFFF754FD04
:1011C000401B0228F6D9032002B0BDE8F08100BF21
:1011D0000027C4F2422700203866FFF745FD022DA4
:1011E00005460DD13068800140F1DE80FFF73CFDFF
:1011F000401B02284FF00300F4D902B0BDE8F08193
:10120000306880014FD5FFF72FFD401B02284FF0BB
:101210000300F5D9F1E700BF40F20800C2F2000078
:10122000006844F6D351C1F26201A0FB0101480AF3
:10123000019000BF00BF0198411E002801913FF4BA
:1012400013AF00BF0198411E002801913FF40CAF7D
:1012500000BF0198411E002801913FF405AF00BF77
:101260000198411E00280191E4D1FDE600210160B2
:10127000FFF7FAFC054600BF306880077FF5F1AE46
:10128000FFF7F2FC401B02284FF00300F4D9B4E74B
:101290007068216A00F480328A4209D1616A00F4E0
:1012A0007010884204D1002002B0BDE8F08100BF78
:1012B000012002B0BDE8F08140F004003062306AE5
:1012C00040F001001EE000BF20F001003062306AF3
:1012D00020F004003062FFF7C7FC054641F2883772
:1012E000306A800720D5FFF7BFFC401BB8424FF0A3
:1012F0000300F5D981E700BF20F001003062306AB9
:1013000020F004003062FFF7AFFC054641F2883759
:10131000306A800708D4FFF7A7FC401BB842F7D912
:10132000032002B0BDE8F081B8F1000F3FF59FAE99
:10133000F06920F08050F06199E600BF40F4802011
:101340003060306840F480301CE000BF20F4803012
:101350003060306820F480203060FFF785FC05465F
:10136000306880037FF55EAEFFF77EFC401B64288B
:101370004FF00300F4D940E720F48030306030684B
:1013800020F480203060FFF76FFC05463068800352
:101390003FF548AEFFF768FC401B6428F6D90320F0
:1013A00002B0BDE8F08100BF206AB0F5803F05D1F2
:1013B0007168A26821F40031114371607168626A3A
:1013C00021F4741111430843706001203866FFF75F
:1013D0004BFC0446306880013FF565AFFFF744FCE5
:1013E000001B02284FF00300F4D906E7411E00203D
:1013F000B0EB116F1CBF012070474EF21002CEF20D
:10140000000251604EF62351CEF20001F0230B7022
:10141000072190601160704770470000B0B5016807
:101420000A68CC684B6902F02F05202D04F02005D6
:1014300012D18DB190F83A20222A40F017818268AB
:10144000B2F5805F3ED10369826A4968002B61D0A2
:10145000C9B222F8011B61E05FEA027C1EBF03F003
:10146000010E04F4907313EB0E0337D1130617D556
:1014700014F0800314D090F83920212A40F0F6802F
:101480008368026AB3F5805F30D113886FF35F23FE
:101490004B600369002B14BF01320232026229E063
:1014A000520640F1E38014F0400208BFB0BDCA68A4
:1014B00022F04002CA60202180F83910BDE8B04017
:1014C00000F02CBA02694968002A826A18BF01F04C
:1014D0007F01531C8362117021E000BFD30718BF46
:1014E00014F4807336D153073AD440E0531C03629E
:1014F00012784A60C28C013A1304C28440F0B6806C
:10150000C86820F08000C860C86840F04000C8602B
:10151000B0BD00BF6FF35F2122F8021B8262C18D54
:1015200001390A04C18540F0A1800168CA6822F02F
:101530002002CA60CA6822F48072CA604A6922F036
:1015400001024A61202180F83A10BDE8B04000F065
:10155000D3B900BFC36B43F00103C363530706D580
:10156000BEF1000F03D0C36B43F00203C3639307C4
:1015700006D5BEF1000F03D0C36B43F00403C36371
:10158000BCF1000F06D5BEF1000F03D0C36B43F0D2
:101590000803C363C36B002B68D092063BD5D5B359
:1015A00090F83A20222A36D18268B2F5805F07D1BE
:1015B0000369826A49687BB1C9B222F8011B0FE056
:1015C00002694968002A826A18BF01F07F01531C32
:1015D0008362117005E000BF6FF35F2122F8021BE8
:1015E0008262C18D4A1EC2850168120413D1CA6885
:1015F000044622F02002CA60CA6822F48072CA60DF
:101600004A6922F001024A61202180F83A1000F074
:1016100073F9216820464A69C36B02F0400203F067
:101620000803D21824D0CA6822F49072CA604A69AA
:1016300022F001024A61202280F83A204A695206CB
:101640001CD54A6922F040024A61416BB1B141F6B2
:101650002922C0F60002044608464A63FEF77EFFD0
:1016600020B1606B416BBDE8B0400847B0BD00BF22
:101670000446FFF7D1FE0020E063B0BDBDE8B040F6
:10168000FFF7CABE002804BF0120704710B504460A
:1016900090F8390028B9002084F83800204600F07E
:1016A00061F8242084F839002068D4E90212C36864
:1016B00023F40053C360036923F440531A430261C7
:1016C000D4E904231143C268194341F20C639A43DD
:1016D0001143C1604169A26921F44071114343F68D
:1016E0000002C4F201029042416103D0FFF756FCB0
:1016F00002E000BFFFF766FCD4E90023192148434C
:101700009900B0FBF1F048F21F5CC5F2EB1CA0FBA6
:101710000C314FF69C734909C0F6FF7301FB0300BF
:10172000322303EB0010A0FB0C03F02000EA53105F
:1017300000EB0110C3F343110844906010692021AD
:1017400020F490401061506920F02A005061D06868
:1017500040F40050D0600020E06384F8391084F831
:101760003A1010BD2DE9F04186B040F60005044660
:10177000C4F20105006805F540510027884205972D
:10178000CDE90377029703D006B0BDE8F08100BF32
:1017900041F21806C4F2020630680DF1080840F460
:1017A000804030603068414600F4804001900198EC
:1017B000306840F004003060306800F004000190B0
:1017C00001984FF4007002900220039003200590CE
:1017D0002846FFF74FF94FF48060CDE9020728460D
:1017E00041460497FFF746F940F2B005A6F57C6044
:1017F000C2F200058021C5E900072846C5E902714B
:10180000C5E90477C5E90677FFF78AF8002818BF0D
:10181000FEF79EFE25200021002265636C62FFF723
:10182000A3FA2520FFF78EFA06B0BDE8F08100008C
:1018300090F83A30202B1CBF0220704770B582B060
:1018400096460A4600294FF0010118BFBEF1000F6D
:1018500004D102B0BDE870400846704790F83810D7
:10186000012905D1022102B0BDE870400846704749
:10187000012180F83810002122238262A0F82CE098
:10188000C16380F83A300368D0F834C041F691243F
:10189000C0F6000441F6C92541F63526C0F600051C
:1018A000C0F60006CCF82840CCF83410191D0446C8
:1018B00060467346CCF82C50CCF83060FFF776F8D1
:1018C0000021019120680268019242680192019A08
:1018D00084F83810C26842F48072C260426942F0F3
:1018E00001024261426942F04002426102B0BDE839
:1018F0007040084670470000006843F60001C4F2DB
:101900000101884218BF704740F27000C2F2000027
:10191000012101707047000070470000704700000F
:10192000FEE70000012100F0DBB80000B0B504467E
:10193000DDE90650DDE904CEA075A582C4F810E00B
:10194000A4F80CC0C4E90012A36008B1382108E073
:101950002046332100F0C4F82046322100F0C0F8C0
:101960002821204600F0BCF82046012100F0B8F8FC
:1019700020460C2100F0B4F82046062100F0B0F813
:10198000B0BD000042F28603C0F60003595C11446A
:101990008039C9B200F0A4B8F0B581B00C4609781E
:1019A00069B1054600270026E15D284600F04AF9A6
:1019B00001362046F7B2FEF7C7FCB842F4D801B0B2
:1019C000F0BD0000FEE70000FEE7000070470000E9
:1019D00070470000FFF74EB941F20000C4F2020068
:1019E0000168002241F0010101604168CFF6FF0269
:1019F0001140416001684FF6FF72CFF6F662114068
:101A00000160016821F480210160416821F4FE0138
:101A100041604FF41F0181604EF60850CEF2000085
:101A20004FF0006101607047406A0021C185C184A8
:101A3000FFF7F2BC406A01684A6990F83930212BFF
:101A40000BD112F0800208D00022C284CA6822F0B2
:101A5000C002CA60202280F839204A6990F83A30E2
:101A6000222B0FD112F040020CD00022C285CA688E
:101A700022F49072CA604A6922F001024A61202170
:101A800080F83A10C16B41F01001C163FFF7C4BC8C
:101A90000168406A0968890648BFFFF72DBF002129
:101AA000C1850168CA6822F48072CA604A6922F05E
:101AB00001024A614A6922F040024A61202180F80D
:101AC0003A10FFF719BF0000406AFFF725BF00007A
:101AD00040F2F400C2F20000FFF7A0BCFEE70000F5
:101AE000F0B581B00446A28980680D4611460022F7
:101AF000FFF7B4F8A07D002844D0D4E9000105F038
:101B0000010200680988FFF7A9F8D4E90001C5F3CC
:101B1000400240684988FFF7A1F8D4E90001C5F305
:101B2000800280688988FFF799F8D4E90001C5F33D
:101B3000C002C068C988FFF791F8D4E90001C5F375
:101B4000001200690989FFF789F8D4E90001C5F39B
:101B5000401240694989FFF781F8D4E90001C5F3D3
:101B6000801280698989FFF779F8D4E90001EA09D0
:101B7000C069C989FFF772F804F1100604F114076F
:101B800050E000BFD4E90001C5F3001200680988E5
:101B9000FFF764F8D4E90001C5F3401240684988B2
:101BA000FFF75CF8D4E90001C5F3801280688988EA
:101BB000FFF754F8D4E90001EA09C068C988FFF7C3
:101BC0004DF82646274656F8100F37F8141F012205
:101BD000FFF744F80120FEF739FF3068398800220A
:101BE000FFF73CF8D4E9000105F00102006809881C
:101BF000FFF734F8D4E90001C5F340024068498892
:101C0000FFF72CF8D4E90001C5F3800280688988C9
:101C1000FFF724F8D4E90001C5F3C002C068C98801
:101C2000FFF71CF8306839880122FFF717F8012008
:101C3000FEF70CFF30683988002201B0BDE8F040A3
:101C4000FFF70CB8F0B581B00446A28980680D4654
:101C500011460122FFF702F8A07D002844D0D4E904
:101C6000000105F0010200680988FEF7F7FFD4E9DA
:101C70000001C5F3400240684988FEF7EFFFD4E950
:101C80000001C5F3800280688988FEF7E7FFD4E988
:101C90000001C5F3C002C068C988FEF7DFFFD4E9C0
:101CA0000001C5F3001200690989FEF7D7FFD4E9E6
:101CB0000001C5F3401240694989FEF7CFFFD4E91E
:101CC0000001C5F3801280698989FEF7C7FFD4E956
:101CD0000001EA09C069C989FEF7C0FF04F11006D6
:101CE00004F1140750E000BFD4E90001C5F300126D
:101CF00000680988FEF7B2FFD4E90001C5F340127D
:101D000040684988FEF7AAFFD4E90001C5F38012B4
:101D100080688988FEF7A2FFD4E90001EA09C0685B
:101D2000C988FEF79BFF2646274656F8100F37F85E
:101D3000141F0122FEF792FF0120FEF787FE306894
:101D400039880022FEF78AFFD4E9000105F001027C
:101D500000680988FEF782FFD4E90001C5F340025C
:101D600040684988FEF77AFFD4E90001C5F3800294
:101D700080688988FEF772FFD4E90001C5F3C002CC
:101D8000C068C988FEF76AFF306839880122FEF70B
:101D900065FF0120FEF75AFE30683988002201B045
:101DA000BDE8F040FEF75ABF96B0FEF771FF0CACED
:101DB000201D2421FEF7E7FA02200C90012010904C
:101DC00010201190002520461395FFF70FF928B138
:101DD000EFF3108072B600BFFEE700BF0F20CDE921
:101DE000070507A80021CDE909550B95FEF7F8FF77
:101DF00020B1EFF3108072B6FEE700BF4FF0000A8B
:101E000041F21804CDE90EAACDE90CAAC4F20204ED
:101E1000206840F6000540F0200020602068C4F2F1
:101E2000010500F020000790079820683F2140F04E
:101E3000040020602068002200F00400079007984A
:101E400028463F26FEF70AFF0120CDE90D0A0220B1
:101E50000F900CA928460C96FEF70CFE54F8040CC3
:101E6000002140F0010044F8040C54F8040C002256
:101E700000F001000C900C980F20FEF775FF0F206A
:101E8000FEF760FF40F2F40905F54050C2F2000988
:101E90004FF416510C2289E803044846C9E903AA05
:101EA000C9E9052AC9F81CA0FFF7ECFB20B1EFF344
:101EB000108072B6FEE700BF0420C0F20800059053
:101EC0000120C0F20200049020201021CDE900156D
:101ED00002900CA807A904AA2B46CDE90955CDE923
:101EE0000755CDF80CA0FFF721FD40F270060CABB2
:101EF000C2F200060FCB374647F8280FDDE9100580
:101F000007F1040CC7E9040564208CE80E00FEF715
:101F10009DFD3846FFF706FD384600210022FFF7F9
:101F200031FD40A13846FFF737FD38460121002238
:101F30000125FFF727FD3EA13846FFF72DFDCDF81F
:101F400030A0D9F800000FF2F80801680C91416840
:101F50000C910C9940682EE006F128073846FFF7EF
:101F6000E1FC741C204641462A46FEF769F93846D2
:101F700000210022FFF706FD38462146FFF70CFD41
:101F8000384601210022FFF7FDFC06F11101384619
:101F9000FFF702FD40F2DC50FEF758FDCDF830A00F
:101FA000D9F80000013501680B2D0C9141680C91A6
:101FB0000C9940681ED0314686F800A041F811AF58
:101FC00048461422C6F815A0C6F819A0C6F81DA0E8
:101FD000C6F821A0FFF72CFC30780028BCD130785F
:101FE0000028B9D130780028B6D130780028F3D055
:101FF000B2E700BF3846FFF795FC384600210022C3
:10200000FFF7C0FC11A13846FFF7C6FC3846012196
:102010000022FFF7B7FC11A13846FFF7BDFC00BF57
:10202000FEE700BF57616974696E6720666F7200D2
:102030004D41544C41422028444D41292E2E2E0022
:102040004E616D652025642F31303A00416C6C2063
:102050003130204E616D657300000000444D412019
:102060005375636365737321202000000102000033
:102070000000000000000102030406070809000038
:10208000000001020304004010500203040506078B
:1020900008090A0B0C0D0E0F10100000C0200008DC
:1020A000000000201000000094010008D02000086B
:1020B0001000002028070000B40100080000000004
:1020C00001000000100000000024F40000000000E7
:0400000508000131BD
:00000001FF
