:020000040800F2
:10000000E8060020F9010008A9180008A118000856
:10001000A5180008010300080919000800000000E5
:10002000000000000000000000000000B1180008FF
:100030000503000800000000AD180008B51800080E
:10004000130200081302000813020008130200083C
:10005000130200081302000813020008130200082C
:10006000130200081302000813020008130200081C
:10007000130200081302000813020008130200080C
:1000800013020008130200081302000813020008FC
:1000900013020008130200081302000813020008EC
:1000A00013020008130200081302000813020008DC
:1000B00013020008130200081302000813020008CC
:1000C00013020008130200081302000813020008BC
:1000D00013020008130200081302000813020008AC
:1000E000130200081302000813020008130200089C
:1000F000130200081302000813020008130200088C
:10010000130200081302000813020008130200087B
:10011000130200081302000813020008130200086B
:10012000130200081302000813020008130200085B
:1001300000F002F800F050F814A696E8000CB24463
:10014000B344DA4501D100F047F8BAE80F000FA632
:1001500096E83000A5EB040504EB0607AAEB0704BC
:10016000A7F101074FEA15154FEA3414A4F1010471
:10017000AC4201D300F030F813F0010F18BFFB1AA6
:1001800043F0010300F001F8DBE718471C190000F9
:100190003C190000103A24BF78C878C1FAD8520739
:1001A00024BF30C830C144BF04680C6070470000F1
:1001B000704700000023002400250026103A28BFC5
:1001C00078C1FBD8520728BF30C148BF0B607047C9
:1001D0001FB51FBD10B510BD00F058F81146FFF750
:1001E000F7FF01F093FB00F076F803B4FFF7F2FF9E
:1001F00003BC00F07DF8000009488047094800472B
:10020000FEE7FEE7FEE7FEE7FEE7FEE7FEE7FEE7C6
:10021000FEE7FEE704480549054A064B7047000023
:10022000B918000831010008E8000020E8060020A5
:10023000E8020020E80200204FF0000200B513465B
:1002400094469646203922BFA0E80C50A0E80C50F6
:10025000B1F12001BFF4F7AF090728BFA0E80C50A7
:1002600048BF0CC05DF804EB890028BF40F8042BA0
:1002700008BF704748BF20F8022B11F0804F18BF0D
:1002800000F8012B7047704770477047754600F0C3
:100290002BF8AE4605006946534620F00700854618
:1002A00018B020B5FFF7B6FFBDE820404FF00006BC
:1002B0004FF000074FF000084FF0000BAC46ACE8E1
:1002C000C009ACE8C009ACE8C009ACE8C00921F03D
:1002D00007018D46704710B50446AFF300802046F5
:1002E000BDE81040FFF781BF0048704710000020B4
:1002F00001491820ABBEFEE726000200704700004F
:10030000FEE700007047000070B581B00022009247
:1003100090F82420012A03D10221084601B070BDC3
:100320004A680123062A02EB820E80F8243007D89F
:10033000D0F800C06FF004030CF134060CE000BFED
:10034000D0F800C00C2A87BF0CF12C066FF04003D8
:100350000CF130066FF022030EEB03021F2334680A
:1003600003FA02F50B6824EA050503FA02F22A43B0
:100370003260092B03EB43021AD9DCF80C601E3AF9
:10038000072589689540AE43914023F0010231432F
:10039000102ACCF80C1015D142F20041C4F2010130
:1003A0008C4517D0816A41F02001816201210AE069
:1003B000DCF81030072689689640B3439140194312
:1003C000CCF810100021002280F82420084601B04B
:1003D00070BD00BF89680902F4D4DCF80810102B46
:1003E00041F40001CCF80810ECD140F20801C2F24F
:1003F000000109684DF68362C4F21B32A1FB0212B0
:10040000910C01EB81014900009100990029D9D09C
:1004100000990139009100990029D3D00099013940
:10042000009100990029CDD00099013900910099DF
:100430000029C7D0009901390091009900294FF097
:100440000001E5D1BFE700000068C06C7047000004
:10045000002804BF01207047B0B50446806A28B167
:1004600020688168C9070CD03CE000BF0020E06232
:1004700084F82400204600F099F820688168C907B4
:1004800030D1A16AC90647D4A16A41F20212914350
:100490000231A162E36980F0804181F49E3183F4EE
:1004A00040221143D4E9011208BF4FF4002343EA6C
:1004B000010C531EB3FA83F35D091346B2F5807F36
:1004C00018BF2B02217D257B01294CEA45012ED145
:1004D00045B3A56A45F02005A562E56A45F001052A
:1004E000E56224E0816821F00101816000F068FB91
:1004F000054600BF20688168C907C2D000F060FBD4
:10050000401B0328F6D3A06A40F01000A062E06A06
:1005100040F00100E062A06AA06A40F01000A06212
:100520000120B0BDA56903EB4533A3F5C053456871
:10053000B2F5807F25F4694543EA0503436083688B
:100540004FF2FD75CFF6E17503EA050343EA0103B7
:10055000836001D0012A07D122690023CFF6F0730E
:1005600003EB025201E000BF0022C36A23F47003D0
:100570001A43C262806840F6FE62CFF61F721040D6
:10058000884207D10020E062A16A012262F30101E2
:10059000A162B0BDA06A40F0100020F00200A0628D
:1005A000E06A40F00100E0620120B0BD80B586B095
:1005B000014640F60000C4F20100096800F5E0526F
:1005C00091424FF00001CDE90411CDE9021101D0B3
:1005D00006B080BD41F21801C4F202010A6842F47B
:1005E00000720A600A6802F400720192019A0A68B5
:1005F00042F004020A60096801F0040101910199C6
:10060000022102910321039102A900F0E5F906B04D
:1006100080BD00002DE9F04182B000270D46044660
:10062000019700F0CDFA21688A68D20544D40646C5
:100630004868C00503D4C86A10F4700F46D040F271
:100640000800C2F20000076842F292480220C1F29C
:10065000492800F05FFB216844F624130A69B7FBC0
:10066000F0F0C2F292431A4206D1CA6844F624134B
:10067000C0F292031A4249D00A6912EA080F07D160
:10068000CA6842F29243C0F249031A4200F08480E1
:100690000A6949F24923C0F224031A424FF0FC02CE
:1006A00042D1CF681F4208BF5422019B02FB00F7D2
:1006B000BB423ED379E000BFA06A40F02000A062B8
:1006C00084F82470012002B0BDE8F081086880073A
:1006D0006BD4002D55D0681C12D10868800764D4F3
:1006E000086880075CBF08685FEA80705DD40868AE
:1006F0008007F2D559E000BF21680868800754D40C
:1007000000F05EFA801BA842F6D93AE00A6912EAC4
:10071000080F4FF0290207D1CB6842F29247C0F28E
:1007200049073B4208BF1422019B02FB00F7BB4272
:100730003BD235B3681C1FD101980130019001985C
:10074000B84232D20198013001900198B8422CD2BF
:100750000198013001900198B84226D201980130E9
:1007600001900198B842E7D31FE000BF0198013023
:1007700001900198B84217D200F022FA801BA842DB
:10078000F4D9A06A40F00400A062002084F824009C
:10079000032002B0BDE8F0815422019B02FB00F768
:1007A000BB42C6D301E000BF21686FF012000860B1
:1007B000A06A40F40070A062886800F46020B0F580
:1007C000602F01D1207B18B1002002B0BDE8F0817C
:1007D000A06A20F48070A062A06AC004F4D4A06A69
:1007E00040F00100A062002002B0BDE8F0810000EE
:1007F000B0B582B0044690F82400012802D102204E
:1008000002B0B0BD012084F82400002001902068CF
:100810008168C90742D1816841F00101816040F2DD
:100820000800C2F2000000684DF68361C4F21B317B
:10083000A0FB0101880C01900198A0B1019801383A
:100840000190019878B1019801380190019850B158
:10085000019801380190019828B101980138019060
:1008600001980028EAD100F0ABF9054620688168BC
:10087000C90713D100F0A4F9401B0228F6D9A06AD9
:1008800040F01000A062E06A40F00100E062002049
:1008900084F82400012002B0B0BD00BFA26A42F279
:1008A000044140F20133C4F201019A4302F580731E
:1008B00001F57F729042A3622AD0A36A23F48013C9
:1008C000A36243685B0504D5A36A012565F30D3374
:1008D000A362A56A0023ED044FF0000544BFE56A5A
:1008E00025F00605E56284F824306FF0020303600A
:1008F000836803F46023B3F5602F19D1904213D0BD
:10090000816841F4A0018160002002B0B0BD00BF49
:100910000B6813F4702FD0D0A36A43F48013A36242
:100920000B685B05D0D4D4E7096811F4702FE7D0C9
:10093000816841F480118160002002B0B0BD0000E8
:10094000B0B5044690F82400012804BF0220B0BDD1
:100950000121206884F824108168C90708D1214644
:1009600051F8280F41F2011220EA0202002018E09B
:10097000816821F00101816000F022F9054600BF85
:1009800020688068C007EAD000F01AF9401B0328ED
:10099000F6D3A06A214640F01000A06251F82C2F37
:1009A000012042F001020A60002184F82410B0BD49
:1009B000B0B5044600F004F9054640F20000C2F26A
:1009C00000000078611C18BF044400BF00F0F8F874
:1009D000401BA042FAD3B0BD2DE9F04F82B00E68A3
:1009E000002E00F0E980A0F1804241F6004540F27F
:1009F0000043A2F58432C4F201050624C4F20103C7
:100A00004FEAB227A84208BF05244FF0000E4FF06E
:100A100001080F254FF0000A4FF0000B052F38BFDB
:100A20004FEAB224009408E00E680AF1010A36FA8F
:100A30000AF20EF1040E00F0BF8008FA0AFC16EA72
:100A40000C09F1D04E684FF6FF72C1F210029642C7
:100A500012DC122E56D8DFE806F0350B4D495555FD
:100A6000555555555555555555555545510000BF8A
:100A7000D1F80CB046E000BF4FF6FF72C1F2210280
:100A800096420FDC0022C1F2110296421AD00022D7
:100A9000C1F21202964215D00022C1F22102964202
:100AA00010D02FE00022C1F2220296420AD000228A
:100AB000C1F23102964205D00022C1F232029642C2
:100AC00020D100BF8A684AB1012A14BFC0F814C0FF
:100AD000C0F810C04FF0080B14E000BF4FF0040B3B
:100AE00010E000BFCA6802F1040B0BE04FF0000BEE
:100AF00008E000BFCA6802F1080B03E0CA6802F10F
:100B00000C0B00BF02467446B9F5807F24BF043247
:100B1000203C166805FA04F726EA07070BFA04F6E4
:100B200037431760CA79D2067FF57EAF41F21807C6
:100B3000C4F202073A684FF6084542F001023A60F3
:100B40003A68CFF6FF7502F001020192019A2AF08D
:100B500003021A440F2457590EF00C06B440A74361
:100B6000009C04FA06F6374357514E680F25F203EE
:100B70001A6854BF22EA090242EA09021A605A6856
:100B8000B70354BF22EA090242EA09025A60F70297
:100B90009A6854BF22EA090242EA0902B70240F207
:100BA0000C479A60C4F201073A6854BF22EA09026E
:100BB00042EA09023A6037E702B0BDE8F08F000070
:100BC00040F2E400C2F200000068704740F200000A
:100BD00040F2E401C2F20000C2F2000100780A68AB
:100BE000104408607047000080B542F20000C4F273
:100BF0000200016841F010010160032000F07AF862
:100C00000F2000F005F800F027F8002080BD00005C
:100C100070B540F20006C2F2000640F208013278D8
:100C2000C2F200014FF47A730968B3FBF2F2044692
:100C3000B1FBF2F1084600F0A9FC0F2C4FF00105C2
:100C400008D838B94FF0FF3021460022002500F0C7
:100C500025F87460284670BD82B041F21800C4F2D5
:100C600002000168022241F001010160016801F007
:100C7000010101910199416841F080514160406852
:100C800000F08050009000980420C4F20100016838
:100C900062F31A61016002B07047000010B54EF6B1
:100CA0000C5CCEF2000CDCF80030C3F3022E8EF0A8
:100CB0000704042C28BF0424BEF103034FF0FF3EB9
:100CC0000EFA04F438BF0023A14399400EFA03F34F
:100CD0009A43114300F00F0200F160430901043A06
:100CE00003F564436244002848BF02F10C03197005
:100CF00010BD00004EF60C51CEF200010A684FF60E
:100D0000FF031A4060F30A2242F0806040F0FD7059
:100D100008607047411E0F294FF000003DD8DFE802
:100D200001F00B2B3C093C3C3C093C3C3C3C3C3C32
:100D30003C3D00BF00F0FEB941F20400C4F20200E5
:100D4000C16940F202320A40B2F5817F04BF4FF41C
:100D50000040704701F44071B1F5407F50D0B1F5CB
:100D6000007F1CBF00207047006A49F640418007A1
:100D700001EAE070704700BF80B500F0C7F941F2AA
:100D80000401C4F2020109680222C1F3813102EBBD
:100D90004101B0FBF1F0BDE88040704741F2040131
:100DA000C4F202010A6851F8040CC0015CBF0020C3
:100DB0007047C2F3834016A3185CD20306D440F6F2
:100DC0000012C0F23D0250430CE000BF0A6814A3B9
:100DD000C2F340429A5C41F20023C0F27A03B3FBB3
:100DE000F2F250430968490248BF70474AF6AB2106
:100DF0004000CAF6AA21A0FB01014808704700BFC5
:100E000050F8040C4FF22441800301EAE07070476F
:100E100002030405060708090A0B0C0D0E0F10103B
:100E2000010200002DE9F04182B00446007841F251
:100E30001C06C007C4F202064AD030685FEAC00848
:100E400008D4306840F080503060306800F0805046
:100E50000190019847F20007C4F200073868C00506
:100E600012D4386840F480703860FFF7A9FE054658
:100E70003868C00508D4FFF7A3FE401B6428F7D9E3
:100E8000032002B0BDE8F081706810F4407012D009
:100E9000616801F4407188420DD0706840F24042B0
:100EA000C4F24222012320F4407113600023C007E2
:100EB0001360716026D17068616820F44070084347
:100EC000B8F1000F706003D4306820F080503060BB
:100ED0002068810707D556F8181CA26821F4404104
:100EE000114346F8181CC00607D556F8180C61695E
:100EF00020F48000084346F8180C002002B0BDE83A
:100F0000F08100BFFFF75CFE054641F2883700BF65
:100F100070688007CFD4FFF753FE401BB8424FF0F4
:100F20000300F5D9EAE70000002804BF012070475C
:100F30002DE9F04381B042F20008C4F202080446F1
:100F4000D8F800000D4600F0070081420CD9D8F80F
:100F5000000020F007002843C8F80000D8F800007F
:100F600000F00700A8426CD1206841F20409810713
:100F7000C4F2020917D5410705D5D9F8001041F48C
:100F8000E061C9F80010010705D5D9F8001041F457
:100F90006051C9F80010D9F80010A26821F0F001E2
:100FA0001143C9F80010C00742D1D8F8000000F082
:100FB000070085420CD2D8F8000020F00700284333
:100FC000C8F80000D8F8000000F00700A84238D1A7
:100FD0002068410707D5D9F80010E26821F4E061E4
:100FE0001143C9F80010000708D5D9F8000021699D
:100FF00020F4605040EAC100C9F80000D9F8002090
:1010000002F00C00082841F20020C0F27A004DD115
:1010100041F69623C2F38341C0F60003595CD20324
:1010200038D440F60010C0F23D0048433EE000BF17
:10103000606859F8041C022808D0012826D18903C9
:1010400006D4012001B0BDE8F08300BF8901F8D5C6
:10105000D9F8001021F003010843C9F80000FFF798
:10106000AFFD064641F28837D9F80000616800F00C
:101070000C00B0EB810F98D0FFF7A2FD801BB842A7
:10108000F2D9032001B0BDE8F08300BF8907D8D5AD
:10109000DEE700BFD9F8002041F67C23C2F34042CE
:1010A000C0F600039A5C4843B0FBF2F0D9F8001098
:1010B00041F67E22C1F30311C0F60002515C40F2FA
:1010C000080220FA01F140F20400C2F200000068B8
:1010D000C2F200021160FFF79BFD002001B0BDE8E5
:1010E000F083000040F2080041F20401C2F2000067
:1010F000C4F202010068096841F68E22C1F30221A0
:10110000C0F60002515CC8407047000040F2080081
:1011100041F20401C2F20000C4F202010068096851
:1011200041F68E22C1F3C221C0F60002515CC840D4
:101130007047000041F2040CC4F2020CDCF80030ED
:1011400003F00C00082841F20020C0F27A0018BF1A
:10115000704741F69621C3F38342C0F600018A5CD2
:10116000D90305D440F60010C0F23D00504370474B
:10117000DCF8001041F67C23C1F34041C0F60003C7
:10118000595C5043B0FBF1F070470000002804BFE9
:10119000012070472DE9F04182B00446007841F209
:1011A0000006C007C4F202060CD0706800F00C0004
:1011B000042840F081803068800303D560680028EF
:1011C00000F04681207880071BD5706810F00C0F66
:1011D00009D0706800F00C00082840F08780706823
:1011E000C00300F183803068800703D5206901289F
:1011F00040F02E813068616920F0F80040EAC100BB
:1012000030602078000713D4207840072CD4E5699B
:10121000002D00F01881706800F00C00082840F0E4
:10122000A780012D40F00481012002B0BDE8F081CB
:10123000A069002800F084800020C4F2422001212F
:10124000C0F88014FFF7BCFC054600BF706A800739
:1012500000F1B280FFF7B4FC401B0228F6D903204E
:1012600002B0BDE8F08100BFF0695FEAC00808D4B1
:10127000F06940F08050F061F06900F0805000901B
:10128000009847F20007C4F200073868C00549D447
:10129000386840F480703860FFF792FC054600BF64
:1012A0003868C0053ED4FFF78BFC401B6428F7D993
:1012B000032002B0BDE8F081706800F00C0008283F
:1012C00003D17068C0033FF576AF616830680029CC
:1012D00000F00C81B1F5A02F00F00081B1F5803F46
:1012E00040F01A8140F480301CE100BF20690028E2
:1012F00040F20000C4F2422000F088800121016029
:10130000FFF75EFC054600BF306880073FF572AF0F
:10131000FFF756FC401B0228F6D9032002B0BDE8B7
:10132000F08100BFE168306A002900F09D80052946
:1013300000F09280012940F0AF8040F00100B1E060
:101340000020C4F242200021C0F88014FFF738FCCE
:10135000054600BF706A80077FF556AFFFF730FC87
:10136000401B0228F6D9032002B0BDE8F08100BF7F
:101370000027C4F2422700203866FFF721FC022D27
:1013800005460DD13068800140F1DE80FFF718FC82
:10139000401B02284FF00300F4D902B0BDE8F081F1
:1013A000306880014FD5FFF70BFC401B02284FF03F
:1013B0000300F5D9F1E700BF40F20800C2F20000D7
:1013C000006844F6D351C1F26201A0FB0101480A52
:1013D000019000BF00BF0198411E002801913FF419
:1013E00013AF00BF0198411E002801913FF40CAFDC
:1013F00000BF0198411E002801913FF405AF00BFD6
:101400000198411E00280191E4D1FDE60021016010
:10141000FFF7D6FB054600BF306880077FF5F1AEC9
:10142000FFF7CEFB401B02284FF00300F4D9B4E7CE
:101430007068216A00F480328A4209D1616A00F43E
:101440007010884204D1002002B0BDE8F08100BFD6
:10145000012002B0BDE8F08140F004003062306A43
:1014600040F001001EE000BF20F001003062306A51
:1014700020F004003062FFF7A3FB054641F28837F5
:10148000306A800720D5FFF79BFB401BB8424FF026
:101490000300F5D981E700BF20F001003062306A17
:1014A00020F004003062FFF78BFB054641F28837DD
:1014B000306A800708D4FFF783FB401BB842F7D996
:1014C000032002B0BDE8F081B8F1000F3FF59FAEF8
:1014D000F06920F08050F06199E600BF40F4802070
:1014E0003060306840F480301CE000BF20F4803071
:1014F0003060306820F480203060FFF761FB0546E3
:10150000306880037FF55EAEFFF75AFB401B64280E
:101510004FF00300F4D940E720F4803030603068A9
:1015200020F480203060FFF74BFB054630688003D5
:101530003FF548AEFFF744FB401B6428F6D9032073
:1015400002B0BDE8F08100BF206AB0F5803F05D150
:101550007168A26821F40031114371607168626A98
:1015600021F4741111430843706001203866FFF7BD
:1015700027FB0446306880013FF565AFFFF720FB8D
:10158000001B02284FF00300F4D906E7411E00209B
:10159000B0EB116F1CBF012070474EF21002CEF26B
:1015A000000251604EF62351CEF20001F0230B7081
:1015B0000721906011607047002804BF0120704728
:1015C00010B5044690F8390028B9002084F8380096
:1015D000204600F061F8242084F839002068D4E91E
:1015E0000212C36823F40053C360036923F4405319
:1015F0001A430261D4E904231143C268194341F23A
:101600000C639A431143C1604169A26921F440719E
:10161000114343F60002C4F201029042416103D03B
:10162000FFF760FD02E000BFFFF770FDD4E9002383
:10163000192148439900B0FBF1F048F21F5CC5F254
:10164000EB1CA0FB0C314FF69C734909C0F6FF73ED
:1016500001FB0300322303EB0010A0FB0C03F0207E
:1016600000EA531000EB0110C3F3431108449060EB
:101670001069202120F490401061506920F02A0068
:101680005061D06840F40050D0600020E06384F8DE
:10169000391084F83A1010BD70B586B040F60004D9
:1016A000C4F20104006804F5405100268842059602
:1016B000CDE90366029601D006B070BD41F2180074
:1016C000C4F20200016802AD41F48041016001688A
:1016D00001F4804101910199016841F00401016028
:1016E0000068294600F00400019001984FF4007052
:1016F000029002200390032005902046FFF76CF92A
:101700004FF48060CDE90206204629460496FFF793
:1017100063F906B070BD00002DE9F041044690F871
:10172000390020280CD10E4600294FF0010018BFC7
:10173000002A01D1BDE8F08194F83800012803D1D6
:101740000220BDE8F08100BF012084F838000020AD
:10175000E06321201D4684F839001746FFF730FA70
:10176000A784E784E18C074600295FD005F10108D2
:1017700006E000BF16F8011B4160E18C002956D03D
:10178000E08C0138E0842068A1680268B1F5805FD0
:101790004FEA02611CD100290DD4B8F1000F29D005
:1017A000002D6AD0FFF70CFAC11B2068A94264D84B
:1017B00001680906F6D531886FF35F214160216920
:1017C000002914BF01360236E18C0029D8D12EE061
:1017D0000029CFD4B8F1000F1AD0002D4DD000BF92
:1017E000FFF7EEF9C11B2068A94246D80168090637
:1017F000F6D5BFE701680906DDD4016809065CBFBC
:1018000001685FEA0161D6D401680906F2D5D2E722
:1018100001680906AED4016809065CBF01685FEA89
:101820000161A7D401680906F2D5A3E72068016821
:1018300049060FD40DB3691C19D10168490609D4B2
:10184000016849065CBF01685FEA416102D4016832
:101850004906F2D5202084F839000020002184F8C0
:101860003810BDE8F08100BF00684006F2D4FFF7F1
:10187000A7F9C11B2068A942F6D9C16821F4D0712B
:10188000C160416921F001014161202084F83900E3
:1018900084F83A000320002184F83810BDE8F08174
:1018A000FEE70000FEE70000FEE7000070470000D2
:1018B00070470000FFF78AB941F20000C4F202004D
:1018C0000168002241F0010101604168CFF6FF028A
:1018D0001140416001684FF6FF72CFF6F662114089
:1018E0000160016821F480210160416821F4FE015A
:1018F00041604FF41F0181604EF60850CEF20000A7
:101900004FF0006101607047FEE7000096B0FFF7FE
:101910006BF90CAC201D2421FEF78EFC02200C90EC
:101920000120109010200025119020460695CDE949
:101930000455CDE902551395FFF728FC20B1EFF3CC
:10194000108072B6FEE700BF0F20CDE9070507A89B
:101950000021CDE909550B95FFF7E6FA20B1EFF329
:10196000108072B6FEE700BF02200190002401A89B
:101970000394FFF757FA28B1EFF3108072B600BF57
:10198000FEE700BF41F21800C4F20200016840F215
:10199000700541F020010160016842F2004601F04B
:1019A00020010C910C990168C2F2000541F004017C
:1019B00001600068C4F2010600F004000C900C986D
:1019C000284640F8046F047304754FF46021C0E9A1
:1019D00001440124C1610461FEF73AFD20B1EFF337
:1019E000108072B6FEE700BFCDE90C442C1D002725
:1019F0000CA920460E97FEF787FC28B1EFF3108064
:101A000072B600BFFEE700BF06F5A051284640F8B9
:101A1000341F4FF416510C22C0E90117C0E90377B7
:101A2000C0E90527C761FFF7C7FDC8B1EFF3108014
:101A300072B600BFFEE700BF2046FEF781FF288890
:101A4000294600BA000C21F8020F01F132000222EF
:101A50004FF0FF33FFF760FE4FF4FA70FEF7A8FF78
:101A60002046FEF7C5FE20460A21FEF7D3FD0028DA
:101A7000E2D12046FEF7E8FC2880DDE70102000005
:101A8000000000000000010203040607080900002E
:101A900000000102030402030405060708090A0BFB
:101AA0000C0D0E0F10100000C81A000800000020D6
:101AB0001000000094010008D81A0008100000204F
:101AC000D8060000B401000801000000100000006A
:081AD0000024F40000000000F6
:0400000508000131BD
:00000001FF
